{"contracts/TbillVault.sol":{"TBillStaking":{"abi":[{"inputs":[{"internalType":"address","name":"_tbill","type":"address"},{"internalType":"address","name":"_cUSD","type":"address"}],"stateMutability":"nonpayable","type":"constructor"},{"inputs":[],"name":"ReentrancyGuardReentrantCall","type":"error"},{"inputs":[],"name":"SEVEN_DAYS","outputs":[{"internalType":"uint256","name":"","type":"uint256"}],"stateMutability":"view","type":"function"},{"inputs":[],"name":"cUSD","outputs":[{"internalType":"contract IERC20","name":"","type":"address"}],"stateMutability":"view","type":"function"},{"inputs":[{"internalType":"address","name":"_user","type":"address"}],"name":"getStakes","outputs":[{"components":[{"internalType":"uint256","name":"amount","type":"uint256"},{"internalType":"uint256","name":"maturityValue","type":"uint256"},{"internalType":"uint256","name":"maturityDate","type":"uint256"},{"internalType":"uint256","name":"yield","type":"uint256"}],"internalType":"struct TBillStaking.Stake[]","name":"","type":"tuple[]"}],"stateMutability":"view","type":"function"},{"inputs":[],"name":"owner","outputs":[{"internalType":"address","name":"","type":"address"}],"stateMutability":"view","type":"function"},{"inputs":[],"name":"penaltyFee","outputs":[{"internalType":"uint256","name":"","type":"uint256"}],"stateMutability":"view","type":"function"},{"inputs":[],"name":"serviceFee","outputs":[{"internalType":"uint256","name":"","type":"uint256"}],"stateMutability":"view","type":"function"},{"inputs":[{"internalType":"uint256","name":"_fee","type":"uint256"}],"name":"setPenaltyFee","outputs":[],"stateMutability":"nonpayable","type":"function"},{"inputs":[{"internalType":"uint256","name":"_fee","type":"uint256"}],"name":"setServiceFee","outputs":[],"stateMutability":"nonpayable","type":"function"},{"inputs":[{"internalType":"uint256","name":"_amount","type":"uint256"},{"internalType":"uint256","name":"_yield","type":"uint256"},{"internalType":"uint256","name":"_maturityValue","type":"uint256"}],"name":"stake","outputs":[],"stateMutability":"nonpayable","type":"function"},{"inputs":[],"name":"tToken","outputs":[{"internalType":"contract ERC20","name":"","type":"address"}],"stateMutability":"view","type":"function"},{"inputs":[],"name":"withdraw","outputs":[],"stateMutability":"nonpayable","type":"function"}],"evm":{"bytecode":{"linkReferences":{},"object":"608060405234801561001057600080fd5b50604051610d11380380610d1183398101604081905261002f916100c7565b6001600081815581546001600160a01b039485166001600160a01b03199182161790925560028054939094169282169290921790925560079052600660205262093a807f4ced6d0d36392b04cc5d8761b1327b3bbba6e1089c77f60a9a9ca18e05e4f00e556003805490911633178155600455600580556100fa565b80516001600160a01b03811681146100c257600080fd5b919050565b600080604083850312156100da57600080fd5b6100e3836100ab565b91506100f1602084016100ab565b90509250929050565b610c08806101096000396000f3fe608060405234801561001057600080fd5b50600436106100a95760003560e01c80637ba6f458116100715780637ba6f458146101255780638abdf5aa146101455780638da5cb5b1461014e578063a638f2e214610161578063c35d64ea14610174578063fd26eaa11461018757600080fd5b806310c4f434146100ae5780631fccf672146100c35780633ccfd60b146100f35780633dc10ad4146100fb5780635cdf76f814610112575b600080fd5b6100c16100bc3660046109b0565b610191565b005b6002546100d6906001600160a01b031681565b6040516001600160a01b0390911681526020015b60405180910390f35b6100c16101c9565b61010460055481565b6040519081526020016100ea565b6100c16101203660046109b0565b610515565b6101386101333660046109c9565b610544565b6040516100ea91906109f2565b61010460045481565b6003546100d6906001600160a01b031681565b6100c161016f366004610a56565b6105e1565b6001546100d6906001600160a01b031681565b61010462093a8081565b6003546001600160a01b031633146101c45760405162461bcd60e51b81526004016101bb90610a82565b60405180910390fd5b600555565b6101d16108fe565b336102195760405162461bcd60e51b815260206004820152601860248201527716995c9bc81859191c995cdcc81b9bdd08185b1b1bddd95960421b60448201526064016101bb565b336000908152600760205260409020805461026e5760405162461bcd60e51b81526020600482015260156024820152744e6f207374616b657320746f20776974686472617760581b60448201526064016101bb565b60005a905060005b825481108015610287575061520882115b156105065760008382815481106102a0576102a0610ac7565b90600052602060002090600402019050600042826002015410156102d1576102ce8260010154600554610928565b90505b60006102e38360010154600454610928565b905060006103088361030284876001015461094b90919063ffffffff16565b9061094b565b875490915060009061031c90600190610af3565b905080861461038a5787818154811061033757610337610ac7565b906000526020600020906004020188878154811061035757610357610ac7565b60009182526020909120825460049092020190815560018083015490820155600280830154908201556003918201549101555b8780548061039a5761039a610b06565b600082815260208120600019929092016004818102909301828155600181018390556002808201849055600390910192909255909255905460405163a9059cbb60e01b81523392810192909252602482018490526001600160a01b03169063a9059cbb906044016020604051808303816000875af1158015610420573d6000803e3d6000fd5b505050506040513d601f19601f820116820180604052508101906104449190610b1c565b6104875760405162461bcd60e51b815260206004820152601460248201527318d554d1081d1c985b9cd9995c8819985a5b195960621b60448201526064016101bb565b60015460405163079cc67960e41b8152336004820152602481018490526001600160a01b03909116906379cc679090604401600060405180830381600087803b1580156104d357600080fd5b505af11580156104e7573d6000803e3d6000fd5b505050505a9650505050505080806104fe90610b3e565b915050610276565b5050506105136001600055565b565b6003546001600160a01b0316331461053f5760405162461bcd60e51b81526004016101bb90610a82565b600455565b6001600160a01b0381166000908152600760209081526040808320805482518185028101850190935280835260609492939192909184015b828210156105d657838290600052602060002090600402016040518060800160405290816000820154815260200160018201548152602001600282015481526020016003820154815250508152602001906001019061057c565b505050509050919050565b6105e96108fe565b336106315760405162461bcd60e51b815260206004820152601860248201527716995c9bc81859191c995cdcc81b9bdd08185b1b1bddd95960421b60448201526064016101bb565b600083116106905760405162461bcd60e51b815260206004820152602660248201527f5374616b6520616d6f756e74206d7573742062652067726561746572207468616044820152656e207a65726f60d01b60648201526084016101bb565b4260006106a08262093a80610b57565b600254604051636eb1769f60e11b81523360048201523060248201529192506000916001600160a01b039091169063dd62ed3e90604401602060405180830381865afa1580156106f4573d6000803e3d6000fd5b505050506040513d601f19601f820116820180604052508101906107189190610b6a565b90508581101561076a5760405162461bcd60e51b815260206004820152601b60248201527f496e73756666696369656e74206355534420616c6c6f77616e6365000000000060448201526064016101bb565b6002546040516323b872dd60e01b8152336004820152306024820152604481018890526001600160a01b03909116906323b872dd906064016020604051808303816000875af11580156107c1573d6000803e3d6000fd5b505050506040513d601f19601f820116820180604052508101906107e59190610b1c565b6108285760405162461bcd60e51b815260206004820152601460248201527318d554d1081d1c985b9cd9995c8819985a5b195960621b60448201526064016101bb565b604080516080810182528781526020808201878152828401868152606084018a81523360008181526007865287812080546001808201835591835296909120875160049788029091019081559451858201559251600285015590516003909301929092555493516340c10f1960e01b8152918201526024810187905290916001600160a01b0316906340c10f1990604401600060405180830381600087803b1580156108d357600080fd5b505af11580156108e7573d6000803e3d6000fd5b50505050505050506108f96001600055565b505050565b60026000540361092157604051633ee5aeb560e01b815260040160405180910390fd5b6002600055565b6000806109416103e861093b868661096e565b906109a4565b9150505b92915050565b60008282111561095d5761095d610b83565b6109678284610af3565b9392505050565b60008260000361098057506000610945565b61098a8284610b99565b9050816109978483610bb0565b1461094557610945610b83565b60006109678284610bb0565b6000602082840312156109c257600080fd5b5035919050565b6000602082840312156109db57600080fd5b81356001600160a01b038116811461096757600080fd5b602080825282518282018190526000919060409081850190868401855b82811015610a4957815180518552868101518786015285810151868601526060908101519085015260809093019290850190600101610a0f565b5091979650505050505050565b600080600060608486031215610a6b57600080fd5b505081359360208301359350604090920135919050565b60208082526025908201527f4f6e6c7920746865206f776e65722063616e2063616c6c20746869732066756e60408201526431ba34b7b760d91b606082015260800190565b634e487b7160e01b600052603260045260246000fd5b634e487b7160e01b600052601160045260246000fd5b8181038181111561094557610945610add565b634e487b7160e01b600052603160045260246000fd5b600060208284031215610b2e57600080fd5b8151801515811461096757600080fd5b600060018201610b5057610b50610add565b5060010190565b8082018082111561094557610945610add565b600060208284031215610b7c57600080fd5b5051919050565b634e487b7160e01b600052600160045260246000fd5b808202811582820484141761094557610945610add565b600082610bcd57634e487b7160e01b600052601260045260246000fd5b50049056fea264697066735822122083dab04f36ec3c26c844997fcf389b6eadb6b51a2aaf6c9ad764d916bc23ede164736f6c63430008180033","opcodes":"PUSH1 0x80 PUSH1 0x40 MSTORE CALLVALUE DUP1 ISZERO PUSH2 0x10 JUMPI PUSH1 0x0 DUP1 REVERT JUMPDEST POP PUSH1 0x40 MLOAD PUSH2 0xD11 CODESIZE SUB DUP1 PUSH2 0xD11 DUP4 CODECOPY DUP2 ADD PUSH1 0x40 DUP2 SWAP1 MSTORE PUSH2 0x2F SWAP2 PUSH2 0xC7 JUMP JUMPDEST PUSH1 0x1 PUSH1 0x0 DUP2 DUP2 SSTORE DUP2 SLOAD PUSH1 0x1 PUSH1 0x1 PUSH1 0xA0 SHL SUB SWAP5 DUP6 AND PUSH1 0x1 PUSH1 0x1 PUSH1 0xA0 SHL SUB NOT SWAP2 DUP3 AND OR SWAP1 SWAP3 SSTORE PUSH1 0x2 DUP1 SLOAD SWAP4 SWAP1 SWAP5 AND SWAP3 DUP3 AND SWAP3 SWAP1 SWAP3 OR SWAP1 SWAP3 SSTORE PUSH1 0x7 SWAP1 MSTORE PUSH1 0x6 PUSH1 0x20 MSTORE PUSH3 0x93A80 PUSH32 0x4CED6D0D36392B04CC5D8761B1327B3BBBA6E1089C77F60A9A9CA18E05E4F00E SSTORE PUSH1 0x3 DUP1 SLOAD SWAP1 SWAP2 AND CALLER OR DUP2 SSTORE PUSH1 0x4 SSTORE PUSH1 0x5 DUP1 SSTORE PUSH2 0xFA JUMP JUMPDEST DUP1 MLOAD PUSH1 0x1 PUSH1 0x1 PUSH1 0xA0 SHL SUB DUP2 AND DUP2 EQ PUSH2 0xC2 JUMPI PUSH1 0x0 DUP1 REVERT JUMPDEST SWAP2 SWAP1 POP JUMP JUMPDEST PUSH1 0x0 DUP1 PUSH1 0x40 DUP4 DUP6 SUB SLT ISZERO PUSH2 0xDA JUMPI PUSH1 0x0 DUP1 REVERT JUMPDEST PUSH2 0xE3 DUP4 PUSH2 0xAB JUMP JUMPDEST SWAP2 POP PUSH2 0xF1 PUSH1 0x20 DUP5 ADD PUSH2 0xAB JUMP JUMPDEST SWAP1 POP SWAP3 POP SWAP3 SWAP1 POP JUMP JUMPDEST PUSH2 0xC08 DUP1 PUSH2 0x109 PUSH1 0x0 CODECOPY PUSH1 0x0 RETURN INVALID PUSH1 0x80 PUSH1 0x40 MSTORE CALLVALUE DUP1 ISZERO PUSH2 0x10 JUMPI PUSH1 0x0 DUP1 REVERT JUMPDEST POP PUSH1 0x4 CALLDATASIZE LT PUSH2 0xA9 JUMPI PUSH1 0x0 CALLDATALOAD PUSH1 0xE0 SHR DUP1 PUSH4 0x7BA6F458 GT PUSH2 0x71 JUMPI DUP1 PUSH4 0x7BA6F458 EQ PUSH2 0x125 JUMPI DUP1 PUSH4 0x8ABDF5AA EQ PUSH2 0x145 JUMPI DUP1 PUSH4 0x8DA5CB5B EQ PUSH2 0x14E JUMPI DUP1 PUSH4 0xA638F2E2 EQ PUSH2 0x161 JUMPI DUP1 PUSH4 0xC35D64EA EQ PUSH2 0x174 JUMPI DUP1 PUSH4 0xFD26EAA1 EQ PUSH2 0x187 JUMPI PUSH1 0x0 DUP1 REVERT JUMPDEST DUP1 PUSH4 0x10C4F434 EQ PUSH2 0xAE JUMPI DUP1 PUSH4 0x1FCCF672 EQ PUSH2 0xC3 JUMPI DUP1 PUSH4 0x3CCFD60B EQ PUSH2 0xF3 JUMPI DUP1 PUSH4 0x3DC10AD4 EQ PUSH2 0xFB JUMPI DUP1 PUSH4 0x5CDF76F8 EQ PUSH2 0x112 JUMPI JUMPDEST PUSH1 0x0 DUP1 REVERT JUMPDEST PUSH2 0xC1 PUSH2 0xBC CALLDATASIZE PUSH1 0x4 PUSH2 0x9B0 JUMP JUMPDEST PUSH2 0x191 JUMP JUMPDEST STOP JUMPDEST PUSH1 0x2 SLOAD PUSH2 0xD6 SWAP1 PUSH1 0x1 PUSH1 0x1 PUSH1 0xA0 SHL SUB AND DUP2 JUMP JUMPDEST PUSH1 0x40 MLOAD PUSH1 0x1 PUSH1 0x1 PUSH1 0xA0 SHL SUB SWAP1 SWAP2 AND DUP2 MSTORE PUSH1 0x20 ADD JUMPDEST PUSH1 0x40 MLOAD DUP1 SWAP2 SUB SWAP1 RETURN JUMPDEST PUSH2 0xC1 PUSH2 0x1C9 JUMP JUMPDEST PUSH2 0x104 PUSH1 0x5 SLOAD DUP2 JUMP JUMPDEST PUSH1 0x40 MLOAD SWAP1 DUP2 MSTORE PUSH1 0x20 ADD PUSH2 0xEA JUMP JUMPDEST PUSH2 0xC1 PUSH2 0x120 CALLDATASIZE PUSH1 0x4 PUSH2 0x9B0 JUMP JUMPDEST PUSH2 0x515 JUMP JUMPDEST PUSH2 0x138 PUSH2 0x133 CALLDATASIZE PUSH1 0x4 PUSH2 0x9C9 JUMP JUMPDEST PUSH2 0x544 JUMP JUMPDEST PUSH1 0x40 MLOAD PUSH2 0xEA SWAP2 SWAP1 PUSH2 0x9F2 JUMP JUMPDEST PUSH2 0x104 PUSH1 0x4 SLOAD DUP2 JUMP JUMPDEST PUSH1 0x3 SLOAD PUSH2 0xD6 SWAP1 PUSH1 0x1 PUSH1 0x1 PUSH1 0xA0 SHL SUB AND DUP2 JUMP JUMPDEST PUSH2 0xC1 PUSH2 0x16F CALLDATASIZE PUSH1 0x4 PUSH2 0xA56 JUMP JUMPDEST PUSH2 0x5E1 JUMP JUMPDEST PUSH1 0x1 SLOAD PUSH2 0xD6 SWAP1 PUSH1 0x1 PUSH1 0x1 PUSH1 0xA0 SHL SUB AND DUP2 JUMP JUMPDEST PUSH2 0x104 PUSH3 0x93A80 DUP2 JUMP JUMPDEST PUSH1 0x3 SLOAD PUSH1 0x1 PUSH1 0x1 PUSH1 0xA0 SHL SUB AND CALLER EQ PUSH2 0x1C4 JUMPI PUSH1 0x40 MLOAD PUSH3 0x461BCD PUSH1 0xE5 SHL DUP2 MSTORE PUSH1 0x4 ADD PUSH2 0x1BB SWAP1 PUSH2 0xA82 JUMP JUMPDEST PUSH1 0x40 MLOAD DUP1 SWAP2 SUB SWAP1 REVERT JUMPDEST PUSH1 0x5 SSTORE JUMP JUMPDEST PUSH2 0x1D1 PUSH2 0x8FE JUMP JUMPDEST CALLER PUSH2 0x219 JUMPI PUSH1 0x40 MLOAD PUSH3 0x461BCD PUSH1 0xE5 SHL DUP2 MSTORE PUSH1 0x20 PUSH1 0x4 DUP3 ADD MSTORE PUSH1 0x18 PUSH1 0x24 DUP3 ADD MSTORE PUSH24 0x16995C9BC81859191C995CDCC81B9BDD08185B1B1BDDD959 PUSH1 0x42 SHL PUSH1 0x44 DUP3 ADD MSTORE PUSH1 0x64 ADD PUSH2 0x1BB JUMP JUMPDEST CALLER PUSH1 0x0 SWAP1 DUP2 MSTORE PUSH1 0x7 PUSH1 0x20 MSTORE PUSH1 0x40 SWAP1 KECCAK256 DUP1 SLOAD PUSH2 0x26E JUMPI PUSH1 0x40 MLOAD PUSH3 0x461BCD PUSH1 0xE5 SHL DUP2 MSTORE PUSH1 0x20 PUSH1 0x4 DUP3 ADD MSTORE PUSH1 0x15 PUSH1 0x24 DUP3 ADD MSTORE PUSH21 0x4E6F207374616B657320746F207769746864726177 PUSH1 0x58 SHL PUSH1 0x44 DUP3 ADD MSTORE PUSH1 0x64 ADD PUSH2 0x1BB JUMP JUMPDEST PUSH1 0x0 GAS SWAP1 POP PUSH1 0x0 JUMPDEST DUP3 SLOAD DUP2 LT DUP1 ISZERO PUSH2 0x287 JUMPI POP PUSH2 0x5208 DUP3 GT JUMPDEST ISZERO PUSH2 0x506 JUMPI PUSH1 0x0 DUP4 DUP3 DUP2 SLOAD DUP2 LT PUSH2 0x2A0 JUMPI PUSH2 0x2A0 PUSH2 0xAC7 JUMP JUMPDEST SWAP1 PUSH1 0x0 MSTORE PUSH1 0x20 PUSH1 0x0 KECCAK256 SWAP1 PUSH1 0x4 MUL ADD SWAP1 POP PUSH1 0x0 TIMESTAMP DUP3 PUSH1 0x2 ADD SLOAD LT ISZERO PUSH2 0x2D1 JUMPI PUSH2 0x2CE DUP3 PUSH1 0x1 ADD SLOAD PUSH1 0x5 SLOAD PUSH2 0x928 JUMP JUMPDEST SWAP1 POP JUMPDEST PUSH1 0x0 PUSH2 0x2E3 DUP4 PUSH1 0x1 ADD SLOAD PUSH1 0x4 SLOAD PUSH2 0x928 JUMP JUMPDEST SWAP1 POP PUSH1 0x0 PUSH2 0x308 DUP4 PUSH2 0x302 DUP5 DUP8 PUSH1 0x1 ADD SLOAD PUSH2 0x94B SWAP1 SWAP2 SWAP1 PUSH4 0xFFFFFFFF AND JUMP JUMPDEST SWAP1 PUSH2 0x94B JUMP JUMPDEST DUP8 SLOAD SWAP1 SWAP2 POP PUSH1 0x0 SWAP1 PUSH2 0x31C SWAP1 PUSH1 0x1 SWAP1 PUSH2 0xAF3 JUMP JUMPDEST SWAP1 POP DUP1 DUP7 EQ PUSH2 0x38A JUMPI DUP8 DUP2 DUP2 SLOAD DUP2 LT PUSH2 0x337 JUMPI PUSH2 0x337 PUSH2 0xAC7 JUMP JUMPDEST SWAP1 PUSH1 0x0 MSTORE PUSH1 0x20 PUSH1 0x0 KECCAK256 SWAP1 PUSH1 0x4 MUL ADD DUP9 DUP8 DUP2 SLOAD DUP2 LT PUSH2 0x357 JUMPI PUSH2 0x357 PUSH2 0xAC7 JUMP JUMPDEST PUSH1 0x0 SWAP2 DUP3 MSTORE PUSH1 0x20 SWAP1 SWAP2 KECCAK256 DUP3 SLOAD PUSH1 0x4 SWAP1 SWAP3 MUL ADD SWAP1 DUP2 SSTORE PUSH1 0x1 DUP1 DUP4 ADD SLOAD SWAP1 DUP3 ADD SSTORE PUSH1 0x2 DUP1 DUP4 ADD SLOAD SWAP1 DUP3 ADD SSTORE PUSH1 0x3 SWAP2 DUP3 ADD SLOAD SWAP2 ADD SSTORE JUMPDEST DUP8 DUP1 SLOAD DUP1 PUSH2 0x39A JUMPI PUSH2 0x39A PUSH2 0xB06 JUMP JUMPDEST PUSH1 0x0 DUP3 DUP2 MSTORE PUSH1 0x20 DUP2 KECCAK256 PUSH1 0x0 NOT SWAP3 SWAP1 SWAP3 ADD PUSH1 0x4 DUP2 DUP2 MUL SWAP1 SWAP4 ADD DUP3 DUP2 SSTORE PUSH1 0x1 DUP2 ADD DUP4 SWAP1 SSTORE PUSH1 0x2 DUP1 DUP3 ADD DUP5 SWAP1 SSTORE PUSH1 0x3 SWAP1 SWAP2 ADD SWAP3 SWAP1 SWAP3 SSTORE SWAP1 SWAP3 SSTORE SWAP1 SLOAD PUSH1 0x40 MLOAD PUSH4 0xA9059CBB PUSH1 0xE0 SHL DUP2 MSTORE CALLER SWAP3 DUP2 ADD SWAP3 SWAP1 SWAP3 MSTORE PUSH1 0x24 DUP3 ADD DUP5 SWAP1 MSTORE PUSH1 0x1 PUSH1 0x1 PUSH1 0xA0 SHL SUB AND SWAP1 PUSH4 0xA9059CBB SWAP1 PUSH1 0x44 ADD PUSH1 0x20 PUSH1 0x40 MLOAD DUP1 DUP4 SUB DUP2 PUSH1 0x0 DUP8 GAS CALL ISZERO DUP1 ISZERO PUSH2 0x420 JUMPI RETURNDATASIZE PUSH1 0x0 DUP1 RETURNDATACOPY RETURNDATASIZE PUSH1 0x0 REVERT JUMPDEST POP POP POP POP PUSH1 0x40 MLOAD RETURNDATASIZE PUSH1 0x1F NOT PUSH1 0x1F DUP3 ADD AND DUP3 ADD DUP1 PUSH1 0x40 MSTORE POP DUP2 ADD SWAP1 PUSH2 0x444 SWAP2 SWAP1 PUSH2 0xB1C JUMP JUMPDEST PUSH2 0x487 JUMPI PUSH1 0x40 MLOAD PUSH3 0x461BCD PUSH1 0xE5 SHL DUP2 MSTORE PUSH1 0x20 PUSH1 0x4 DUP3 ADD MSTORE PUSH1 0x14 PUSH1 0x24 DUP3 ADD MSTORE PUSH20 0x18D554D1081D1C985B9CD9995C8819985A5B1959 PUSH1 0x62 SHL PUSH1 0x44 DUP3 ADD MSTORE PUSH1 0x64 ADD PUSH2 0x1BB JUMP JUMPDEST PUSH1 0x1 SLOAD PUSH1 0x40 MLOAD PUSH4 0x79CC679 PUSH1 0xE4 SHL DUP2 MSTORE CALLER PUSH1 0x4 DUP3 ADD MSTORE PUSH1 0x24 DUP2 ADD DUP5 SWAP1 MSTORE PUSH1 0x1 PUSH1 0x1 PUSH1 0xA0 SHL SUB SWAP1 SWAP2 AND SWAP1 PUSH4 0x79CC6790 SWAP1 PUSH1 0x44 ADD PUSH1 0x0 PUSH1 0x40 MLOAD DUP1 DUP4 SUB DUP2 PUSH1 0x0 DUP8 DUP1 EXTCODESIZE ISZERO DUP1 ISZERO PUSH2 0x4D3 JUMPI PUSH1 0x0 DUP1 REVERT JUMPDEST POP GAS CALL ISZERO DUP1 ISZERO PUSH2 0x4E7 JUMPI RETURNDATASIZE PUSH1 0x0 DUP1 RETURNDATACOPY RETURNDATASIZE PUSH1 0x0 REVERT JUMPDEST POP POP POP POP GAS SWAP7 POP POP POP POP POP POP DUP1 DUP1 PUSH2 0x4FE SWAP1 PUSH2 0xB3E JUMP JUMPDEST SWAP2 POP POP PUSH2 0x276 JUMP JUMPDEST POP POP POP PUSH2 0x513 PUSH1 0x1 PUSH1 0x0 SSTORE JUMP JUMPDEST JUMP JUMPDEST PUSH1 0x3 SLOAD PUSH1 0x1 PUSH1 0x1 PUSH1 0xA0 SHL SUB AND CALLER EQ PUSH2 0x53F JUMPI PUSH1 0x40 MLOAD PUSH3 0x461BCD PUSH1 0xE5 SHL DUP2 MSTORE PUSH1 0x4 ADD PUSH2 0x1BB SWAP1 PUSH2 0xA82 JUMP JUMPDEST PUSH1 0x4 SSTORE JUMP JUMPDEST PUSH1 0x1 PUSH1 0x1 PUSH1 0xA0 SHL SUB DUP2 AND PUSH1 0x0 SWAP1 DUP2 MSTORE PUSH1 0x7 PUSH1 0x20 SWAP1 DUP2 MSTORE PUSH1 0x40 DUP1 DUP4 KECCAK256 DUP1 SLOAD DUP3 MLOAD DUP2 DUP6 MUL DUP2 ADD DUP6 ADD SWAP1 SWAP4 MSTORE DUP1 DUP4 MSTORE PUSH1 0x60 SWAP5 SWAP3 SWAP4 SWAP2 SWAP3 SWAP1 SWAP2 DUP5 ADD JUMPDEST DUP3 DUP3 LT ISZERO PUSH2 0x5D6 JUMPI DUP4 DUP3 SWAP1 PUSH1 0x0 MSTORE PUSH1 0x20 PUSH1 0x0 KECCAK256 SWAP1 PUSH1 0x4 MUL ADD PUSH1 0x40 MLOAD DUP1 PUSH1 0x80 ADD PUSH1 0x40 MSTORE SWAP1 DUP2 PUSH1 0x0 DUP3 ADD SLOAD DUP2 MSTORE PUSH1 0x20 ADD PUSH1 0x1 DUP3 ADD SLOAD DUP2 MSTORE PUSH1 0x20 ADD PUSH1 0x2 DUP3 ADD SLOAD DUP2 MSTORE PUSH1 0x20 ADD PUSH1 0x3 DUP3 ADD SLOAD DUP2 MSTORE POP POP DUP2 MSTORE PUSH1 0x20 ADD SWAP1 PUSH1 0x1 ADD SWAP1 PUSH2 0x57C JUMP JUMPDEST POP POP POP POP SWAP1 POP SWAP2 SWAP1 POP JUMP JUMPDEST PUSH2 0x5E9 PUSH2 0x8FE JUMP JUMPDEST CALLER PUSH2 0x631 JUMPI PUSH1 0x40 MLOAD PUSH3 0x461BCD PUSH1 0xE5 SHL DUP2 MSTORE PUSH1 0x20 PUSH1 0x4 DUP3 ADD MSTORE PUSH1 0x18 PUSH1 0x24 DUP3 ADD MSTORE PUSH24 0x16995C9BC81859191C995CDCC81B9BDD08185B1B1BDDD959 PUSH1 0x42 SHL PUSH1 0x44 DUP3 ADD MSTORE PUSH1 0x64 ADD PUSH2 0x1BB JUMP JUMPDEST PUSH1 0x0 DUP4 GT PUSH2 0x690 JUMPI PUSH1 0x40 MLOAD PUSH3 0x461BCD PUSH1 0xE5 SHL DUP2 MSTORE PUSH1 0x20 PUSH1 0x4 DUP3 ADD MSTORE PUSH1 0x26 PUSH1 0x24 DUP3 ADD MSTORE PUSH32 0x5374616B6520616D6F756E74206D757374206265206772656174657220746861 PUSH1 0x44 DUP3 ADD MSTORE PUSH6 0x6E207A65726F PUSH1 0xD0 SHL PUSH1 0x64 DUP3 ADD MSTORE PUSH1 0x84 ADD PUSH2 0x1BB JUMP JUMPDEST TIMESTAMP PUSH1 0x0 PUSH2 0x6A0 DUP3 PUSH3 0x93A80 PUSH2 0xB57 JUMP JUMPDEST PUSH1 0x2 SLOAD PUSH1 0x40 MLOAD PUSH4 0x6EB1769F PUSH1 0xE1 SHL DUP2 MSTORE CALLER PUSH1 0x4 DUP3 ADD MSTORE ADDRESS PUSH1 0x24 DUP3 ADD MSTORE SWAP2 SWAP3 POP PUSH1 0x0 SWAP2 PUSH1 0x1 PUSH1 0x1 PUSH1 0xA0 SHL SUB SWAP1 SWAP2 AND SWAP1 PUSH4 0xDD62ED3E SWAP1 PUSH1 0x44 ADD PUSH1 0x20 PUSH1 0x40 MLOAD DUP1 DUP4 SUB DUP2 DUP7 GAS STATICCALL ISZERO DUP1 ISZERO PUSH2 0x6F4 JUMPI RETURNDATASIZE PUSH1 0x0 DUP1 RETURNDATACOPY RETURNDATASIZE PUSH1 0x0 REVERT JUMPDEST POP POP POP POP PUSH1 0x40 MLOAD RETURNDATASIZE PUSH1 0x1F NOT PUSH1 0x1F DUP3 ADD AND DUP3 ADD DUP1 PUSH1 0x40 MSTORE POP DUP2 ADD SWAP1 PUSH2 0x718 SWAP2 SWAP1 PUSH2 0xB6A JUMP JUMPDEST SWAP1 POP DUP6 DUP2 LT ISZERO PUSH2 0x76A JUMPI PUSH1 0x40 MLOAD PUSH3 0x461BCD PUSH1 0xE5 SHL DUP2 MSTORE PUSH1 0x20 PUSH1 0x4 DUP3 ADD MSTORE PUSH1 0x1B PUSH1 0x24 DUP3 ADD MSTORE PUSH32 0x496E73756666696369656E74206355534420616C6C6F77616E63650000000000 PUSH1 0x44 DUP3 ADD MSTORE PUSH1 0x64 ADD PUSH2 0x1BB JUMP JUMPDEST PUSH1 0x2 SLOAD PUSH1 0x40 MLOAD PUSH4 0x23B872DD PUSH1 0xE0 SHL DUP2 MSTORE CALLER PUSH1 0x4 DUP3 ADD MSTORE ADDRESS PUSH1 0x24 DUP3 ADD MSTORE PUSH1 0x44 DUP2 ADD DUP9 SWAP1 MSTORE PUSH1 0x1 PUSH1 0x1 PUSH1 0xA0 SHL SUB SWAP1 SWAP2 AND SWAP1 PUSH4 0x23B872DD SWAP1 PUSH1 0x64 ADD PUSH1 0x20 PUSH1 0x40 MLOAD DUP1 DUP4 SUB DUP2 PUSH1 0x0 DUP8 GAS CALL ISZERO DUP1 ISZERO PUSH2 0x7C1 JUMPI RETURNDATASIZE PUSH1 0x0 DUP1 RETURNDATACOPY RETURNDATASIZE PUSH1 0x0 REVERT JUMPDEST POP POP POP POP PUSH1 0x40 MLOAD RETURNDATASIZE PUSH1 0x1F NOT PUSH1 0x1F DUP3 ADD AND DUP3 ADD DUP1 PUSH1 0x40 MSTORE POP DUP2 ADD SWAP1 PUSH2 0x7E5 SWAP2 SWAP1 PUSH2 0xB1C JUMP JUMPDEST PUSH2 0x828 JUMPI PUSH1 0x40 MLOAD PUSH3 0x461BCD PUSH1 0xE5 SHL DUP2 MSTORE PUSH1 0x20 PUSH1 0x4 DUP3 ADD MSTORE PUSH1 0x14 PUSH1 0x24 DUP3 ADD MSTORE PUSH20 0x18D554D1081D1C985B9CD9995C8819985A5B1959 PUSH1 0x62 SHL PUSH1 0x44 DUP3 ADD MSTORE PUSH1 0x64 ADD PUSH2 0x1BB JUMP JUMPDEST PUSH1 0x40 DUP1 MLOAD PUSH1 0x80 DUP2 ADD DUP3 MSTORE DUP8 DUP2 MSTORE PUSH1 0x20 DUP1 DUP3 ADD DUP8 DUP2 MSTORE DUP3 DUP5 ADD DUP7 DUP2 MSTORE PUSH1 0x60 DUP5 ADD DUP11 DUP2 MSTORE CALLER PUSH1 0x0 DUP2 DUP2 MSTORE PUSH1 0x7 DUP7 MSTORE DUP8 DUP2 KECCAK256 DUP1 SLOAD PUSH1 0x1 DUP1 DUP3 ADD DUP4 SSTORE SWAP2 DUP4 MSTORE SWAP7 SWAP1 SWAP2 KECCAK256 DUP8 MLOAD PUSH1 0x4 SWAP8 DUP9 MUL SWAP1 SWAP2 ADD SWAP1 DUP2 SSTORE SWAP5 MLOAD DUP6 DUP3 ADD SSTORE SWAP3 MLOAD PUSH1 0x2 DUP6 ADD SSTORE SWAP1 MLOAD PUSH1 0x3 SWAP1 SWAP4 ADD SWAP3 SWAP1 SWAP3 SSTORE SLOAD SWAP4 MLOAD PUSH4 0x40C10F19 PUSH1 0xE0 SHL DUP2 MSTORE SWAP2 DUP3 ADD MSTORE PUSH1 0x24 DUP2 ADD DUP8 SWAP1 MSTORE SWAP1 SWAP2 PUSH1 0x1 PUSH1 0x1 PUSH1 0xA0 SHL SUB AND SWAP1 PUSH4 0x40C10F19 SWAP1 PUSH1 0x44 ADD PUSH1 0x0 PUSH1 0x40 MLOAD DUP1 DUP4 SUB DUP2 PUSH1 0x0 DUP8 DUP1 EXTCODESIZE ISZERO DUP1 ISZERO PUSH2 0x8D3 JUMPI PUSH1 0x0 DUP1 REVERT JUMPDEST POP GAS CALL ISZERO DUP1 ISZERO PUSH2 0x8E7 JUMPI RETURNDATASIZE PUSH1 0x0 DUP1 RETURNDATACOPY RETURNDATASIZE PUSH1 0x0 REVERT JUMPDEST POP POP POP POP POP POP POP POP PUSH2 0x8F9 PUSH1 0x1 PUSH1 0x0 SSTORE JUMP JUMPDEST POP POP POP JUMP JUMPDEST PUSH1 0x2 PUSH1 0x0 SLOAD SUB PUSH2 0x921 JUMPI PUSH1 0x40 MLOAD PUSH4 0x3EE5AEB5 PUSH1 0xE0 SHL DUP2 MSTORE PUSH1 0x4 ADD PUSH1 0x40 MLOAD DUP1 SWAP2 SUB SWAP1 REVERT JUMPDEST PUSH1 0x2 PUSH1 0x0 SSTORE JUMP JUMPDEST PUSH1 0x0 DUP1 PUSH2 0x941 PUSH2 0x3E8 PUSH2 0x93B DUP7 DUP7 PUSH2 0x96E JUMP JUMPDEST SWAP1 PUSH2 0x9A4 JUMP JUMPDEST SWAP2 POP POP JUMPDEST SWAP3 SWAP2 POP POP JUMP JUMPDEST PUSH1 0x0 DUP3 DUP3 GT ISZERO PUSH2 0x95D JUMPI PUSH2 0x95D PUSH2 0xB83 JUMP JUMPDEST PUSH2 0x967 DUP3 DUP5 PUSH2 0xAF3 JUMP JUMPDEST SWAP4 SWAP3 POP POP POP JUMP JUMPDEST PUSH1 0x0 DUP3 PUSH1 0x0 SUB PUSH2 0x980 JUMPI POP PUSH1 0x0 PUSH2 0x945 JUMP JUMPDEST PUSH2 0x98A DUP3 DUP5 PUSH2 0xB99 JUMP JUMPDEST SWAP1 POP DUP2 PUSH2 0x997 DUP5 DUP4 PUSH2 0xBB0 JUMP JUMPDEST EQ PUSH2 0x945 JUMPI PUSH2 0x945 PUSH2 0xB83 JUMP JUMPDEST PUSH1 0x0 PUSH2 0x967 DUP3 DUP5 PUSH2 0xBB0 JUMP JUMPDEST PUSH1 0x0 PUSH1 0x20 DUP3 DUP5 SUB SLT ISZERO PUSH2 0x9C2 JUMPI PUSH1 0x0 DUP1 REVERT JUMPDEST POP CALLDATALOAD SWAP2 SWAP1 POP JUMP JUMPDEST PUSH1 0x0 PUSH1 0x20 DUP3 DUP5 SUB SLT ISZERO PUSH2 0x9DB JUMPI PUSH1 0x0 DUP1 REVERT JUMPDEST DUP2 CALLDATALOAD PUSH1 0x1 PUSH1 0x1 PUSH1 0xA0 SHL SUB DUP2 AND DUP2 EQ PUSH2 0x967 JUMPI PUSH1 0x0 DUP1 REVERT JUMPDEST PUSH1 0x20 DUP1 DUP3 MSTORE DUP3 MLOAD DUP3 DUP3 ADD DUP2 SWAP1 MSTORE PUSH1 0x0 SWAP2 SWAP1 PUSH1 0x40 SWAP1 DUP2 DUP6 ADD SWAP1 DUP7 DUP5 ADD DUP6 JUMPDEST DUP3 DUP2 LT ISZERO PUSH2 0xA49 JUMPI DUP2 MLOAD DUP1 MLOAD DUP6 MSTORE DUP7 DUP2 ADD MLOAD DUP8 DUP7 ADD MSTORE DUP6 DUP2 ADD MLOAD DUP7 DUP7 ADD MSTORE PUSH1 0x60 SWAP1 DUP2 ADD MLOAD SWAP1 DUP6 ADD MSTORE PUSH1 0x80 SWAP1 SWAP4 ADD SWAP3 SWAP1 DUP6 ADD SWAP1 PUSH1 0x1 ADD PUSH2 0xA0F JUMP JUMPDEST POP SWAP2 SWAP8 SWAP7 POP POP POP POP POP POP POP JUMP JUMPDEST PUSH1 0x0 DUP1 PUSH1 0x0 PUSH1 0x60 DUP5 DUP7 SUB SLT ISZERO PUSH2 0xA6B JUMPI PUSH1 0x0 DUP1 REVERT JUMPDEST POP POP DUP2 CALLDATALOAD SWAP4 PUSH1 0x20 DUP4 ADD CALLDATALOAD SWAP4 POP PUSH1 0x40 SWAP1 SWAP3 ADD CALLDATALOAD SWAP2 SWAP1 POP JUMP JUMPDEST PUSH1 0x20 DUP1 DUP3 MSTORE PUSH1 0x25 SWAP1 DUP3 ADD MSTORE PUSH32 0x4F6E6C7920746865206F776E65722063616E2063616C6C20746869732066756E PUSH1 0x40 DUP3 ADD MSTORE PUSH5 0x31BA34B7B7 PUSH1 0xD9 SHL PUSH1 0x60 DUP3 ADD MSTORE PUSH1 0x80 ADD SWAP1 JUMP JUMPDEST PUSH4 0x4E487B71 PUSH1 0xE0 SHL PUSH1 0x0 MSTORE PUSH1 0x32 PUSH1 0x4 MSTORE PUSH1 0x24 PUSH1 0x0 REVERT JUMPDEST PUSH4 0x4E487B71 PUSH1 0xE0 SHL PUSH1 0x0 MSTORE PUSH1 0x11 PUSH1 0x4 MSTORE PUSH1 0x24 PUSH1 0x0 REVERT JUMPDEST DUP2 DUP2 SUB DUP2 DUP2 GT ISZERO PUSH2 0x945 JUMPI PUSH2 0x945 PUSH2 0xADD JUMP JUMPDEST PUSH4 0x4E487B71 PUSH1 0xE0 SHL PUSH1 0x0 MSTORE PUSH1 0x31 PUSH1 0x4 MSTORE PUSH1 0x24 PUSH1 0x0 REVERT JUMPDEST PUSH1 0x0 PUSH1 0x20 DUP3 DUP5 SUB SLT ISZERO PUSH2 0xB2E JUMPI PUSH1 0x0 DUP1 REVERT JUMPDEST DUP2 MLOAD DUP1 ISZERO ISZERO DUP2 EQ PUSH2 0x967 JUMPI PUSH1 0x0 DUP1 REVERT JUMPDEST PUSH1 0x0 PUSH1 0x1 DUP3 ADD PUSH2 0xB50 JUMPI PUSH2 0xB50 PUSH2 0xADD JUMP JUMPDEST POP PUSH1 0x1 ADD SWAP1 JUMP JUMPDEST DUP1 DUP3 ADD DUP1 DUP3 GT ISZERO PUSH2 0x945 JUMPI PUSH2 0x945 PUSH2 0xADD JUMP JUMPDEST PUSH1 0x0 PUSH1 0x20 DUP3 DUP5 SUB SLT ISZERO PUSH2 0xB7C JUMPI PUSH1 0x0 DUP1 REVERT JUMPDEST POP MLOAD SWAP2 SWAP1 POP JUMP JUMPDEST PUSH4 0x4E487B71 PUSH1 0xE0 SHL PUSH1 0x0 MSTORE PUSH1 0x1 PUSH1 0x4 MSTORE PUSH1 0x24 PUSH1 0x0 REVERT JUMPDEST DUP1 DUP3 MUL DUP2 ISZERO DUP3 DUP3 DIV DUP5 EQ OR PUSH2 0x945 JUMPI PUSH2 0x945 PUSH2 0xADD JUMP JUMPDEST PUSH1 0x0 DUP3 PUSH2 0xBCD JUMPI PUSH4 0x4E487B71 PUSH1 0xE0 SHL PUSH1 0x0 MSTORE PUSH1 0x12 PUSH1 0x4 MSTORE PUSH1 0x24 PUSH1 0x0 REVERT JUMPDEST POP DIV SWAP1 JUMP INVALID LOG2 PUSH5 0x6970667358 0x22 SLT KECCAK256 DUP4 0xDA 0xB0 0x4F CALLDATASIZE 0xEC EXTCODECOPY 0x26 0xC8 PREVRANDAO SWAP10 PUSH32 0xCF389B6EADB6B51A2AAF6C9AD764D916BC23EDE164736F6C6343000818003300 "},"methodIdentifiers":{"SEVEN_DAYS()":"fd26eaa1","cUSD()":"1fccf672","getStakes(address)":"7ba6f458","owner()":"8da5cb5b","penaltyFee()":"3dc10ad4","serviceFee()":"8abdf5aa","setPenaltyFee(uint256)":"10c4f434","setServiceFee(uint256)":"5cdf76f8","stake(uint256,uint256,uint256)":"a638f2e2","tToken()":"c35d64ea","withdraw()":"3ccfd60b"}}}}}