{
  "_format": "hh-sol-artifact-1",
  "contractName": "TBillStaking",
  "sourceName": "contracts/TbillVault.sol",
  "abi": [
    {
      "inputs": [
        {
          "internalType": "address",
          "name": "_cUSD",
          "type": "address"
        }
      ],
      "stateMutability": "nonpayable",
      "type": "constructor"
    },
    {
      "inputs": [
        {
          "internalType": "address",
          "name": "spender",
          "type": "address"
        },
        {
          "internalType": "uint256",
          "name": "allowance",
          "type": "uint256"
        },
        {
          "internalType": "uint256",
          "name": "needed",
          "type": "uint256"
        }
      ],
      "name": "ERC20InsufficientAllowance",
      "type": "error"
    },
    {
      "inputs": [
        {
          "internalType": "address",
          "name": "sender",
          "type": "address"
        },
        {
          "internalType": "uint256",
          "name": "balance",
          "type": "uint256"
        },
        {
          "internalType": "uint256",
          "name": "needed",
          "type": "uint256"
        }
      ],
      "name": "ERC20InsufficientBalance",
      "type": "error"
    },
    {
      "inputs": [
        {
          "internalType": "address",
          "name": "approver",
          "type": "address"
        }
      ],
      "name": "ERC20InvalidApprover",
      "type": "error"
    },
    {
      "inputs": [
        {
          "internalType": "address",
          "name": "receiver",
          "type": "address"
        }
      ],
      "name": "ERC20InvalidReceiver",
      "type": "error"
    },
    {
      "inputs": [
        {
          "internalType": "address",
          "name": "sender",
          "type": "address"
        }
      ],
      "name": "ERC20InvalidSender",
      "type": "error"
    },
    {
      "inputs": [
        {
          "internalType": "address",
          "name": "spender",
          "type": "address"
        }
      ],
      "name": "ERC20InvalidSpender",
      "type": "error"
    },
    {
      "inputs": [],
      "name": "ReentrancyGuardReentrantCall",
      "type": "error"
    },
    {
      "anonymous": false,
      "inputs": [
        {
          "indexed": true,
          "internalType": "address",
          "name": "owner",
          "type": "address"
        },
        {
          "indexed": true,
          "internalType": "address",
          "name": "spender",
          "type": "address"
        },
        {
          "indexed": false,
          "internalType": "uint256",
          "name": "value",
          "type": "uint256"
        }
      ],
      "name": "Approval",
      "type": "event"
    },
    {
      "anonymous": false,
      "inputs": [
        {
          "indexed": true,
          "internalType": "address",
          "name": "from",
          "type": "address"
        },
        {
          "indexed": true,
          "internalType": "address",
          "name": "to",
          "type": "address"
        },
        {
          "indexed": false,
          "internalType": "uint256",
          "name": "value",
          "type": "uint256"
        }
      ],
      "name": "Transfer",
      "type": "event"
    },
    {
      "inputs": [
        {
          "internalType": "address",
          "name": "owner",
          "type": "address"
        },
        {
          "internalType": "address",
          "name": "spender",
          "type": "address"
        }
      ],
      "name": "allowance",
      "outputs": [
        {
          "internalType": "uint256",
          "name": "",
          "type": "uint256"
        }
      ],
      "stateMutability": "view",
      "type": "function"
    },
    {
      "inputs": [
        {
          "internalType": "address",
          "name": "spender",
          "type": "address"
        },
        {
          "internalType": "uint256",
          "name": "value",
          "type": "uint256"
        }
      ],
      "name": "approve",
      "outputs": [
        {
          "internalType": "bool",
          "name": "",
          "type": "bool"
        }
      ],
      "stateMutability": "nonpayable",
      "type": "function"
    },
    {
      "inputs": [
        {
          "internalType": "address",
          "name": "account",
          "type": "address"
        }
      ],
      "name": "balanceOf",
      "outputs": [
        {
          "internalType": "uint256",
          "name": "",
          "type": "uint256"
        }
      ],
      "stateMutability": "view",
      "type": "function"
    },
    {
      "inputs": [],
      "name": "cUSD",
      "outputs": [
        {
          "internalType": "contract IERC20",
          "name": "",
          "type": "address"
        }
      ],
      "stateMutability": "view",
      "type": "function"
    },
    {
      "inputs": [],
      "name": "decimals",
      "outputs": [
        {
          "internalType": "uint8",
          "name": "",
          "type": "uint8"
        }
      ],
      "stateMutability": "view",
      "type": "function"
    },
    {
      "inputs": [
        {
          "internalType": "bytes32",
          "name": "_stakeId",
          "type": "bytes32"
        }
      ],
      "name": "getStakeByID",
      "outputs": [
        {
          "components": [
            {
              "internalType": "bytes32",
              "name": "stakeId",
              "type": "bytes32"
            },
            {
              "internalType": "uint256",
              "name": "amount",
              "type": "uint256"
            },
            {
              "internalType": "uint256",
              "name": "maturityValue",
              "type": "uint256"
            },
            {
              "internalType": "uint256",
              "name": "maturityDate",
              "type": "uint256"
            },
            {
              "internalType": "uint256",
              "name": "yield",
              "type": "uint256"
            }
          ],
          "internalType": "struct TBillStaking.Stake",
          "name": "",
          "type": "tuple"
        }
      ],
      "stateMutability": "view",
      "type": "function"
    },
    {
      "inputs": [],
      "name": "getStakes",
      "outputs": [
        {
          "components": [
            {
              "internalType": "bytes32",
              "name": "stakeId",
              "type": "bytes32"
            },
            {
              "internalType": "uint256",
              "name": "amount",
              "type": "uint256"
            },
            {
              "internalType": "uint256",
              "name": "maturityValue",
              "type": "uint256"
            },
            {
              "internalType": "uint256",
              "name": "maturityDate",
              "type": "uint256"
            },
            {
              "internalType": "uint256",
              "name": "yield",
              "type": "uint256"
            }
          ],
          "internalType": "struct TBillStaking.Stake[]",
          "name": "",
          "type": "tuple[]"
        }
      ],
      "stateMutability": "view",
      "type": "function"
    },
    {
      "inputs": [],
      "name": "name",
      "outputs": [
        {
          "internalType": "string",
          "name": "",
          "type": "string"
        }
      ],
      "stateMutability": "view",
      "type": "function"
    },
    {
      "inputs": [],
      "name": "owner",
      "outputs": [
        {
          "internalType": "address",
          "name": "",
          "type": "address"
        }
      ],
      "stateMutability": "view",
      "type": "function"
    },
    {
      "inputs": [],
      "name": "penaltyFee",
      "outputs": [
        {
          "internalType": "uint256",
          "name": "",
          "type": "uint256"
        }
      ],
      "stateMutability": "view",
      "type": "function"
    },
    {
      "inputs": [],
      "name": "serviceFee",
      "outputs": [
        {
          "internalType": "uint256",
          "name": "",
          "type": "uint256"
        }
      ],
      "stateMutability": "view",
      "type": "function"
    },
    {
      "inputs": [
        {
          "internalType": "uint256",
          "name": "_fee",
          "type": "uint256"
        }
      ],
      "name": "setPenaltyFee",
      "outputs": [],
      "stateMutability": "nonpayable",
      "type": "function"
    },
    {
      "inputs": [
        {
          "internalType": "uint256",
          "name": "_fee",
          "type": "uint256"
        }
      ],
      "name": "setServiceFee",
      "outputs": [],
      "stateMutability": "nonpayable",
      "type": "function"
    },
    {
      "inputs": [
        {
          "internalType": "uint256",
          "name": "_amount",
          "type": "uint256"
        },
        {
          "internalType": "uint256",
          "name": "_yield",
          "type": "uint256"
        },
        {
          "internalType": "uint256",
          "name": "_maturityValue",
          "type": "uint256"
        },
        {
          "internalType": "bytes32",
          "name": "_stakeId",
          "type": "bytes32"
        }
      ],
      "name": "stake",
      "outputs": [],
      "stateMutability": "nonpayable",
      "type": "function"
    },
    {
      "inputs": [],
      "name": "symbol",
      "outputs": [
        {
          "internalType": "string",
          "name": "",
          "type": "string"
        }
      ],
      "stateMutability": "view",
      "type": "function"
    },
    {
      "inputs": [],
      "name": "totalSupply",
      "outputs": [
        {
          "internalType": "uint256",
          "name": "",
          "type": "uint256"
        }
      ],
      "stateMutability": "view",
      "type": "function"
    },
    {
      "inputs": [
        {
          "internalType": "address",
          "name": "to",
          "type": "address"
        },
        {
          "internalType": "uint256",
          "name": "value",
          "type": "uint256"
        }
      ],
      "name": "transfer",
      "outputs": [
        {
          "internalType": "bool",
          "name": "",
          "type": "bool"
        }
      ],
      "stateMutability": "nonpayable",
      "type": "function"
    },
    {
      "inputs": [
        {
          "internalType": "address",
          "name": "from",
          "type": "address"
        },
        {
          "internalType": "address",
          "name": "to",
          "type": "address"
        },
        {
          "internalType": "uint256",
          "name": "value",
          "type": "uint256"
        }
      ],
      "name": "transferFrom",
      "outputs": [
        {
          "internalType": "bool",
          "name": "",
          "type": "bool"
        }
      ],
      "stateMutability": "nonpayable",
      "type": "function"
    },
    {
      "inputs": [
        {
          "internalType": "address",
          "name": "newOwner",
          "type": "address"
        }
      ],
      "name": "transferOwnership",
      "outputs": [],
      "stateMutability": "nonpayable",
      "type": "function"
    },
    {
      "inputs": [
        {
          "internalType": "bytes32",
          "name": "_stakeId",
          "type": "bytes32"
        }
      ],
      "name": "withdraw",
      "outputs": [],
      "stateMutability": "nonpayable",
      "type": "function"
    }
  ],
  "bytecode": "0x60a060405262093a806080523480156200001857600080fd5b5060405162001a9838038062001a988339810160408190526200003b9162000289565b604080518082018252600b81526a2a2124a626102a37b5b2b760a91b60208083019190915282518084019093526005835264151092531360da1b9083015260016000559060046200008d838262000362565b5060056200009c828262000362565b505050620000d633620000b46200010f60201b60201c565b620000c190600a62000543565b620000d090620f424062000554565b62000114565b600680546001600160a01b039092166001600160a01b031992831617905560078054909116331790556003600855600560095562000584565b601290565b6001600160a01b038216620001445760405163ec442f0560e01b8152600060048201526024015b60405180910390fd5b620001526000838362000156565b5050565b6001600160a01b038316620001855780600360008282546200017991906200056e565b90915550620001f99050565b6001600160a01b03831660009081526001602052604090205481811015620001da5760405163391434e360e21b81526001600160a01b038516600482015260248101829052604481018390526064016200013b565b6001600160a01b03841660009081526001602052604090209082900390555b6001600160a01b038216620002175760038054829003905562000236565b6001600160a01b03821660009081526001602052604090208054820190555b816001600160a01b0316836001600160a01b03167fddf252ad1be2c89b69c2b068fc378daa952ba7f163c4a11628f55a4df523b3ef836040516200027c91815260200190565b60405180910390a3505050565b6000602082840312156200029c57600080fd5b81516001600160a01b0381168114620002b457600080fd5b9392505050565b634e487b7160e01b600052604160045260246000fd5b600181811c90821680620002e657607f821691505b6020821081036200030757634e487b7160e01b600052602260045260246000fd5b50919050565b601f8211156200035d576000816000526020600020601f850160051c81016020861015620003385750805b601f850160051c820191505b81811015620003595782815560010162000344565b5050505b505050565b81516001600160401b038111156200037e576200037e620002bb565b62000396816200038f8454620002d1565b846200030d565b602080601f831160018114620003ce5760008415620003b55750858301515b600019600386901b1c1916600185901b17855562000359565b600085815260208120601f198616915b82811015620003ff57888601518255948401946001909101908401620003de565b50858210156200041e5787850151600019600388901b60f8161c191681555b5050505050600190811b01905550565b634e487b7160e01b600052601160045260246000fd5b600181815b80851115620004855781600019048211156200046957620004696200042e565b808516156200047757918102915b93841c939080029062000449565b509250929050565b6000826200049e575060016200053d565b81620004ad575060006200053d565b8160018114620004c65760028114620004d157620004f1565b60019150506200053d565b60ff841115620004e557620004e56200042e565b50506001821b6200053d565b5060208310610133831016604e8410600b841016171562000516575081810a6200053d565b62000522838362000444565b80600019048211156200053957620005396200042e565b0290505b92915050565b6000620002b460ff8416836200048d565b80820281158282048414176200053d576200053d6200042e565b808201808211156200053d576200053d6200042e565b6080516114f8620005a0600039600061039e01526114f86000f3fe608060405234801561001057600080fd5b506004361061012c5760003560e01c806370a08231116100ad5780639e5fecbc116100715780639e5fecbc14610275578063a9059cbb14610295578063dd62ed3e146102a8578063df4b4776146102e1578063f2fde38b146102f657600080fd5b806370a08231146102155780638abdf5aa1461023e5780638da5cb5b146102475780638e19899e1461025a57806395d89b411461026d57600080fd5b80631fccf672116100f45780631fccf672146101ac57806323b872dd146101d7578063313ce567146101ea5780633dc10ad4146101f95780635cdf76f81461020257600080fd5b80630479bc321461013157806306fdde0314610146578063095ea7b31461016457806310c4f4341461018757806318160ddd1461019a575b600080fd5b61014461013f3660046110e5565b610309565b005b61014e6105d9565b60405161015b9190611117565b60405180910390f35b610177610172366004611182565b61066b565b604051901515815260200161015b565b6101446101953660046111ac565b610685565b6003545b60405190815260200161015b565b6006546101bf906001600160a01b031681565b6040516001600160a01b03909116815260200161015b565b6101776101e53660046111c5565b6106b4565b6040516012815260200161015b565b61019e60095481565b6101446102103660046111ac565b6106d8565b61019e610223366004611201565b6001600160a01b031660009081526001602052604090205490565b61019e60085481565b6007546101bf906001600160a01b031681565b6101446102683660046111ac565b610707565b61014e610a46565b6102886102833660046111ac565b610a55565b60405161015b919061121c565b6101776102a3366004611182565b610beb565b61019e6102b6366004611255565b6001600160a01b03918216600090815260026020908152604080832093909416825291909152205490565b6102e9610bf9565b60405161015b9190611288565b610144610304366004611201565b610c95565b610311610ce1565b336103375760405162461bcd60e51b815260040161032e90611301565b60405180910390fd5b600084116103965760405162461bcd60e51b815260206004820152602660248201527f5374616b6520616d6f756e74206d7573742062652067726561746572207468616044820152656e207a65726f60d01b606482015260840161032e565b4260006103c37f00000000000000000000000000000000000000000000000000000000000000008361134e565b600654604051636eb1769f60e11b81523360048201523060248201529192506000916001600160a01b039091169063dd62ed3e90604401602060405180830381865afa158015610417573d6000803e3d6000fd5b505050506040513d601f19601f8201168201806040525081019061043b9190611361565b90508681101561048d5760405162461bcd60e51b815260206004820152601b60248201527f496e73756666696369656e74206355534420616c6c6f77616e63650000000000604482015260640161032e565b6006546040516323b872dd60e01b8152336004820152306024820152604481018990526001600160a01b03909116906323b872dd906064016020604051808303816000875af11580156104e4573d6000803e3d6000fd5b505050506040513d601f19601f82011682018060405250810190610508919061137a565b61054b5760405162461bcd60e51b815260206004820152601460248201527318d554d1081d1c985b9cd9995c8819985a5b195960621b604482015260640161032e565b6040805160a08101825285815260208082018a815282840189815260608401878152608085018c8152336000818152600a8752978820805460018181018355918a52969098208751600590970201958655935196850196909655905160028401555160038301559251600490910155906105c59087610d0b565b505050506105d36001600055565b50505050565b6060600480546105e89061139c565b80601f01602080910402602001604051908101604052809291908181526020018280546106149061139c565b80156106615780601f1061063657610100808354040283529160200191610661565b820191906000526020600020905b81548152906001019060200180831161064457829003601f168201915b5050505050905090565b600033610679818585610d45565b60019150505b92915050565b6007546001600160a01b031633146106af5760405162461bcd60e51b815260040161032e906113d6565b600955565b6000336106c2858285610d57565b6106cd858585610dcf565b506001949350505050565b6007546001600160a01b031633146107025760405162461bcd60e51b815260040161032e906113d6565b600855565b61070f610ce1565b3361072c5760405162461bcd60e51b815260040161032e90611301565b336000908152600a6020526040902080546107815760405162461bcd60e51b81526020600482015260156024820152744e6f207374616b657320746f20776974686472617760581b604482015260640161032e565b60005a905060005b82548110801561079a575061520882115b15610a365760008382815481106107b3576107b361141b565b90600052602060002090600502019050848160000154146108225760405162461bcd60e51b815260206004820152602360248201527f5374616b652077697468204944206e6f7420666f756e6420746f20776974686460448201526272617760e81b606482015260840161032e565b60004282600301541115610843576108408260020154600954610e2e565b90505b60006108558360020154600854610e2e565b9050600061087a83610874848760020154610e4f90919063ffffffff16565b90610e4f565b905061088a338560020154610e72565b865460009061089b90600190611431565b905080861461091a578781815481106108b6576108b661141b565b90600052602060002090600502018887815481106108d6576108d661141b565b906000526020600020906005020160008201548160000155600182015481600101556002820154816002015560038201548160030155600482015481600401559050505b8780548061092a5761092a611444565b60008281526020812060056000199390930192830201818155600181018290556002810182905560038101829055600490810191909155915560065460405163a9059cbb60e01b81523392810192909252602482018490526001600160a01b03169063a9059cbb906044016020604051808303816000875af11580156109b4573d6000803e3d6000fd5b505050506040513d601f19601f820116820180604052508101906109d8919061137a565b610a1b5760405162461bcd60e51b815260206004820152601460248201527318d554d1081d1c985b9cd9995c8819985a5b195960621b604482015260640161032e565b5a965050505050508080610a2e9061145a565b915050610789565b505050610a436001600055565b50565b6060600580546105e89061139c565b610a8a6040518060a0016040528060008019168152602001600081526020016000815260200160008152602001600081525090565b33610aa75760405162461bcd60e51b815260040161032e90611301565b336000908152600a602052604090208054610afc5760405162461bcd60e51b81526020600482015260156024820152744e6f207374616b657320746f20776974686472617760581b604482015260640161032e565b60005a905060005b825481108015610b15575061520882115b15610ba2576000838281548110610b2e57610b2e61141b565b9060005260206000209060050201905085816000015403610b8b576040805160a081018252825481526001830154602082015260028301549181019190915260038201546060820152600490910154608082015295945050505050565b5a9250508080610b9a9061145a565b915050610b04565b5060405162461bcd60e51b815260206004820152601760248201527f5374616b652077697468204944206e6f7420666f756e64000000000000000000604482015260640161032e565b600033610679818585610dcf565b336000908152600a60209081526040808320805482518185028101850190935280835260609492939192909184015b82821015610c8c57838290600052602060002090600502016040518060a00160405290816000820154815260200160018201548152602001600282015481526020016003820154815260200160048201548152505081526020019060010190610c28565b50505050905090565b6007546001600160a01b03163314610cbf5760405162461bcd60e51b815260040161032e906113d6565b600780546001600160a01b0319166001600160a01b0392909216919091179055565b600260005403610d0457604051633ee5aeb560e01b815260040160405180910390fd5b6002600055565b6001600160a01b038216610d355760405163ec442f0560e01b81526000600482015260240161032e565b610d4160008383610ea4565b5050565b610d528383836001610fce565b505050565b6001600160a01b0383811660009081526002602090815260408083209386168352929052205460001981146105d35781811015610dc057604051637dc7a0d960e11b81526001600160a01b0384166004820152602481018290526044810183905260640161032e565b6105d384848484036000610fce565b6001600160a01b038316610df957604051634b637e8f60e11b81526000600482015260240161032e565b6001600160a01b038216610e235760405163ec442f0560e01b81526000600482015260240161032e565b610d52838383610ea4565b600080610e476103e8610e4186866110a3565b906110d9565b949350505050565b600082821115610e6157610e61611473565b610e6b8284611431565b9392505050565b6001600160a01b038216610e9c57604051634b637e8f60e11b81526000600482015260240161032e565b610d41826000835b6001600160a01b038316610ecf578060036000828254610ec4919061134e565b90915550610f419050565b6001600160a01b03831660009081526001602052604090205481811015610f225760405163391434e360e21b81526001600160a01b0385166004820152602481018290526044810183905260640161032e565b6001600160a01b03841660009081526001602052604090209082900390555b6001600160a01b038216610f5d57600380548290039055610f7c565b6001600160a01b03821660009081526001602052604090208054820190555b816001600160a01b0316836001600160a01b03167fddf252ad1be2c89b69c2b068fc378daa952ba7f163c4a11628f55a4df523b3ef83604051610fc191815260200190565b60405180910390a3505050565b6001600160a01b038416610ff85760405163e602df0560e01b81526000600482015260240161032e565b6001600160a01b03831661102257604051634a1406b160e11b81526000600482015260240161032e565b6001600160a01b03808516600090815260026020908152604080832093871683529290522082905580156105d357826001600160a01b0316846001600160a01b03167f8c5be1e5ebec7d5bd14f71427d1e84f3dd0314c0f7b2291e5b200ac8c7c3b9258460405161109591815260200190565b60405180910390a350505050565b6000826000036110b55750600061067f565b6110bf8284611489565b9050816110cc84836114a0565b1461067f5761067f611473565b6000610e6b82846114a0565b600080600080608085870312156110fb57600080fd5b5050823594602084013594506040840135936060013592509050565b60006020808352835180602085015260005b8181101561114557858101830151858201604001528201611129565b506000604082860101526040601f19601f8301168501019250505092915050565b80356001600160a01b038116811461117d57600080fd5b919050565b6000806040838503121561119557600080fd5b61119e83611166565b946020939093013593505050565b6000602082840312156111be57600080fd5b5035919050565b6000806000606084860312156111da57600080fd5b6111e384611166565b92506111f160208501611166565b9150604084013590509250925092565b60006020828403121561121357600080fd5b610e6b82611166565b60a0810161067f828480518252602081015160208301526040810151604083015260608101516060830152608081015160808301525050565b6000806040838503121561126857600080fd5b61127183611166565b915061127f60208401611166565b90509250929050565b6020808252825182820181905260009190848201906040850190845b818110156112f5576112e283855180518252602081015160208301526040810151604083015260608101516060830152608081015160808301525050565b9284019260a092909201916001016112a4565b50909695505050505050565b60208082526018908201527f5a65726f2061646472657373206e6f7420616c6c6f7765640000000000000000604082015260600190565b634e487b7160e01b600052601160045260246000fd5b8082018082111561067f5761067f611338565b60006020828403121561137357600080fd5b5051919050565b60006020828403121561138c57600080fd5b81518015158114610e6b57600080fd5b600181811c908216806113b057607f821691505b6020821081036113d057634e487b7160e01b600052602260045260246000fd5b50919050565b60208082526025908201527f4f6e6c7920746865206f776e65722063616e2063616c6c20746869732066756e60408201526431ba34b7b760d91b606082015260800190565b634e487b7160e01b600052603260045260246000fd5b8181038181111561067f5761067f611338565b634e487b7160e01b600052603160045260246000fd5b60006001820161146c5761146c611338565b5060010190565b634e487b7160e01b600052600160045260246000fd5b808202811582820484141761067f5761067f611338565b6000826114bd57634e487b7160e01b600052601260045260246000fd5b50049056fea2646970667358221220942510dc61e5220cf5bc22689437a726b7faba3419f77ce5e92533b0554cf4ac64736f6c63430008180033",
  "linkReferences": {},
  "deployedLinkReferences": {}
}