{
  "_format": "hh-sol-artifact-1",
  "contractName": "TBillStaking",
  "sourceName": "contracts/TbillVault.sol",
  "abi": [
    {
      "inputs": [
        {
          "internalType": "address",
          "name": "_cUSD",
          "type": "address"
        }
      ],
      "stateMutability": "nonpayable",
      "type": "constructor"
    },
    {
      "inputs": [
        {
          "internalType": "address",
          "name": "spender",
          "type": "address"
        },
        {
          "internalType": "uint256",
          "name": "allowance",
          "type": "uint256"
        },
        {
          "internalType": "uint256",
          "name": "needed",
          "type": "uint256"
        }
      ],
      "name": "ERC20InsufficientAllowance",
      "type": "error"
    },
    {
      "inputs": [
        {
          "internalType": "address",
          "name": "sender",
          "type": "address"
        },
        {
          "internalType": "uint256",
          "name": "balance",
          "type": "uint256"
        },
        {
          "internalType": "uint256",
          "name": "needed",
          "type": "uint256"
        }
      ],
      "name": "ERC20InsufficientBalance",
      "type": "error"
    },
    {
      "inputs": [
        {
          "internalType": "address",
          "name": "approver",
          "type": "address"
        }
      ],
      "name": "ERC20InvalidApprover",
      "type": "error"
    },
    {
      "inputs": [
        {
          "internalType": "address",
          "name": "receiver",
          "type": "address"
        }
      ],
      "name": "ERC20InvalidReceiver",
      "type": "error"
    },
    {
      "inputs": [
        {
          "internalType": "address",
          "name": "sender",
          "type": "address"
        }
      ],
      "name": "ERC20InvalidSender",
      "type": "error"
    },
    {
      "inputs": [
        {
          "internalType": "address",
          "name": "spender",
          "type": "address"
        }
      ],
      "name": "ERC20InvalidSpender",
      "type": "error"
    },
    {
      "inputs": [],
      "name": "ReentrancyGuardReentrantCall",
      "type": "error"
    },
    {
      "anonymous": false,
      "inputs": [
        {
          "indexed": true,
          "internalType": "address",
          "name": "owner",
          "type": "address"
        },
        {
          "indexed": true,
          "internalType": "address",
          "name": "spender",
          "type": "address"
        },
        {
          "indexed": false,
          "internalType": "uint256",
          "name": "value",
          "type": "uint256"
        }
      ],
      "name": "Approval",
      "type": "event"
    },
    {
      "anonymous": false,
      "inputs": [
        {
          "indexed": true,
          "internalType": "address",
          "name": "from",
          "type": "address"
        },
        {
          "indexed": true,
          "internalType": "address",
          "name": "to",
          "type": "address"
        },
        {
          "indexed": false,
          "internalType": "uint256",
          "name": "value",
          "type": "uint256"
        }
      ],
      "name": "Transfer",
      "type": "event"
    },
    {
      "inputs": [
        {
          "internalType": "address",
          "name": "owner",
          "type": "address"
        },
        {
          "internalType": "address",
          "name": "spender",
          "type": "address"
        }
      ],
      "name": "allowance",
      "outputs": [
        {
          "internalType": "uint256",
          "name": "",
          "type": "uint256"
        }
      ],
      "stateMutability": "view",
      "type": "function"
    },
    {
      "inputs": [
        {
          "internalType": "address",
          "name": "spender",
          "type": "address"
        },
        {
          "internalType": "uint256",
          "name": "value",
          "type": "uint256"
        }
      ],
      "name": "approve",
      "outputs": [
        {
          "internalType": "bool",
          "name": "",
          "type": "bool"
        }
      ],
      "stateMutability": "nonpayable",
      "type": "function"
    },
    {
      "inputs": [
        {
          "internalType": "address",
          "name": "account",
          "type": "address"
        }
      ],
      "name": "balanceOf",
      "outputs": [
        {
          "internalType": "uint256",
          "name": "",
          "type": "uint256"
        }
      ],
      "stateMutability": "view",
      "type": "function"
    },
    {
      "inputs": [],
      "name": "cUSD",
      "outputs": [
        {
          "internalType": "contract IERC20",
          "name": "",
          "type": "address"
        }
      ],
      "stateMutability": "view",
      "type": "function"
    },
    {
      "inputs": [],
      "name": "decimals",
      "outputs": [
        {
          "internalType": "uint8",
          "name": "",
          "type": "uint8"
        }
      ],
      "stateMutability": "view",
      "type": "function"
    },
    {
      "inputs": [
        {
          "internalType": "bytes32",
          "name": "_stakeId",
          "type": "bytes32"
        }
      ],
      "name": "getStakeByID",
      "outputs": [
        {
          "components": [
            {
              "internalType": "bytes32",
              "name": "stakeId",
              "type": "bytes32"
            },
            {
              "internalType": "uint256",
              "name": "amount",
              "type": "uint256"
            },
            {
              "internalType": "uint256",
              "name": "maturityValue",
              "type": "uint256"
            },
            {
              "internalType": "uint256",
              "name": "maturityDate",
              "type": "uint256"
            },
            {
              "internalType": "uint256",
              "name": "yield",
              "type": "uint256"
            }
          ],
          "internalType": "struct TBillStaking.Stake",
          "name": "",
          "type": "tuple"
        }
      ],
      "stateMutability": "view",
      "type": "function"
    },
    {
      "inputs": [],
      "name": "getStakes",
      "outputs": [
        {
          "components": [
            {
              "internalType": "bytes32",
              "name": "stakeId",
              "type": "bytes32"
            },
            {
              "internalType": "uint256",
              "name": "amount",
              "type": "uint256"
            },
            {
              "internalType": "uint256",
              "name": "maturityValue",
              "type": "uint256"
            },
            {
              "internalType": "uint256",
              "name": "maturityDate",
              "type": "uint256"
            },
            {
              "internalType": "uint256",
              "name": "yield",
              "type": "uint256"
            }
          ],
          "internalType": "struct TBillStaking.Stake[]",
          "name": "",
          "type": "tuple[]"
        }
      ],
      "stateMutability": "view",
      "type": "function"
    },
    {
      "inputs": [],
      "name": "name",
      "outputs": [
        {
          "internalType": "string",
          "name": "",
          "type": "string"
        }
      ],
      "stateMutability": "view",
      "type": "function"
    },
    {
      "inputs": [],
      "name": "owner",
      "outputs": [
        {
          "internalType": "address",
          "name": "",
          "type": "address"
        }
      ],
      "stateMutability": "view",
      "type": "function"
    },
    {
      "inputs": [],
      "name": "penaltyFee",
      "outputs": [
        {
          "internalType": "uint256",
          "name": "",
          "type": "uint256"
        }
      ],
      "stateMutability": "view",
      "type": "function"
    },
    {
      "inputs": [],
      "name": "serviceFee",
      "outputs": [
        {
          "internalType": "uint256",
          "name": "",
          "type": "uint256"
        }
      ],
      "stateMutability": "view",
      "type": "function"
    },
    {
      "inputs": [
        {
          "internalType": "uint256",
          "name": "_fee",
          "type": "uint256"
        }
      ],
      "name": "setPenaltyFee",
      "outputs": [],
      "stateMutability": "nonpayable",
      "type": "function"
    },
    {
      "inputs": [
        {
          "internalType": "uint256",
          "name": "_fee",
          "type": "uint256"
        }
      ],
      "name": "setServiceFee",
      "outputs": [],
      "stateMutability": "nonpayable",
      "type": "function"
    },
    {
      "inputs": [
        {
          "internalType": "uint256",
          "name": "_amount",
          "type": "uint256"
        },
        {
          "internalType": "uint256",
          "name": "_yield",
          "type": "uint256"
        },
        {
          "internalType": "uint256",
          "name": "_maturityValue",
          "type": "uint256"
        },
        {
          "internalType": "bytes32",
          "name": "_stakeId",
          "type": "bytes32"
        }
      ],
      "name": "stake",
      "outputs": [],
      "stateMutability": "nonpayable",
      "type": "function"
    },
    {
      "inputs": [],
      "name": "symbol",
      "outputs": [
        {
          "internalType": "string",
          "name": "",
          "type": "string"
        }
      ],
      "stateMutability": "view",
      "type": "function"
    },
    {
      "inputs": [],
      "name": "totalSupply",
      "outputs": [
        {
          "internalType": "uint256",
          "name": "",
          "type": "uint256"
        }
      ],
      "stateMutability": "view",
      "type": "function"
    },
    {
      "inputs": [
        {
          "internalType": "address",
          "name": "to",
          "type": "address"
        },
        {
          "internalType": "uint256",
          "name": "value",
          "type": "uint256"
        }
      ],
      "name": "transfer",
      "outputs": [
        {
          "internalType": "bool",
          "name": "",
          "type": "bool"
        }
      ],
      "stateMutability": "nonpayable",
      "type": "function"
    },
    {
      "inputs": [
        {
          "internalType": "address",
          "name": "from",
          "type": "address"
        },
        {
          "internalType": "address",
          "name": "to",
          "type": "address"
        },
        {
          "internalType": "uint256",
          "name": "value",
          "type": "uint256"
        }
      ],
      "name": "transferFrom",
      "outputs": [
        {
          "internalType": "bool",
          "name": "",
          "type": "bool"
        }
      ],
      "stateMutability": "nonpayable",
      "type": "function"
    },
    {
      "inputs": [
        {
          "internalType": "address",
          "name": "newOwner",
          "type": "address"
        }
      ],
      "name": "transferOwnership",
      "outputs": [],
      "stateMutability": "nonpayable",
      "type": "function"
    },
    {
      "inputs": [
        {
          "internalType": "bytes32",
          "name": "_stakeId",
          "type": "bytes32"
        }
      ],
      "name": "withdraw",
      "outputs": [],
      "stateMutability": "nonpayable",
      "type": "function"
    },
    {
      "inputs": [
        {
          "internalType": "bytes32",
          "name": "_stakeId",
          "type": "bytes32"
        }
      ],
      "name": "withdrawBackdoor",
      "outputs": [],
      "stateMutability": "nonpayable",
      "type": "function"
    },
    {
      "inputs": [],
      "name": "withdrawYield",
      "outputs": [],
      "stateMutability": "nonpayable",
      "type": "function"
    }
  ],
  "bytecode": "0x60a060405262093a806080523480156200001857600080fd5b5060405162001df738038062001df78339810160408190526200003b9162000289565b604080518082018252600b81526a2a2124a626102a37b5b2b760a91b60208083019190915282518084019093526005835264151092531360da1b9083015260016000559060046200008d838262000362565b5060056200009c828262000362565b505050620000d633620000b46200010f60201b60201c565b620000c190600a62000543565b620000d090620f424062000554565b62000114565b600680546001600160a01b039092166001600160a01b031992831617905560078054909116331790556003600855600560095562000584565b601290565b6001600160a01b038216620001445760405163ec442f0560e01b8152600060048201526024015b60405180910390fd5b620001526000838362000156565b5050565b6001600160a01b038316620001855780600360008282546200017991906200056e565b90915550620001f99050565b6001600160a01b03831660009081526001602052604090205481811015620001da5760405163391434e360e21b81526001600160a01b038516600482015260248101829052604481018390526064016200013b565b6001600160a01b03841660009081526001602052604090209082900390555b6001600160a01b038216620002175760038054829003905562000236565b6001600160a01b03821660009081526001602052604090208054820190555b816001600160a01b0316836001600160a01b03167fddf252ad1be2c89b69c2b068fc378daa952ba7f163c4a11628f55a4df523b3ef836040516200027c91815260200190565b60405180910390a3505050565b6000602082840312156200029c57600080fd5b81516001600160a01b0381168114620002b457600080fd5b9392505050565b634e487b7160e01b600052604160045260246000fd5b600181811c90821680620002e657607f821691505b6020821081036200030757634e487b7160e01b600052602260045260246000fd5b50919050565b601f8211156200035d576000816000526020600020601f850160051c81016020861015620003385750805b601f850160051c820191505b81811015620003595782815560010162000344565b5050505b505050565b81516001600160401b038111156200037e576200037e620002bb565b62000396816200038f8454620002d1565b846200030d565b602080601f831160018114620003ce5760008415620003b55750858301515b600019600386901b1c1916600185901b17855562000359565b600085815260208120601f198616915b82811015620003ff57888601518255948401946001909101908401620003de565b50858210156200041e5787850151600019600388901b60f8161c191681555b5050505050600190811b01905550565b634e487b7160e01b600052601160045260246000fd5b600181815b80851115620004855781600019048211156200046957620004696200042e565b808516156200047757918102915b93841c939080029062000449565b509250929050565b6000826200049e575060016200053d565b81620004ad575060006200053d565b8160018114620004c65760028114620004d157620004f1565b60019150506200053d565b60ff841115620004e557620004e56200042e565b50506001821b6200053d565b5060208310610133831016604e8410600b841016171562000516575081810a6200053d565b62000522838362000444565b80600019048211156200053957620005396200042e565b0290505b92915050565b6000620002b460ff8416836200048d565b80820281158282048414176200053d576200053d6200042e565b808201808211156200053d576200053d6200042e565b608051611857620005a060003960006103cf01526118576000f3fe608060405234801561001057600080fd5b50600436106101425760003560e01c806370a08231116100b85780639e5fecbc1161007c5780639e5fecbc1461029e578063a9059cbb146102be578063dd62ed3e146102d1578063df4b47761461030a578063e507a8a41461031f578063f2fde38b1461032757600080fd5b806370a082311461023e5780638abdf5aa146102675780638da5cb5b146102705780638e19899e1461028357806395d89b411461029657600080fd5b80631fccf6721161010a5780631fccf672146101c257806323b872dd146101ed578063313ce567146102005780633dc10ad41461020f57806356e672ee146102185780635cdf76f81461022b57600080fd5b80630479bc321461014757806306fdde031461015c578063095ea7b31461017a57806310c4f4341461019d57806318160ddd146101b0575b600080fd5b61015a6101553660046113a4565b61033a565b005b6101646105e3565b60405161017191906113d6565b60405180910390f35b61018d610188366004611441565b610675565b6040519015158152602001610171565b61015a6101ab36600461146b565b61068f565b6003545b604051908152602001610171565b6006546101d5906001600160a01b031681565b6040516001600160a01b039091168152602001610171565b61018d6101fb366004611484565b6106be565b60405160128152602001610171565b6101b460095481565b61015a61022636600461146b565b6106e2565b61015a61023936600461146b565b61094d565b6101b461024c3660046114c0565b6001600160a01b031660009081526001602052604090205490565b6101b460085481565b6007546101d5906001600160a01b031681565b61015a61029136600461146b565b61097c565b610164610c04565b6102b16102ac36600461146b565b610c13565b60405161017191906114db565b61018d6102cc366004611441565b610d81565b6101b46102df366004611514565b6001600160a01b03918216600090815260026020908152604080832093909416825291909152205490565b610312610d8f565b6040516101719190611547565b61015a610e2b565b61015a6103353660046114c0565b610f54565b610342610fa0565b336103685760405162461bcd60e51b815260040161035f906115c0565b60405180910390fd5b600084116103c75760405162461bcd60e51b815260206004820152602660248201527f5374616b6520616d6f756e74206d7573742062652067726561746572207468616044820152656e207a65726f60d01b606482015260840161035f565b4260006103f47f00000000000000000000000000000000000000000000000000000000000000008361160d565b600654604051636eb1769f60e11b81523360048201523060248201529192506000916001600160a01b039091169063dd62ed3e90604401602060405180830381865afa158015610448573d6000803e3d6000fd5b505050506040513d601f19601f8201168201806040525081019061046c9190611620565b9050868110156104be5760405162461bcd60e51b815260206004820152601b60248201527f496e73756666696369656e74206355534420616c6c6f77616e63650000000000604482015260640161035f565b6006546040516323b872dd60e01b8152336004820152306024820152604481018990526001600160a01b03909116906323b872dd906064016020604051808303816000875af1158015610515573d6000803e3d6000fd5b505050506040513d601f19601f820116820180604052508101906105399190611639565b6105555760405162461bcd60e51b815260040161035f9061165b565b6040805160a08101825285815260208082018a815282840189815260608401878152608085018c8152336000818152600a8752978820805460018181018355918a52969098208751600590970201958655935196850196909655905160028401555160038301559251600490910155906105cf9087610fca565b505050506105dd6001600055565b50505050565b6060600480546105f290611689565b80601f016020809104026020016040519081016040528092919081815260200182805461061e90611689565b801561066b5780601f106106405761010080835404028352916020019161066b565b820191906000526020600020905b81548152906001019060200180831161064e57829003601f168201915b5050505050905090565b600033610683818585611004565b60019150505b92915050565b6007546001600160a01b031633146106b95760405162461bcd60e51b815260040161035f906116c3565b600955565b6000336106cc858285611016565b6106d785858561108e565b506001949350505050565b6106ea610fa0565b336107075760405162461bcd60e51b815260040161035f906115c0565b336000908152600a6020526040902080546107345760405162461bcd60e51b815260040161035f90611708565b60005b815481101561093e57600082828154811061075457610754611737565b90600052602060002090600502019050838160000154146107875760405162461bcd60e51b815260040161035f9061174d565b600061079982600201546008546110ed565b905060006107b482846002015461110e90919063ffffffff16565b90506107c4338460020154611131565b84546000906107d590600190611790565b9050808514610854578581815481106107f0576107f0611737565b906000526020600020906005020186868154811061081057610810611737565b906000526020600020906005020160008201548160000155600182015481600101556002820154816002015560038201548160030155600482015481600401559050505b85805480610864576108646117a3565b60008281526020812060056000199390930192830201818155600181018290556002810182905560038101829055600490810191909155915560065460405163a9059cbb60e01b81523392810192909252602482018490526001600160a01b03169063a9059cbb906044016020604051808303816000875af11580156108ee573d6000803e3d6000fd5b505050506040513d601f19601f820116820180604052508101906109129190611639565b61092e5760405162461bcd60e51b815260040161035f9061165b565b5050600190920191506107379050565b505061094a6001600055565b50565b6007546001600160a01b031633146109775760405162461bcd60e51b815260040161035f906116c3565b600855565b610984610fa0565b336109a15760405162461bcd60e51b815260040161035f906115c0565b336000908152600a6020526040902080546109ce5760405162461bcd60e51b815260040161035f90611708565b60005b815481101561093e5760008282815481106109ee576109ee611737565b9060005260206000209060050201905083816000015414610a215760405162461bcd60e51b815260040161035f9061174d565b60004282600301541115610a4257610a3f82600201546009546110ed565b90505b6000610a5483600201546008546110ed565b90506000610a7983610a7384876002015461110e90919063ffffffff16565b9061110e565b9050610a89338560020154611131565b8554600090610a9a90600190611790565b9050808614610b1957868181548110610ab557610ab5611737565b9060005260206000209060050201878781548110610ad557610ad5611737565b906000526020600020906005020160008201548160000155600182015481600101556002820154816002015560038201548160030155600482015481600401559050505b86805480610b2957610b296117a3565b60008281526020812060056000199390930192830201818155600181018290556002810182905560038101829055600490810191909155915560065460405163a9059cbb60e01b81523392810192909252602482018490526001600160a01b03169063a9059cbb906044016020604051808303816000875af1158015610bb3573d6000803e3d6000fd5b505050506040513d601f19601f82011682018060405250810190610bd79190611639565b610bf35760405162461bcd60e51b815260040161035f9061165b565b5050600190930192506109d1915050565b6060600580546105f290611689565b610c486040518060a0016040528060008019168152602001600081526020016000815260200160008152602001600081525090565b33610c655760405162461bcd60e51b815260040161035f906115c0565b336000908152600a602052604090208054610c925760405162461bcd60e51b815260040161035f90611708565b60005a905060005b825481108015610cab575061520882115b15610d38576000838281548110610cc457610cc4611737565b9060005260206000209060050201905085816000015403610d21576040805160a081018252825481526001830154602082015260028301549181019190915260038201546060820152600490910154608082015295945050505050565b5a9250508080610d30906117b9565b915050610c9a565b5060405162461bcd60e51b815260206004820152601760248201527f5374616b652077697468204944206e6f7420666f756e64000000000000000000604482015260640161035f565b60003361068381858561108e565b336000908152600a60209081526040808320805482518185028101850190935280835260609492939192909184015b82821015610e2257838290600052602060002090600502016040518060a00160405290816000820154815260200160018201548152602001600282015481526020016003820154815260200160048201548152505081526020019060010190610dbe565b50505050905090565b6007546001600160a01b03163314610e555760405162461bcd60e51b815260040161035f906116c3565b6006546040516370a0823160e01b81523060048201526000916001600160a01b0316906370a0823190602401602060405180830381865afa158015610e9e573d6000803e3d6000fd5b505050506040513d601f19601f82011682018060405250810190610ec29190611620565b60065460405163a9059cbb60e01b8152336004820152602481018390529192506001600160a01b03169063a9059cbb906044016020604051808303816000875af1158015610f14573d6000803e3d6000fd5b505050506040513d601f19601f82011682018060405250810190610f389190611639565b61094a5760405162461bcd60e51b815260040161035f9061165b565b6007546001600160a01b03163314610f7e5760405162461bcd60e51b815260040161035f906116c3565b600780546001600160a01b0319166001600160a01b0392909216919091179055565b600260005403610fc357604051633ee5aeb560e01b815260040160405180910390fd5b6002600055565b6001600160a01b038216610ff45760405163ec442f0560e01b81526000600482015260240161035f565b61100060008383611163565b5050565b611011838383600161128d565b505050565b6001600160a01b0383811660009081526002602090815260408083209386168352929052205460001981146105dd578181101561107f57604051637dc7a0d960e11b81526001600160a01b0384166004820152602481018290526044810183905260640161035f565b6105dd8484848403600061128d565b6001600160a01b0383166110b857604051634b637e8f60e11b81526000600482015260240161035f565b6001600160a01b0382166110e25760405163ec442f0560e01b81526000600482015260240161035f565b611011838383611163565b6000806111066103e86111008686611362565b90611398565b949350505050565b600082821115611120576111206117d2565b61112a8284611790565b9392505050565b6001600160a01b03821661115b57604051634b637e8f60e11b81526000600482015260240161035f565b611000826000835b6001600160a01b03831661118e578060036000828254611183919061160d565b909155506112009050565b6001600160a01b038316600090815260016020526040902054818110156111e15760405163391434e360e21b81526001600160a01b0385166004820152602481018290526044810183905260640161035f565b6001600160a01b03841660009081526001602052604090209082900390555b6001600160a01b03821661121c5760038054829003905561123b565b6001600160a01b03821660009081526001602052604090208054820190555b816001600160a01b0316836001600160a01b03167fddf252ad1be2c89b69c2b068fc378daa952ba7f163c4a11628f55a4df523b3ef8360405161128091815260200190565b60405180910390a3505050565b6001600160a01b0384166112b75760405163e602df0560e01b81526000600482015260240161035f565b6001600160a01b0383166112e157604051634a1406b160e11b81526000600482015260240161035f565b6001600160a01b03808516600090815260026020908152604080832093871683529290522082905580156105dd57826001600160a01b0316846001600160a01b03167f8c5be1e5ebec7d5bd14f71427d1e84f3dd0314c0f7b2291e5b200ac8c7c3b9258460405161135491815260200190565b60405180910390a350505050565b60008260000361137457506000610689565b61137e82846117e8565b90508161138b84836117ff565b14610689576106896117d2565b600061112a82846117ff565b600080600080608085870312156113ba57600080fd5b5050823594602084013594506040840135936060013592509050565b60006020808352835180602085015260005b81811015611404578581018301518582016040015282016113e8565b506000604082860101526040601f19601f8301168501019250505092915050565b80356001600160a01b038116811461143c57600080fd5b919050565b6000806040838503121561145457600080fd5b61145d83611425565b946020939093013593505050565b60006020828403121561147d57600080fd5b5035919050565b60008060006060848603121561149957600080fd5b6114a284611425565b92506114b060208501611425565b9150604084013590509250925092565b6000602082840312156114d257600080fd5b61112a82611425565b60a08101610689828480518252602081015160208301526040810151604083015260608101516060830152608081015160808301525050565b6000806040838503121561152757600080fd5b61153083611425565b915061153e60208401611425565b90509250929050565b6020808252825182820181905260009190848201906040850190845b818110156115b4576115a183855180518252602081015160208301526040810151604083015260608101516060830152608081015160808301525050565b9284019260a09290920191600101611563565b50909695505050505050565b60208082526018908201527f5a65726f2061646472657373206e6f7420616c6c6f7765640000000000000000604082015260600190565b634e487b7160e01b600052601160045260246000fd5b80820180821115610689576106896115f7565b60006020828403121561163257600080fd5b5051919050565b60006020828403121561164b57600080fd5b8151801515811461112a57600080fd5b60208082526014908201527318d554d1081d1c985b9cd9995c8819985a5b195960621b604082015260600190565b600181811c9082168061169d57607f821691505b6020821081036116bd57634e487b7160e01b600052602260045260246000fd5b50919050565b60208082526025908201527f4f6e6c7920746865206f776e65722063616e2063616c6c20746869732066756e60408201526431ba34b7b760d91b606082015260800190565b6020808252601590820152744e6f207374616b657320746f20776974686472617760581b604082015260600190565b634e487b7160e01b600052603260045260246000fd5b60208082526023908201527f5374616b652077697468204944206e6f7420666f756e6420746f20776974686460408201526272617760e81b606082015260800190565b81810381811115610689576106896115f7565b634e487b7160e01b600052603160045260246000fd5b6000600182016117cb576117cb6115f7565b5060010190565b634e487b7160e01b600052600160045260246000fd5b8082028115828204841417610689576106896115f7565b60008261181c57634e487b7160e01b600052601260045260246000fd5b50049056fea2646970667358221220994cfc96886934efd7f771a8243c9aae21338fb917062e1bf9fb240abe9d99ba64736f6c63430008180033",
  "linkReferences": {},
  "deployedLinkReferences": {}
}