{
  "_format": "hh-sol-artifact-1",
  "contractName": "TbillVault",
  "sourceName": "contracts/TbillVault.sol",
  "abi": [
    {
      "inputs": [
        {
          "internalType": "address",
          "name": "_tbillToken",
          "type": "address"
        },
        {
          "internalType": "address",
          "name": "_cUSDToken",
          "type": "address"
        }
      ],
      "stateMutability": "nonpayable",
      "type": "constructor"
    },
    {
      "inputs": [],
      "name": "ReentrancyGuardReentrantCall",
      "type": "error"
    },
    {
      "anonymous": false,
      "inputs": [
        {
          "indexed": true,
          "internalType": "address",
          "name": "account",
          "type": "address"
        },
        {
          "indexed": false,
          "internalType": "uint256",
          "name": "amount",
          "type": "uint256"
        },
        {
          "indexed": false,
          "internalType": "uint256",
          "name": "liquidityTokens",
          "type": "uint256"
        },
        {
          "indexed": false,
          "internalType": "uint256",
          "name": "stakingTokensMinted",
          "type": "uint256"
        }
      ],
      "name": "Staked",
      "type": "event"
    },
    {
      "anonymous": false,
      "inputs": [
        {
          "indexed": true,
          "internalType": "address",
          "name": "account",
          "type": "address"
        },
        {
          "indexed": false,
          "internalType": "uint256",
          "name": "amount",
          "type": "uint256"
        },
        {
          "indexed": false,
          "internalType": "uint256",
          "name": "liquidityTokens",
          "type": "uint256"
        },
        {
          "indexed": false,
          "internalType": "uint256",
          "name": "stakingTokensBurned",
          "type": "uint256"
        },
        {
          "indexed": false,
          "internalType": "uint256",
          "name": "yieldEarned",
          "type": "uint256"
        }
      ],
      "name": "Withdrawn",
      "type": "event"
    },
    {
      "anonymous": false,
      "inputs": [
        {
          "indexed": false,
          "internalType": "uint256",
          "name": "newRate",
          "type": "uint256"
        }
      ],
      "name": "YieldUpdated",
      "type": "event"
    },
    {
      "inputs": [],
      "name": "cToken",
      "outputs": [
        {
          "internalType": "uint256",
          "name": "",
          "type": "uint256"
        }
      ],
      "stateMutability": "view",
      "type": "function"
    },
    {
      "inputs": [],
      "name": "liquidityToken",
      "outputs": [
        {
          "internalType": "uint256",
          "name": "",
          "type": "uint256"
        }
      ],
      "stateMutability": "view",
      "type": "function"
    },
    {
      "inputs": [],
      "name": "maturityDuration",
      "outputs": [
        {
          "internalType": "uint256",
          "name": "",
          "type": "uint256"
        }
      ],
      "stateMutability": "view",
      "type": "function"
    },
    {
      "inputs": [
        {
          "internalType": "uint256",
          "name": "amount",
          "type": "uint256"
        }
      ],
      "name": "stake",
      "outputs": [],
      "stateMutability": "payable",
      "type": "function"
    },
    {
      "inputs": [
        {
          "internalType": "uint256",
          "name": "",
          "type": "uint256"
        }
      ],
      "name": "stakerAddresses",
      "outputs": [
        {
          "internalType": "address",
          "name": "",
          "type": "address"
        }
      ],
      "stateMutability": "view",
      "type": "function"
    },
    {
      "inputs": [
        {
          "internalType": "address",
          "name": "",
          "type": "address"
        }
      ],
      "name": "stakers",
      "outputs": [
        {
          "internalType": "uint256",
          "name": "stakedAmount",
          "type": "uint256"
        },
        {
          "internalType": "uint256",
          "name": "yieldEarned",
          "type": "uint256"
        },
        {
          "internalType": "uint256",
          "name": "lastYieldUpdate",
          "type": "uint256"
        },
        {
          "internalType": "uint256",
          "name": "liquidityToken",
          "type": "uint256"
        }
      ],
      "stateMutability": "view",
      "type": "function"
    },
    {
      "inputs": [
        {
          "internalType": "address",
          "name": "",
          "type": "address"
        }
      ],
      "name": "userDeposits",
      "outputs": [
        {
          "internalType": "uint256",
          "name": "",
          "type": "uint256"
        }
      ],
      "stateMutability": "view",
      "type": "function"
    },
    {
      "inputs": [
        {
          "internalType": "uint256",
          "name": "amount",
          "type": "uint256"
        }
      ],
      "name": "withdraw",
      "outputs": [],
      "stateMutability": "nonpayable",
      "type": "function"
    },
    {
      "inputs": [],
      "name": "yieldRate",
      "outputs": [
        {
          "internalType": "uint256",
          "name": "",
          "type": "uint256"
        }
      ],
      "stateMutability": "view",
      "type": "function"
    }
  ],
  "bytecode": "0x608060405266b1a2bc2ec500006005553480156200001c57600080fd5b50604051620011683803806200116883398181016040528101906200004291906200013e565b600160008190555081600160006101000a81548173ffffffffffffffffffffffffffffffffffffffff021916908373ffffffffffffffffffffffffffffffffffffffff16021790555080600260006101000a81548173ffffffffffffffffffffffffffffffffffffffff021916908373ffffffffffffffffffffffffffffffffffffffff160217905550505062000185565b600080fd5b600073ffffffffffffffffffffffffffffffffffffffff82169050919050565b60006200010682620000d9565b9050919050565b6200011881620000f9565b81146200012457600080fd5b50565b60008151905062000138816200010d565b92915050565b60008060408385031215620001585762000157620000d4565b5b6000620001688582860162000127565b92505060206200017b8582860162000127565b9150509250929050565b610fd380620001956000396000f3fe6080604052600436106100865760003560e01c8063459598a211610059578063459598a2146101475780636999ac931461018457806369e527da146101af5780639168ae72146101da578063a694fc3a1461021a57610086565b8063063513b71461008b5780630ba36dcd146100b65780632e1a7d4d146100f357806343cd8f7e1461011c575b600080fd5b34801561009757600080fd5b506100a0610236565b6040516100ad919061092f565b60405180910390f35b3480156100c257600080fd5b506100dd60048036038101906100d891906109ad565b61023d565b6040516100ea919061092f565b60405180910390f35b3480156100ff57600080fd5b5061011a60048036038101906101159190610a06565b610255565b005b34801561012857600080fd5b506101316104ed565b60405161013e919061092f565b60405180910390f35b34801561015357600080fd5b5061016e60048036038101906101699190610a06565b6104f3565b60405161017b9190610a42565b60405180910390f35b34801561019057600080fd5b50610199610532565b6040516101a6919061092f565b60405180910390f35b3480156101bb57600080fd5b506101c4610538565b6040516101d1919061092f565b60405180910390f35b3480156101e657600080fd5b5061020160048036038101906101fc91906109ad565b61053e565b6040516102119493929190610a5d565b60405180910390f35b610234600480360381019061022f9190610a06565b61056e565b005b62278d0081565b60066020528060005260406000206000915090505481565b61025d610849565b600081116102a0576040517f08c379a000000000000000000000000000000000000000000000000000000000815260040161029790610b25565b60405180910390fd5b80600760003373ffffffffffffffffffffffffffffffffffffffff1673ffffffffffffffffffffffffffffffffffffffff168152602001908152602001600020600001541015610325576040517f08c379a000000000000000000000000000000000000000000000000000000000815260040161031c90610b91565b60405180910390fd5b6000600760003373ffffffffffffffffffffffffffffffffffffffff1673ffffffffffffffffffffffffffffffffffffffff1681526020019081526020016000209050600061037c8260000154836002015461088f565b905060006103978284600001546108e590919063ffffffff16565b9050428360020181905550808360010181905550600260009054906101000a900473ffffffffffffffffffffffffffffffffffffffff1673ffffffffffffffffffffffffffffffffffffffff1663a9059cbb33866040518363ffffffff1660e01b8152600401610408929190610bb1565b6020604051808303816000875af1158015610427573d6000803e3d6000fd5b505050506040513d601f19601f8201168201806040525081019061044b9190610c12565b61048a576040517f08c379a000000000000000000000000000000000000000000000000000000000815260040161048190610c8b565b60405180910390fd5b3373ffffffffffffffffffffffffffffffffffffffff167f94ffd6b85c71b847775c89ef6496b93cee961bdc6ff827fd117f174f06f745ae85600087866040516104d79493929190610cf0565b60405180910390a25050506104ea61090c565b50565b60045481565b6008818154811061050357600080fd5b906000526020600020016000915054906101000a900473ffffffffffffffffffffffffffffffffffffffff1681565b60055481565b60035481565b60076020528060005260406000206000915090508060000154908060010154908060020154908060030154905084565b610576610849565b600081116105b9576040517f08c379a00000000000000000000000000000000000000000000000000000000081526004016105b090610da7565b60405180910390fd5b600260009054906101000a900473ffffffffffffffffffffffffffffffffffffffff1673ffffffffffffffffffffffffffffffffffffffff166323b872dd3330846040518463ffffffff1660e01b815260040161061893929190610dc7565b6020604051808303816000875af1158015610637573d6000803e3d6000fd5b505050506040513d601f19601f8201168201806040525081019061065b9190610c12565b61069a576040517f08c379a000000000000000000000000000000000000000000000000000000000815260040161069190610c8b565b60405180910390fd5b6000600760003373ffffffffffffffffffffffffffffffffffffffff1673ffffffffffffffffffffffffffffffffffffffff16815260200190815260200160002090506106f48282600001546108e590919063ffffffff16565b816000018190555042816002018190555081600660003373ffffffffffffffffffffffffffffffffffffffff1673ffffffffffffffffffffffffffffffffffffffff16815260200190815260200160002060008282546107549190610e2d565b92505081905550600160009054906101000a900473ffffffffffffffffffffffffffffffffffffffff1673ffffffffffffffffffffffffffffffffffffffff166340c10f1933846040518363ffffffff1660e01b81526004016107b8929190610bb1565b600060405180830381600087803b1580156107d257600080fd5b505af11580156107e6573d6000803e3d6000fd5b505050503373ffffffffffffffffffffffffffffffffffffffff167fb4caaf29adda3eefee3ad552a8e85058589bf834c7466cae4ee58787f70589ed8360008560405161083593929190610e61565b60405180910390a25061084661090c565b50565b600260005403610885576040517f3ee5aeb500000000000000000000000000000000000000000000000000000000815260040160405180910390fd5b6002600081905550565b600080824261089e9190610e98565b905062278d0081106108d9576201518081600554866108bd9190610ecc565b6108c79190610ecc565b6108d19190610f3d565b9150506108df565b60009150505b92915050565b600081836108f39190610e2d565b90508281101561090657610905610f6e565b5b92915050565b6001600081905550565b6000819050919050565b61092981610916565b82525050565b60006020820190506109446000830184610920565b92915050565b600080fd5b600073ffffffffffffffffffffffffffffffffffffffff82169050919050565b600061097a8261094f565b9050919050565b61098a8161096f565b811461099557600080fd5b50565b6000813590506109a781610981565b92915050565b6000602082840312156109c3576109c261094a565b5b60006109d184828501610998565b91505092915050565b6109e381610916565b81146109ee57600080fd5b50565b600081359050610a00816109da565b92915050565b600060208284031215610a1c57610a1b61094a565b5b6000610a2a848285016109f1565b91505092915050565b610a3c8161096f565b82525050565b6000602082019050610a576000830184610a33565b92915050565b6000608082019050610a726000830187610920565b610a7f6020830186610920565b610a8c6040830185610920565b610a996060830184610920565b95945050505050565b600082825260208201905092915050565b7f5769746864726177616c20616d6f756e74206d7573742062652067726561746560008201527f72207468616e207a65726f000000000000000000000000000000000000000000602082015250565b6000610b0f602b83610aa2565b9150610b1a82610ab3565b604082019050919050565b60006020820190508181036000830152610b3e81610b02565b9050919050565b7f496e73756666696369656e74207374616b656420616d6f756e74000000000000600082015250565b6000610b7b601a83610aa2565b9150610b8682610b45565b602082019050919050565b60006020820190508181036000830152610baa81610b6e565b9050919050565b6000604082019050610bc66000830185610a33565b610bd36020830184610920565b9392505050565b60008115159050919050565b610bef81610bda565b8114610bfa57600080fd5b50565b600081519050610c0c81610be6565b92915050565b600060208284031215610c2857610c2761094a565b5b6000610c3684828501610bfd565b91505092915050565b7f63555344207472616e73666572206661696c6564000000000000000000000000600082015250565b6000610c75601483610aa2565b9150610c8082610c3f565b602082019050919050565b60006020820190508181036000830152610ca481610c68565b9050919050565b6000819050919050565b6000819050919050565b6000610cda610cd5610cd084610cab565b610cb5565b610916565b9050919050565b610cea81610cbf565b82525050565b6000608082019050610d056000830187610920565b610d126020830186610ce1565b610d1f6040830185610920565b610d2c6060830184610920565b95945050505050565b7f5374616b6520616d6f756e74206d75737420626520677265617465722074686160008201527f6e207a65726f0000000000000000000000000000000000000000000000000000602082015250565b6000610d91602683610aa2565b9150610d9c82610d35565b604082019050919050565b60006020820190508181036000830152610dc081610d84565b9050919050565b6000606082019050610ddc6000830186610a33565b610de96020830185610a33565b610df66040830184610920565b949350505050565b7f4e487b7100000000000000000000000000000000000000000000000000000000600052601160045260246000fd5b6000610e3882610916565b9150610e4383610916565b9250828201905080821115610e5b57610e5a610dfe565b5b92915050565b6000606082019050610e766000830186610920565b610e836020830185610ce1565b610e906040830184610920565b949350505050565b6000610ea382610916565b9150610eae83610916565b9250828203905081811115610ec657610ec5610dfe565b5b92915050565b6000610ed782610916565b9150610ee283610916565b9250828202610ef081610916565b91508282048414831517610f0757610f06610dfe565b5b5092915050565b7f4e487b7100000000000000000000000000000000000000000000000000000000600052601260045260246000fd5b6000610f4882610916565b9150610f5383610916565b925082610f6357610f62610f0e565b5b828204905092915050565b7f4e487b7100000000000000000000000000000000000000000000000000000000600052600160045260246000fdfea264697066735822122051038c8c159bb451cf88e1a75fc96a54a7e1c1dc50339a96e4df61c18e6f7ebe64736f6c63430008180033",
  "linkReferences": {},
  "deployedLinkReferences": {}
}