{
  "_format": "hh-sol-artifact-1",
  "contractName": "TbillVault",
  "sourceName": "contracts/TbillVault.sol",
  "abi": [
    {
      "inputs": [
        {
          "internalType": "address",
          "name": "_tbillToken",
          "type": "address"
        },
        {
          "internalType": "address",
          "name": "_cUSDToken",
          "type": "address"
        }
      ],
      "stateMutability": "nonpayable",
      "type": "constructor"
    },
    {
      "inputs": [],
      "name": "ReentrancyGuardReentrantCall",
      "type": "error"
    },
    {
      "anonymous": false,
      "inputs": [
        {
          "indexed": true,
          "internalType": "address",
          "name": "owner",
          "type": "address"
        },
        {
          "indexed": true,
          "internalType": "address",
          "name": "spender",
          "type": "address"
        },
        {
          "indexed": false,
          "internalType": "uint256",
          "name": "value",
          "type": "uint256"
        }
      ],
      "name": "Approval",
      "type": "event"
    },
    {
      "anonymous": false,
      "inputs": [
        {
          "indexed": true,
          "internalType": "address",
          "name": "account",
          "type": "address"
        },
        {
          "indexed": false,
          "internalType": "uint256",
          "name": "amount",
          "type": "uint256"
        },
        {
          "indexed": false,
          "internalType": "uint256",
          "name": "liquidityTokens",
          "type": "uint256"
        },
        {
          "indexed": false,
          "internalType": "uint256",
          "name": "stakingTokensMinted",
          "type": "uint256"
        }
      ],
      "name": "Staked",
      "type": "event"
    },
    {
      "anonymous": false,
      "inputs": [
        {
          "indexed": true,
          "internalType": "address",
          "name": "account",
          "type": "address"
        },
        {
          "indexed": false,
          "internalType": "uint256",
          "name": "amount",
          "type": "uint256"
        },
        {
          "indexed": false,
          "internalType": "uint256",
          "name": "penaltyFee",
          "type": "uint256"
        },
        {
          "indexed": false,
          "internalType": "uint256",
          "name": "yieldEarned",
          "type": "uint256"
        }
      ],
      "name": "Withdrawn",
      "type": "event"
    },
    {
      "anonymous": false,
      "inputs": [
        {
          "indexed": false,
          "internalType": "uint256",
          "name": "newRate",
          "type": "uint256"
        }
      ],
      "name": "YieldUpdated",
      "type": "event"
    },
    {
      "inputs": [
        {
          "internalType": "address",
          "name": "",
          "type": "address"
        },
        {
          "internalType": "address",
          "name": "",
          "type": "address"
        }
      ],
      "name": "allowances",
      "outputs": [
        {
          "internalType": "uint256",
          "name": "",
          "type": "uint256"
        }
      ],
      "stateMutability": "view",
      "type": "function"
    },
    {
      "inputs": [
        {
          "internalType": "address",
          "name": "spender",
          "type": "address"
        },
        {
          "internalType": "uint256",
          "name": "amount",
          "type": "uint256"
        }
      ],
      "name": "approve",
      "outputs": [
        {
          "internalType": "bool",
          "name": "",
          "type": "bool"
        }
      ],
      "stateMutability": "nonpayable",
      "type": "function"
    },
    {
      "inputs": [],
      "name": "cToken",
      "outputs": [
        {
          "internalType": "uint256",
          "name": "",
          "type": "uint256"
        }
      ],
      "stateMutability": "view",
      "type": "function"
    },
    {
      "inputs": [],
      "name": "cUSDToken",
      "outputs": [
        {
          "internalType": "contract ERC20",
          "name": "",
          "type": "address"
        }
      ],
      "stateMutability": "view",
      "type": "function"
    },
    {
      "inputs": [
        {
          "internalType": "address",
          "name": "stakerAddress",
          "type": "address"
        }
      ],
      "name": "getPurchasedTBillsByAddress",
      "outputs": [
        {
          "internalType": "uint256",
          "name": "",
          "type": "uint256"
        }
      ],
      "stateMutability": "view",
      "type": "function"
    },
    {
      "inputs": [
        {
          "internalType": "address",
          "name": "stakerAddress",
          "type": "address"
        }
      ],
      "name": "getStakesByAddress",
      "outputs": [
        {
          "components": [
            {
              "internalType": "uint256",
              "name": "stakedAmount",
              "type": "uint256"
            },
            {
              "internalType": "uint256",
              "name": "yieldEarned",
              "type": "uint256"
            },
            {
              "internalType": "uint256",
              "name": "lastYieldUpdate",
              "type": "uint256"
            },
            {
              "internalType": "uint256",
              "name": "liquidityToken",
              "type": "uint256"
            },
            {
              "internalType": "uint256",
              "name": "duration",
              "type": "uint256"
            },
            {
              "internalType": "uint256",
              "name": "yield",
              "type": "uint256"
            },
            {
              "internalType": "uint256",
              "name": "stakeValueAmount",
              "type": "uint256"
            },
            {
              "internalType": "uint256",
              "name": "amountToReceive",
              "type": "uint256"
            },
            {
              "internalType": "uint256",
              "name": "stakeTimestamp",
              "type": "uint256"
            }
          ],
          "internalType": "struct TbillVault.Staker[]",
          "name": "",
          "type": "tuple[]"
        }
      ],
      "stateMutability": "view",
      "type": "function"
    },
    {
      "inputs": [],
      "name": "liquidityToken",
      "outputs": [
        {
          "internalType": "uint256",
          "name": "",
          "type": "uint256"
        }
      ],
      "stateMutability": "view",
      "type": "function"
    },
    {
      "inputs": [],
      "name": "maturityDuration",
      "outputs": [
        {
          "internalType": "uint256",
          "name": "",
          "type": "uint256"
        }
      ],
      "stateMutability": "view",
      "type": "function"
    },
    {
      "inputs": [],
      "name": "maturityDuration1",
      "outputs": [
        {
          "internalType": "uint256",
          "name": "",
          "type": "uint256"
        }
      ],
      "stateMutability": "view",
      "type": "function"
    },
    {
      "inputs": [],
      "name": "maturityDuration2",
      "outputs": [
        {
          "internalType": "uint256",
          "name": "",
          "type": "uint256"
        }
      ],
      "stateMutability": "view",
      "type": "function"
    },
    {
      "inputs": [],
      "name": "owner",
      "outputs": [
        {
          "internalType": "address",
          "name": "",
          "type": "address"
        }
      ],
      "stateMutability": "view",
      "type": "function"
    },
    {
      "inputs": [
        {
          "internalType": "uint256",
          "name": "_yield",
          "type": "uint256"
        },
        {
          "internalType": "uint256",
          "name": "_stakeValueAmount",
          "type": "uint256"
        },
        {
          "internalType": "uint256",
          "name": "_amountToReceive",
          "type": "uint256"
        },
        {
          "internalType": "uint256",
          "name": "_duration",
          "type": "uint256"
        }
      ],
      "name": "stake",
      "outputs": [],
      "stateMutability": "payable",
      "type": "function"
    },
    {
      "inputs": [
        {
          "internalType": "uint256",
          "name": "",
          "type": "uint256"
        }
      ],
      "name": "stakerAddresses1M",
      "outputs": [
        {
          "internalType": "address",
          "name": "",
          "type": "address"
        }
      ],
      "stateMutability": "view",
      "type": "function"
    },
    {
      "inputs": [
        {
          "internalType": "uint256",
          "name": "",
          "type": "uint256"
        }
      ],
      "name": "stakerAddresses3M",
      "outputs": [
        {
          "internalType": "address",
          "name": "",
          "type": "address"
        }
      ],
      "stateMutability": "view",
      "type": "function"
    },
    {
      "inputs": [
        {
          "internalType": "uint256",
          "name": "",
          "type": "uint256"
        }
      ],
      "name": "stakerAddresses6M",
      "outputs": [
        {
          "internalType": "address",
          "name": "",
          "type": "address"
        }
      ],
      "stateMutability": "view",
      "type": "function"
    },
    {
      "inputs": [
        {
          "internalType": "address",
          "name": "",
          "type": "address"
        }
      ],
      "name": "stakers1M",
      "outputs": [
        {
          "internalType": "uint256",
          "name": "stakedAmount",
          "type": "uint256"
        },
        {
          "internalType": "uint256",
          "name": "yieldEarned",
          "type": "uint256"
        },
        {
          "internalType": "uint256",
          "name": "lastYieldUpdate",
          "type": "uint256"
        },
        {
          "internalType": "uint256",
          "name": "liquidityToken",
          "type": "uint256"
        },
        {
          "internalType": "uint256",
          "name": "duration",
          "type": "uint256"
        },
        {
          "internalType": "uint256",
          "name": "yield",
          "type": "uint256"
        },
        {
          "internalType": "uint256",
          "name": "stakeValueAmount",
          "type": "uint256"
        },
        {
          "internalType": "uint256",
          "name": "amountToReceive",
          "type": "uint256"
        },
        {
          "internalType": "uint256",
          "name": "stakeTimestamp",
          "type": "uint256"
        }
      ],
      "stateMutability": "view",
      "type": "function"
    },
    {
      "inputs": [
        {
          "internalType": "address",
          "name": "",
          "type": "address"
        }
      ],
      "name": "stakers3M",
      "outputs": [
        {
          "internalType": "uint256",
          "name": "stakedAmount",
          "type": "uint256"
        },
        {
          "internalType": "uint256",
          "name": "yieldEarned",
          "type": "uint256"
        },
        {
          "internalType": "uint256",
          "name": "lastYieldUpdate",
          "type": "uint256"
        },
        {
          "internalType": "uint256",
          "name": "liquidityToken",
          "type": "uint256"
        },
        {
          "internalType": "uint256",
          "name": "duration",
          "type": "uint256"
        },
        {
          "internalType": "uint256",
          "name": "yield",
          "type": "uint256"
        },
        {
          "internalType": "uint256",
          "name": "stakeValueAmount",
          "type": "uint256"
        },
        {
          "internalType": "uint256",
          "name": "amountToReceive",
          "type": "uint256"
        },
        {
          "internalType": "uint256",
          "name": "stakeTimestamp",
          "type": "uint256"
        }
      ],
      "stateMutability": "view",
      "type": "function"
    },
    {
      "inputs": [
        {
          "internalType": "address",
          "name": "",
          "type": "address"
        }
      ],
      "name": "stakers6M",
      "outputs": [
        {
          "internalType": "uint256",
          "name": "stakedAmount",
          "type": "uint256"
        },
        {
          "internalType": "uint256",
          "name": "yieldEarned",
          "type": "uint256"
        },
        {
          "internalType": "uint256",
          "name": "lastYieldUpdate",
          "type": "uint256"
        },
        {
          "internalType": "uint256",
          "name": "liquidityToken",
          "type": "uint256"
        },
        {
          "internalType": "uint256",
          "name": "duration",
          "type": "uint256"
        },
        {
          "internalType": "uint256",
          "name": "yield",
          "type": "uint256"
        },
        {
          "internalType": "uint256",
          "name": "stakeValueAmount",
          "type": "uint256"
        },
        {
          "internalType": "uint256",
          "name": "amountToReceive",
          "type": "uint256"
        },
        {
          "internalType": "uint256",
          "name": "stakeTimestamp",
          "type": "uint256"
        }
      ],
      "stateMutability": "view",
      "type": "function"
    },
    {
      "inputs": [
        {
          "internalType": "address",
          "name": "sender",
          "type": "address"
        },
        {
          "internalType": "address",
          "name": "recipient",
          "type": "address"
        },
        {
          "internalType": "uint256",
          "name": "amount",
          "type": "uint256"
        }
      ],
      "name": "transferFrom",
      "outputs": [
        {
          "internalType": "bool",
          "name": "",
          "type": "bool"
        }
      ],
      "stateMutability": "nonpayable",
      "type": "function"
    },
    {
      "inputs": [
        {
          "internalType": "uint256",
          "name": "_duration",
          "type": "uint256"
        }
      ],
      "name": "withdraw",
      "outputs": [],
      "stateMutability": "nonpayable",
      "type": "function"
    },
    {
      "inputs": [],
      "name": "yieldRate",
      "outputs": [
        {
          "internalType": "uint256",
          "name": "",
          "type": "uint256"
        }
      ],
      "stateMutability": "view",
      "type": "function"
    }
  ],
  "bytecode": "0x608060405266b1a2bc2ec500006006553480156200001c57600080fd5b5060405162002e8238038062002e8283398181016040528101906200004291906200017f565b600160008190555081600160006101000a81548173ffffffffffffffffffffffffffffffffffffffff021916908373ffffffffffffffffffffffffffffffffffffffff16021790555080600360006101000a81548173ffffffffffffffffffffffffffffffffffffffff021916908373ffffffffffffffffffffffffffffffffffffffff16021790555033600260006101000a81548173ffffffffffffffffffffffffffffffffffffffff021916908373ffffffffffffffffffffffffffffffffffffffff1602179055505050620001c6565b600080fd5b600073ffffffffffffffffffffffffffffffffffffffff82169050919050565b600062000147826200011a565b9050919050565b62000159816200013a565b81146200016557600080fd5b50565b60008151905062000179816200014e565b92915050565b6000806040838503121562000199576200019862000115565b5b6000620001a98582860162000168565b9250506020620001bc8582860162000168565b9150509250929050565b612cac80620001d66000396000f3fe60806040526004361061012a5760003560e01c80635da180e7116100ab57806380aa6b2d1161006f57806380aa6b2d146104405780638da5cb5b1461047d57806397c26216146104a8578063b88f53cd146104ed578063ce93a8821461052a578063e9fad23d146105465761012a565b80635da180e71461033d5780635f84f5621461037a5780636999ac93146103a557806369e527da146103d05780637749daa0146103fb5761012a565b80632e1a7d4d116100f25780632e1a7d4d1461022a57806331739caa14610253578063418902921461029057806343cd8f7e146102d557806355b6ed5c146103005761012a565b8063063513b71461012f578063095ea7b31461015a5780630ea86ad81461019757806323b872dd146101c257806323f2db0b146101ff575b600080fd5b34801561013b57600080fd5b50610144610583565b6040516101519190611deb565b60405180910390f35b34801561016657600080fd5b50610181600480360381019061017c9190611e95565b61058a565b60405161018e9190611ef0565b60405180910390f35b3480156101a357600080fd5b506101ac61067c565b6040516101b99190611f6a565b60405180910390f35b3480156101ce57600080fd5b506101e960048036038101906101e49190611f85565b6106a2565b6040516101f69190611ef0565b60405180910390f35b34801561020b57600080fd5b5061021461080c565b6040516102219190611deb565b60405180910390f35b34801561023657600080fd5b50610251600480360381019061024c9190611fd8565b610813565b005b34801561025f57600080fd5b5061027a60048036038101906102759190612005565b610b91565b6040516102879190611deb565b60405180910390f35b34801561029c57600080fd5b506102b760048036038101906102b29190612005565b610c36565b6040516102cc99989796959493929190612032565b60405180910390f35b3480156102e157600080fd5b506102ea610c84565b6040516102f79190611deb565b60405180910390f35b34801561030c57600080fd5b50610327600480360381019061032291906120bf565b610c8a565b6040516103349190611deb565b60405180910390f35b34801561034957600080fd5b50610364600480360381019061035f9190611fd8565b610caf565b604051610371919061210e565b60405180910390f35b34801561038657600080fd5b5061038f610cee565b60405161039c9190611deb565b60405180910390f35b3480156103b157600080fd5b506103ba610cf5565b6040516103c79190611deb565b60405180910390f35b3480156103dc57600080fd5b506103e5610cfb565b6040516103f29190611deb565b60405180910390f35b34801561040757600080fd5b50610422600480360381019061041d9190612005565b610d01565b60405161043799989796959493929190612032565b60405180910390f35b34801561044c57600080fd5b5061046760048036038101906104629190611fd8565b610d4f565b604051610474919061210e565b60405180910390f35b34801561048957600080fd5b50610492610d8e565b60405161049f919061210e565b60405180910390f35b3480156104b457600080fd5b506104cf60048036038101906104ca9190612005565b610db4565b6040516104e499989796959493929190612032565b60405180910390f35b3480156104f957600080fd5b50610514600480360381019061050f9190612005565b610e02565b604051610521919061229f565b60405180910390f35b610544600480360381019061053f91906122c1565b6112b5565b005b34801561055257600080fd5b5061056d60048036038101906105689190611fd8565b6116fb565b60405161057a919061210e565b60405180910390f35b62278d0081565b600081600d60003373ffffffffffffffffffffffffffffffffffffffff1673ffffffffffffffffffffffffffffffffffffffff16815260200190815260200160002060008573ffffffffffffffffffffffffffffffffffffffff1673ffffffffffffffffffffffffffffffffffffffff168152602001908152602001600020819055508273ffffffffffffffffffffffffffffffffffffffff163373ffffffffffffffffffffffffffffffffffffffff167f8c5be1e5ebec7d5bd14f71427d1e84f3dd0314c0f7b2291e5b200ac8c7c3b9258460405161066a9190611deb565b60405180910390a36001905092915050565b600360009054906101000a900473ffffffffffffffffffffffffffffffffffffffff1681565b600081600d60008673ffffffffffffffffffffffffffffffffffffffff1673ffffffffffffffffffffffffffffffffffffffff16815260200190815260200160002060003373ffffffffffffffffffffffffffffffffffffffff1673ffffffffffffffffffffffffffffffffffffffff168152602001908152602001600020541015610763576040517f08c379a000000000000000000000000000000000000000000000000000000000815260040161075a90612385565b60405180910390fd5b81600d60008673ffffffffffffffffffffffffffffffffffffffff1673ffffffffffffffffffffffffffffffffffffffff16815260200190815260200160002060003373ffffffffffffffffffffffffffffffffffffffff1673ffffffffffffffffffffffffffffffffffffffff16815260200190815260200160002060008282546107ef91906123d4565b9250508190555061080184848461173a565b600190509392505050565b62ed4e0081565b61081b6119a2565b600062278d00820361086d57600760003373ffffffffffffffffffffffffffffffffffffffff1673ffffffffffffffffffffffffffffffffffffffff1681526020019081526020016000209050610900565b6276a70082036108bd57600860003373ffffffffffffffffffffffffffffffffffffffff1673ffffffffffffffffffffffffffffffffffffffff16815260200190815260200160002090506108ff565b600960003373ffffffffffffffffffffffffffffffffffffffff1673ffffffffffffffffffffffffffffffffffffffff16815260200190815260200160002090505b5b6000816000015411610947576040517f08c379a000000000000000000000000000000000000000000000000000000000815260040161093e90612454565b60405180910390fd5b8060040154816008015461095b9190612474565b42101561099d576040517f08c379a0000000000000000000000000000000000000000000000000000000008152600401610994906124f4565b60405180910390fd5b60006109b1826000015483600201546119e8565b905060008183600701546109c59190612474565b90506000612710600f85600001546109dd9190612514565b6109e79190612585565b905080826109f591906123d4565b9150600360009054906101000a900473ffffffffffffffffffffffffffffffffffffffff1673ffffffffffffffffffffffffffffffffffffffff1663a9059cbb33846040518363ffffffff1660e01b8152600401610a549291906125b6565b6020604051808303816000875af1158015610a73573d6000803e3d6000fd5b505050506040513d601f19601f82011682018060405250810190610a97919061260b565b610ad6576040517f08c379a0000000000000000000000000000000000000000000000000000000008152600401610acd90612684565b60405180910390fd5b6000846000018190555060008460010181905550600084600201819055506000846004018190555060008460050181905550600084600601819055506000846007018190555060008460080181905550610b308533611a3e565b3373ffffffffffffffffffffffffffffffffffffffff167f75e161b3e824b114fc1a33274bd7091918dd4e639cede50b78b15a4eea956a21838386604051610b7a939291906126a4565b60405180910390a250505050610b8e611a83565b50565b6000600160009054906101000a900473ffffffffffffffffffffffffffffffffffffffff1673ffffffffffffffffffffffffffffffffffffffff166370a08231836040518263ffffffff1660e01b8152600401610bee919061210e565b602060405180830381865afa158015610c0b573d6000803e3d6000fd5b505050506040513d601f19601f82011682018060405250810190610c2f91906126f0565b9050919050565b60086020528060005260406000206000915090508060000154908060010154908060020154908060030154908060040154908060050154908060060154908060070154908060080154905089565b60055481565b600d602052816000526040600020602052806000526040600020600091509150505481565b600c8181548110610cbf57600080fd5b906000526020600020016000915054906101000a900473ffffffffffffffffffffffffffffffffffffffff1681565b6276a70081565b60065481565b60045481565b60096020528060005260406000206000915090508060000154908060010154908060020154908060030154908060040154908060050154908060060154908060070154908060080154905089565b600a8181548110610d5f57600080fd5b906000526020600020016000915054906101000a900473ffffffffffffffffffffffffffffffffffffffff1681565b600260009054906101000a900473ffffffffffffffffffffffffffffffffffffffff1681565b60076020528060005260406000206000915090508060000154908060010154908060020154908060030154908060040154908060050154908060060154908060070154908060080154905089565b60606000600c80549050600b80549050600a80549050610e229190612474565b610e2c9190612474565b905060008167ffffffffffffffff811115610e4a57610e4961271d565b5b604051908082528060200260200182016040528015610e8357816020015b610e70611d86565b815260200190600190039081610e685790505b5090506000805b600a80549050811015610fe7578573ffffffffffffffffffffffffffffffffffffffff16600a8281548110610ec257610ec161274c565b5b9060005260206000200160009054906101000a900473ffffffffffffffffffffffffffffffffffffffff1673ffffffffffffffffffffffffffffffffffffffff1603610fda57600760008773ffffffffffffffffffffffffffffffffffffffff1673ffffffffffffffffffffffffffffffffffffffff168152602001908152602001600020604051806101200160405290816000820154815260200160018201548152602001600282015481526020016003820154815260200160048201548152602001600582015481526020016006820154815260200160078201548152602001600882015481525050838381518110610fc057610fbf61274c565b5b60200260200101819052508180610fd69061277b565b9250505b8080600101915050610e8a565b5060005b600b80549050811015611148578573ffffffffffffffffffffffffffffffffffffffff16600b82815481106110235761102261274c565b5b9060005260206000200160009054906101000a900473ffffffffffffffffffffffffffffffffffffffff1673ffffffffffffffffffffffffffffffffffffffff160361113b57600860008773ffffffffffffffffffffffffffffffffffffffff1673ffffffffffffffffffffffffffffffffffffffff1681526020019081526020016000206040518061012001604052908160008201548152602001600182015481526020016002820154815260200160038201548152602001600482015481526020016005820154815260200160068201548152602001600782015481526020016008820154815250508383815181106111215761112061274c565b5b602002602001018190525081806111379061277b565b9250505b8080600101915050610feb565b5060005b600c805490508110156112a9578573ffffffffffffffffffffffffffffffffffffffff16600c82815481106111845761118361274c565b5b9060005260206000200160009054906101000a900473ffffffffffffffffffffffffffffffffffffffff1673ffffffffffffffffffffffffffffffffffffffff160361129c57600960008773ffffffffffffffffffffffffffffffffffffffff1673ffffffffffffffffffffffffffffffffffffffff1681526020019081526020016000206040518061012001604052908160008201548152602001600182015481526020016002820154815260200160038201548152602001600482015481526020016005820154815260200160068201548152602001600782015481526020016008820154815250508383815181106112825761128161274c565b5b602002602001018190525081806112989061277b565b9250505b808060010191505061114c565b50819350505050919050565b6112bd6119a2565b60008211611300576040517f08c379a00000000000000000000000000000000000000000000000000000000081526004016112f790612835565b60405180910390fd5b60008311611343576040517f08c379a000000000000000000000000000000000000000000000000000000000815260040161133a906128c7565b60405180910390fd5b60008411611386576040517f08c379a000000000000000000000000000000000000000000000000000000000815260040161137d90612933565b60405180910390fd5b62278d0081148061139957506276a70081145b806113a6575062ed4e0081145b6113e5576040517f08c379a00000000000000000000000000000000000000000000000000000000081526004016113dc9061299f565b60405180910390fd5b600360009054906101000a900473ffffffffffffffffffffffffffffffffffffffff1673ffffffffffffffffffffffffffffffffffffffff166323b872dd3330866040518463ffffffff1660e01b8152600401611444939291906129bf565b6020604051808303816000875af1158015611463573d6000803e3d6000fd5b505050506040513d601f19601f82011682018060405250810190611487919061260b565b6114c6576040517f08c379a00000000000000000000000000000000000000000000000000000000081526004016114bd90612a42565b60405180910390fd5b600062278d00820361151857600760003373ffffffffffffffffffffffffffffffffffffffff1673ffffffffffffffffffffffffffffffffffffffff16815260200190815260200160002090506115ab565b6276a700820361156857600860003373ffffffffffffffffffffffffffffffffffffffff1673ffffffffffffffffffffffffffffffffffffffff16815260200190815260200160002090506115aa565b600960003373ffffffffffffffffffffffffffffffffffffffff1673ffffffffffffffffffffffffffffffffffffffff16815260200190815260200160002090505b5b6115c2848260000154611a8d90919063ffffffff16565b8160000181905550428160020181905550818160040181905550848160050181905550838160060181905550828160070181905550428160080181905550600160009054906101000a900473ffffffffffffffffffffffffffffffffffffffff1673ffffffffffffffffffffffffffffffffffffffff166340c10f1933866040518363ffffffff1660e01b815260040161165d9291906125b6565b600060405180830381600087803b15801561167757600080fd5b505af115801561168b573d6000803e3d6000fd5b505050506116998233611ab4565b3373ffffffffffffffffffffffffffffffffffffffff167fb4caaf29adda3eefee3ad552a8e85058589bf834c7466cae4ee58787f70589ed856000876040516116e493929190612a9d565b60405180910390a2506116f5611a83565b50505050565b600b818154811061170b57600080fd5b906000526020600020016000915054906101000a900473ffffffffffffffffffffffffffffffffffffffff1681565b600073ffffffffffffffffffffffffffffffffffffffff168373ffffffffffffffffffffffffffffffffffffffff16036117a9576040517f08c379a00000000000000000000000000000000000000000000000000000000081526004016117a090612b20565b60405180910390fd5b600073ffffffffffffffffffffffffffffffffffffffff168273ffffffffffffffffffffffffffffffffffffffff1603611818576040517f08c379a000000000000000000000000000000000000000000000000000000000815260040161180f90612b8c565b60405180910390fd5b6000600360009054906101000a900473ffffffffffffffffffffffffffffffffffffffff1673ffffffffffffffffffffffffffffffffffffffff166370a08231856040518263ffffffff1660e01b8152600401611875919061210e565b602060405180830381865afa158015611892573d6000803e3d6000fd5b505050506040513d601f19601f820116820180604052508101906118b691906126f0565b9050818110156118fb576040517f08c379a00000000000000000000000000000000000000000000000000000000081526004016118f290612bf8565b60405180910390fd5b600360009054906101000a900473ffffffffffffffffffffffffffffffffffffffff1673ffffffffffffffffffffffffffffffffffffffff1663a9059cbb84846040518363ffffffff1660e01b81526004016119589291906125b6565b6020604051808303816000875af1158015611977573d6000803e3d6000fd5b505050506040513d601f19601f8201168201806040525081019061199b919061260b565b5050505050565b6002600054036119de576040517f3ee5aeb500000000000000000000000000000000000000000000000000000000815260040160405180910390fd5b6002600081905550565b60008082426119f791906123d4565b905062278d008110611a3257620151808160065486611a169190612514565b611a209190612514565b611a2a9190612585565b915050611a38565b60009150505b92915050565b62278d008203611a5857611a53600a82611c01565b611a7f565b6276a7008203611a7257611a6d600b82611c01565b611a7e565b611a7d600c82611c01565b5b5b5050565b6001600081905550565b60008183611a9b9190612474565b905082811015611aae57611aad612c18565b5b92915050565b62278d008203611b2657600a819080600181540180825580915050600190039060005260206000200160009091909190916101000a81548173ffffffffffffffffffffffffffffffffffffffff021916908373ffffffffffffffffffffffffffffffffffffffff160217905550611bfd565b6276a7008203611b9857600b819080600181540180825580915050600190039060005260206000200160009091909190916101000a81548173ffffffffffffffffffffffffffffffffffffffff021916908373ffffffffffffffffffffffffffffffffffffffff160217905550611bfc565b600c819080600181540180825580915050600190039060005260206000200160009091909190916101000a81548173ffffffffffffffffffffffffffffffffffffffff021916908373ffffffffffffffffffffffffffffffffffffffff1602179055505b5b5050565b60005b8280549050811015611d81578173ffffffffffffffffffffffffffffffffffffffff16838281548110611c3a57611c3961274c565b5b9060005260206000200160009054906101000a900473ffffffffffffffffffffffffffffffffffffffff1673ffffffffffffffffffffffffffffffffffffffff1603611d74578260018480549050611c9291906123d4565b81548110611ca357611ca261274c565b5b9060005260206000200160009054906101000a900473ffffffffffffffffffffffffffffffffffffffff16838281548110611ce157611ce061274c565b5b9060005260206000200160006101000a81548173ffffffffffffffffffffffffffffffffffffffff021916908373ffffffffffffffffffffffffffffffffffffffff16021790555082805480611d3a57611d39612c47565b5b6001900381819060005260206000200160006101000a81549073ffffffffffffffffffffffffffffffffffffffff02191690559055611d81565b8080600101915050611c04565b505050565b6040518061012001604052806000815260200160008152602001600081526020016000815260200160008152602001600081526020016000815260200160008152602001600081525090565b6000819050919050565b611de581611dd2565b82525050565b6000602082019050611e006000830184611ddc565b92915050565b600080fd5b600073ffffffffffffffffffffffffffffffffffffffff82169050919050565b6000611e3682611e0b565b9050919050565b611e4681611e2b565b8114611e5157600080fd5b50565b600081359050611e6381611e3d565b92915050565b611e7281611dd2565b8114611e7d57600080fd5b50565b600081359050611e8f81611e69565b92915050565b60008060408385031215611eac57611eab611e06565b5b6000611eba85828601611e54565b9250506020611ecb85828601611e80565b9150509250929050565b60008115159050919050565b611eea81611ed5565b82525050565b6000602082019050611f056000830184611ee1565b92915050565b6000819050919050565b6000611f30611f2b611f2684611e0b565b611f0b565b611e0b565b9050919050565b6000611f4282611f15565b9050919050565b6000611f5482611f37565b9050919050565b611f6481611f49565b82525050565b6000602082019050611f7f6000830184611f5b565b92915050565b600080600060608486031215611f9e57611f9d611e06565b5b6000611fac86828701611e54565b9350506020611fbd86828701611e54565b9250506040611fce86828701611e80565b9150509250925092565b600060208284031215611fee57611fed611e06565b5b6000611ffc84828501611e80565b91505092915050565b60006020828403121561201b5761201a611e06565b5b600061202984828501611e54565b91505092915050565b600061012082019050612048600083018c611ddc565b612055602083018b611ddc565b612062604083018a611ddc565b61206f6060830189611ddc565b61207c6080830188611ddc565b61208960a0830187611ddc565b61209660c0830186611ddc565b6120a360e0830185611ddc565b6120b1610100830184611ddc565b9a9950505050505050505050565b600080604083850312156120d6576120d5611e06565b5b60006120e485828601611e54565b92505060206120f585828601611e54565b9150509250929050565b61210881611e2b565b82525050565b600060208201905061212360008301846120ff565b92915050565b600081519050919050565b600082825260208201905092915050565b6000819050602082019050919050565b61215e81611dd2565b82525050565b6101208201600082015161217b6000850182612155565b50602082015161218e6020850182612155565b5060408201516121a16040850182612155565b5060608201516121b46060850182612155565b5060808201516121c76080850182612155565b5060a08201516121da60a0850182612155565b5060c08201516121ed60c0850182612155565b5060e082015161220060e0850182612155565b50610100820151612215610100850182612155565b50505050565b60006122278383612164565b6101208301905092915050565b6000602082019050919050565b600061224c82612129565b6122568185612134565b935061226183612145565b8060005b83811015612292578151612279888261221b565b975061228483612234565b925050600181019050612265565b5085935050505092915050565b600060208201905081810360008301526122b98184612241565b905092915050565b600080600080608085870312156122db576122da611e06565b5b60006122e987828801611e80565b94505060206122fa87828801611e80565b935050604061230b87828801611e80565b925050606061231c87828801611e80565b91505092959194509250565b600082825260208201905092915050565b7f496e73756666696369656e7420616c6c6f77616e636500000000000000000000600082015250565b600061236f601683612328565b915061237a82612339565b602082019050919050565b6000602082019050818103600083015261239e81612362565b9050919050565b7f4e487b7100000000000000000000000000000000000000000000000000000000600052601160045260246000fd5b60006123df82611dd2565b91506123ea83611dd2565b9250828203905081811115612402576124016123a5565b5b92915050565b7f4e6f207374616b652065786973747320666f7220746865207573657200000000600082015250565b600061243e601c83612328565b915061244982612408565b602082019050919050565b6000602082019050818103600083015261246d81612431565b9050919050565b600061247f82611dd2565b915061248a83611dd2565b92508282019050808211156124a2576124a16123a5565b5b92915050565b7f5374616b65206475726174696f6e206e6f7420636f6d706c6574656400000000600082015250565b60006124de601c83612328565b91506124e9826124a8565b602082019050919050565b6000602082019050818103600083015261250d816124d1565b9050919050565b600061251f82611dd2565b915061252a83611dd2565b925082820261253881611dd2565b9150828204841483151761254f5761254e6123a5565b5b5092915050565b7f4e487b7100000000000000000000000000000000000000000000000000000000600052601260045260246000fd5b600061259082611dd2565b915061259b83611dd2565b9250826125ab576125aa612556565b5b828204905092915050565b60006040820190506125cb60008301856120ff565b6125d86020830184611ddc565b9392505050565b6125e881611ed5565b81146125f357600080fd5b50565b600081519050612605816125df565b92915050565b60006020828403121561262157612620611e06565b5b600061262f848285016125f6565b91505092915050565b7f5472616e73666572206661696c65640000000000000000000000000000000000600082015250565b600061266e600f83612328565b915061267982612638565b602082019050919050565b6000602082019050818103600083015261269d81612661565b9050919050565b60006060820190506126b96000830186611ddc565b6126c66020830185611ddc565b6126d36040830184611ddc565b949350505050565b6000815190506126ea81611e69565b92915050565b60006020828403121561270657612705611e06565b5b6000612714848285016126db565b91505092915050565b7f4e487b7100000000000000000000000000000000000000000000000000000000600052604160045260246000fd5b7f4e487b7100000000000000000000000000000000000000000000000000000000600052603260045260246000fd5b600061278682611dd2565b91507fffffffffffffffffffffffffffffffffffffffffffffffffffffffffffffffff82036127b8576127b76123a5565b5b600182019050919050565b7f416d6f756e7420746f2072656365697665206d7573742062652067726561746560008201527f72207468616e207a65726f000000000000000000000000000000000000000000602082015250565b600061281f602b83612328565b915061282a826127c3565b604082019050919050565b6000602082019050818103600083015261284e81612812565b9050919050565b7f5374616b652076616c756520616d6f756e74206d75737420626520677265617460008201527f6572207468616e207a65726f0000000000000000000000000000000000000000602082015250565b60006128b1602c83612328565b91506128bc82612855565b604082019050919050565b600060208201905081810360008301526128e0816128a4565b9050919050565b7f5969656c64206d7573742062652067726561746572207468616e207a65726f00600082015250565b600061291d601f83612328565b9150612928826128e7565b602082019050919050565b6000602082019050818103600083015261294c81612910565b9050919050565b7f496e76616c6964207374616b65206475726174696f6e00000000000000000000600082015250565b6000612989601683612328565b915061299482612953565b602082019050919050565b600060208201905081810360008301526129b88161297c565b9050919050565b60006060820190506129d460008301866120ff565b6129e160208301856120ff565b6129ee6040830184611ddc565b949350505050565b7f63555344207472616e73666572206661696c6564000000000000000000000000600082015250565b6000612a2c601483612328565b9150612a37826129f6565b602082019050919050565b60006020820190508181036000830152612a5b81612a1f565b9050919050565b6000819050919050565b6000612a87612a82612a7d84612a62565b611f0b565b611dd2565b9050919050565b612a9781612a6c565b82525050565b6000606082019050612ab26000830186611ddc565b612abf6020830185612a8e565b612acc6040830184611ddc565b949350505050565b7f5472616e736665722066726f6d20746865207a65726f20616464726573730000600082015250565b6000612b0a601e83612328565b9150612b1582612ad4565b602082019050919050565b60006020820190508181036000830152612b3981612afd565b9050919050565b7f5472616e7366657220746f20746865207a65726f206164647265737300000000600082015250565b6000612b76601c83612328565b9150612b8182612b40565b602082019050919050565b60006020820190508181036000830152612ba581612b69565b9050919050565b7f496e73756666696369656e742062616c616e6365000000000000000000000000600082015250565b6000612be2601483612328565b9150612bed82612bac565b602082019050919050565b60006020820190508181036000830152612c1181612bd5565b9050919050565b7f4e487b7100000000000000000000000000000000000000000000000000000000600052600160045260246000fd5b7f4e487b7100000000000000000000000000000000000000000000000000000000600052603160045260246000fdfea2646970667358221220cc090a2fd622e4704b7837c04e0964aa0b92f6eae0632e93e47eb07ed5e0f82964736f6c63430008180033",
  "linkReferences": {},
  "deployedLinkReferences": {}
}