{
  "_format": "hh-sol-artifact-1",
  "contractName": "TBillStaking",
  "sourceName": "contracts/TbillVault.sol",
  "abi": [
    {
      "inputs": [
        {
          "internalType": "address",
          "name": "_cUSD",
          "type": "address"
        }
      ],
      "stateMutability": "nonpayable",
      "type": "constructor"
    },
    {
      "inputs": [
        {
          "internalType": "address",
          "name": "spender",
          "type": "address"
        },
        {
          "internalType": "uint256",
          "name": "allowance",
          "type": "uint256"
        },
        {
          "internalType": "uint256",
          "name": "needed",
          "type": "uint256"
        }
      ],
      "name": "ERC20InsufficientAllowance",
      "type": "error"
    },
    {
      "inputs": [
        {
          "internalType": "address",
          "name": "sender",
          "type": "address"
        },
        {
          "internalType": "uint256",
          "name": "balance",
          "type": "uint256"
        },
        {
          "internalType": "uint256",
          "name": "needed",
          "type": "uint256"
        }
      ],
      "name": "ERC20InsufficientBalance",
      "type": "error"
    },
    {
      "inputs": [
        {
          "internalType": "address",
          "name": "approver",
          "type": "address"
        }
      ],
      "name": "ERC20InvalidApprover",
      "type": "error"
    },
    {
      "inputs": [
        {
          "internalType": "address",
          "name": "receiver",
          "type": "address"
        }
      ],
      "name": "ERC20InvalidReceiver",
      "type": "error"
    },
    {
      "inputs": [
        {
          "internalType": "address",
          "name": "sender",
          "type": "address"
        }
      ],
      "name": "ERC20InvalidSender",
      "type": "error"
    },
    {
      "inputs": [
        {
          "internalType": "address",
          "name": "spender",
          "type": "address"
        }
      ],
      "name": "ERC20InvalidSpender",
      "type": "error"
    },
    {
      "inputs": [],
      "name": "ReentrancyGuardReentrantCall",
      "type": "error"
    },
    {
      "anonymous": false,
      "inputs": [
        {
          "indexed": true,
          "internalType": "address",
          "name": "owner",
          "type": "address"
        },
        {
          "indexed": true,
          "internalType": "address",
          "name": "spender",
          "type": "address"
        },
        {
          "indexed": false,
          "internalType": "uint256",
          "name": "value",
          "type": "uint256"
        }
      ],
      "name": "Approval",
      "type": "event"
    },
    {
      "anonymous": false,
      "inputs": [
        {
          "indexed": true,
          "internalType": "address",
          "name": "from",
          "type": "address"
        },
        {
          "indexed": true,
          "internalType": "address",
          "name": "to",
          "type": "address"
        },
        {
          "indexed": false,
          "internalType": "uint256",
          "name": "value",
          "type": "uint256"
        }
      ],
      "name": "Transfer",
      "type": "event"
    },
    {
      "inputs": [],
      "name": "SEVEN_DAYS",
      "outputs": [
        {
          "internalType": "uint256",
          "name": "",
          "type": "uint256"
        }
      ],
      "stateMutability": "view",
      "type": "function"
    },
    {
      "inputs": [
        {
          "internalType": "address",
          "name": "owner",
          "type": "address"
        },
        {
          "internalType": "address",
          "name": "spender",
          "type": "address"
        }
      ],
      "name": "allowance",
      "outputs": [
        {
          "internalType": "uint256",
          "name": "",
          "type": "uint256"
        }
      ],
      "stateMutability": "view",
      "type": "function"
    },
    {
      "inputs": [
        {
          "internalType": "address",
          "name": "spender",
          "type": "address"
        },
        {
          "internalType": "uint256",
          "name": "value",
          "type": "uint256"
        }
      ],
      "name": "approve",
      "outputs": [
        {
          "internalType": "bool",
          "name": "",
          "type": "bool"
        }
      ],
      "stateMutability": "nonpayable",
      "type": "function"
    },
    {
      "inputs": [
        {
          "internalType": "address",
          "name": "account",
          "type": "address"
        }
      ],
      "name": "balanceOf",
      "outputs": [
        {
          "internalType": "uint256",
          "name": "",
          "type": "uint256"
        }
      ],
      "stateMutability": "view",
      "type": "function"
    },
    {
      "inputs": [],
      "name": "cUSD",
      "outputs": [
        {
          "internalType": "contract IERC20",
          "name": "",
          "type": "address"
        }
      ],
      "stateMutability": "view",
      "type": "function"
    },
    {
      "inputs": [],
      "name": "decimals",
      "outputs": [
        {
          "internalType": "uint8",
          "name": "",
          "type": "uint8"
        }
      ],
      "stateMutability": "view",
      "type": "function"
    },
    {
      "inputs": [
        {
          "internalType": "address",
          "name": "_user",
          "type": "address"
        }
      ],
      "name": "getStakes",
      "outputs": [
        {
          "components": [
            {
              "internalType": "uint256",
              "name": "amount",
              "type": "uint256"
            },
            {
              "internalType": "uint256",
              "name": "maturityValue",
              "type": "uint256"
            },
            {
              "internalType": "uint256",
              "name": "maturityDate",
              "type": "uint256"
            },
            {
              "internalType": "uint256",
              "name": "yield",
              "type": "uint256"
            }
          ],
          "internalType": "struct TBillStaking.Stake[]",
          "name": "",
          "type": "tuple[]"
        }
      ],
      "stateMutability": "view",
      "type": "function"
    },
    {
      "inputs": [],
      "name": "name",
      "outputs": [
        {
          "internalType": "string",
          "name": "",
          "type": "string"
        }
      ],
      "stateMutability": "view",
      "type": "function"
    },
    {
      "inputs": [],
      "name": "owner",
      "outputs": [
        {
          "internalType": "address",
          "name": "",
          "type": "address"
        }
      ],
      "stateMutability": "view",
      "type": "function"
    },
    {
      "inputs": [],
      "name": "penaltyFee",
      "outputs": [
        {
          "internalType": "uint256",
          "name": "",
          "type": "uint256"
        }
      ],
      "stateMutability": "view",
      "type": "function"
    },
    {
      "inputs": [],
      "name": "serviceFee",
      "outputs": [
        {
          "internalType": "uint256",
          "name": "",
          "type": "uint256"
        }
      ],
      "stateMutability": "view",
      "type": "function"
    },
    {
      "inputs": [
        {
          "internalType": "uint256",
          "name": "_fee",
          "type": "uint256"
        }
      ],
      "name": "setPenaltyFee",
      "outputs": [],
      "stateMutability": "nonpayable",
      "type": "function"
    },
    {
      "inputs": [
        {
          "internalType": "uint256",
          "name": "_fee",
          "type": "uint256"
        }
      ],
      "name": "setServiceFee",
      "outputs": [],
      "stateMutability": "nonpayable",
      "type": "function"
    },
    {
      "inputs": [
        {
          "internalType": "uint256",
          "name": "_amount",
          "type": "uint256"
        },
        {
          "internalType": "uint256",
          "name": "_yield",
          "type": "uint256"
        },
        {
          "internalType": "uint256",
          "name": "_maturityValue",
          "type": "uint256"
        }
      ],
      "name": "stake",
      "outputs": [],
      "stateMutability": "nonpayable",
      "type": "function"
    },
    {
      "inputs": [],
      "name": "symbol",
      "outputs": [
        {
          "internalType": "string",
          "name": "",
          "type": "string"
        }
      ],
      "stateMutability": "view",
      "type": "function"
    },
    {
      "inputs": [],
      "name": "totalSupply",
      "outputs": [
        {
          "internalType": "uint256",
          "name": "",
          "type": "uint256"
        }
      ],
      "stateMutability": "view",
      "type": "function"
    },
    {
      "inputs": [
        {
          "internalType": "address",
          "name": "to",
          "type": "address"
        },
        {
          "internalType": "uint256",
          "name": "value",
          "type": "uint256"
        }
      ],
      "name": "transfer",
      "outputs": [
        {
          "internalType": "bool",
          "name": "",
          "type": "bool"
        }
      ],
      "stateMutability": "nonpayable",
      "type": "function"
    },
    {
      "inputs": [
        {
          "internalType": "address",
          "name": "from",
          "type": "address"
        },
        {
          "internalType": "address",
          "name": "to",
          "type": "address"
        },
        {
          "internalType": "uint256",
          "name": "value",
          "type": "uint256"
        }
      ],
      "name": "transferFrom",
      "outputs": [
        {
          "internalType": "bool",
          "name": "",
          "type": "bool"
        }
      ],
      "stateMutability": "nonpayable",
      "type": "function"
    },
    {
      "inputs": [],
      "name": "withdraw",
      "outputs": [],
      "stateMutability": "nonpayable",
      "type": "function"
    }
  ],
  "bytecode": "0x60806040523480156200001157600080fd5b50604051620016773803806200167783398101604081905262000034916200028a565b604080518082018252600b81526a2a2124a626102a37b5b2b760a91b60208083019190915282518084019093526005835264151092531360da1b90830152600160005590600462000086838262000363565b50600562000095828262000363565b505050620000ac336103e86200011560201b60201c565b600680546001600160a01b039092166001600160a01b031992831617905560076000819052600a60205262093a807f22e39f61d1e4986b4f116cea9067f62cc77d74dff1780ae9c8b5166d1dd28829558054909116331790556003600855600560095562000457565b6001600160a01b038216620001455760405163ec442f0560e01b8152600060048201526024015b60405180910390fd5b620001536000838362000157565b5050565b6001600160a01b038316620001865780600360008282546200017a91906200042f565b90915550620001fa9050565b6001600160a01b03831660009081526001602052604090205481811015620001db5760405163391434e360e21b81526001600160a01b038516600482015260248101829052604481018390526064016200013c565b6001600160a01b03841660009081526001602052604090209082900390555b6001600160a01b038216620002185760038054829003905562000237565b6001600160a01b03821660009081526001602052604090208054820190555b816001600160a01b0316836001600160a01b03167fddf252ad1be2c89b69c2b068fc378daa952ba7f163c4a11628f55a4df523b3ef836040516200027d91815260200190565b60405180910390a3505050565b6000602082840312156200029d57600080fd5b81516001600160a01b0381168114620002b557600080fd5b9392505050565b634e487b7160e01b600052604160045260246000fd5b600181811c90821680620002e757607f821691505b6020821081036200030857634e487b7160e01b600052602260045260246000fd5b50919050565b601f8211156200035e576000816000526020600020601f850160051c81016020861015620003395750805b601f850160051c820191505b818110156200035a5782815560010162000345565b5050505b505050565b81516001600160401b038111156200037f576200037f620002bc565b6200039781620003908454620002d2565b846200030e565b602080601f831160018114620003cf5760008415620003b65750858301515b600019600386901b1c1916600185901b1785556200035a565b600085815260208120601f198616915b828110156200040057888601518255948401946001909101908401620003df565b50858210156200041f5787850151600019600388901b60f8161c191681555b5050505050600190811b01905550565b808201808211156200045157634e487b7160e01b600052601160045260246000fd5b92915050565b61121080620004676000396000f3fe608060405234801561001057600080fd5b50600436106101215760003560e01c80635cdf76f8116100ad57806395d89b411161007157806395d89b4114610264578063a638f2e21461026c578063a9059cbb1461027f578063dd62ed3e14610292578063fd26eaa1146102cb57600080fd5b80635cdf76f8146101ec57806370a08231146101ff5780637ba6f458146102285780638abdf5aa146102485780638da5cb5b1461025157600080fd5b80631fccf672116100f45780631fccf6721461018e57806323b872dd146101b9578063313ce567146101cc5780633ccfd60b146101db5780633dc10ad4146101e357600080fd5b806306fdde0314610126578063095ea7b31461014457806310c4f4341461016757806318160ddd1461017c575b600080fd5b61012e6102d5565b60405161013b9190610e88565b60405180910390f35b610157610152366004610ef3565b610367565b604051901515815260200161013b565b61017a610175366004610f1d565b610381565b005b6003545b60405190815260200161013b565b6006546101a1906001600160a01b031681565b6040516001600160a01b03909116815260200161013b565b6101576101c7366004610f36565b6103b9565b6040516012815260200161013b565b61017a6103dd565b61018060095481565b61017a6101fa366004610f1d565b6106d0565b61018061020d366004610f72565b6001600160a01b031660009081526001602052604090205490565b61023b610236366004610f72565b6106ff565b60405161013b9190610f8d565b61018060085481565b6007546101a1906001600160a01b031681565b61012e61079c565b61017a61027a366004610ff1565b6107ab565b61015761028d366004610ef3565b610a71565b6101806102a036600461101d565b6001600160a01b03918216600090815260026020908152604080832093909416825291909152205490565b61018062093a8081565b6060600480546102e490611050565b80601f016020809104026020016040519081016040528092919081815260200182805461031090611050565b801561035d5780601f106103325761010080835404028352916020019161035d565b820191906000526020600020905b81548152906001019060200180831161034057829003601f168201915b5050505050905090565b600033610375818585610a7f565b60019150505b92915050565b6007546001600160a01b031633146103b45760405162461bcd60e51b81526004016103ab9061108a565b60405180910390fd5b600955565b6000336103c7858285610a8c565b6103d2858585610b0a565b506001949350505050565b6103e5610b69565b3361042d5760405162461bcd60e51b815260206004820152601860248201527716995c9bc81859191c995cdcc81b9bdd08185b1b1bddd95960421b60448201526064016103ab565b336000908152600b6020526040902080546104825760405162461bcd60e51b81526020600482015260156024820152744e6f207374616b657320746f20776974686472617760581b60448201526064016103ab565b60005a905060005b82548110801561049b575061520882115b156106c15760008382815481106104b4576104b46110cf565b90600052602060002090600402019050600042826002015410156104e5576104e28260010154600954610b93565b90505b60006104f78360010154600854610b93565b9050600061051c83610516848760010154610bb490919063ffffffff16565b90610bb4565b905061052c338560010154610bd7565b865460009061053d906001906110fb565b90508086146105ab57878181548110610558576105586110cf565b9060005260206000209060040201888781548110610578576105786110cf565b60009182526020909120825460049092020190815560018083015490820155600280830154908201556003918201549101555b878054806105bb576105bb61110e565b60008281526020812060001992909201600481810290930182815560018101839055600281018390556003019190915590915560065460405163a9059cbb60e01b81523392810192909252602482018490526001600160a01b03169063a9059cbb906044016020604051808303816000875af115801561063f573d6000803e3d6000fd5b505050506040513d601f19601f820116820180604052508101906106639190611124565b6106a65760405162461bcd60e51b815260206004820152601460248201527318d554d1081d1c985b9cd9995c8819985a5b195960621b60448201526064016103ab565b5a9650505050505080806106b990611146565b91505061048a565b5050506106ce6001600055565b565b6007546001600160a01b031633146106fa5760405162461bcd60e51b81526004016103ab9061108a565b600855565b6001600160a01b0381166000908152600b60209081526040808320805482518185028101850190935280835260609492939192909184015b82821015610791578382906000526020600020906004020160405180608001604052908160008201548152602001600182015481526020016002820154815260200160038201548152505081526020019060010190610737565b505050509050919050565b6060600580546102e490611050565b6107b3610b69565b336107fb5760405162461bcd60e51b815260206004820152601860248201527716995c9bc81859191c995cdcc81b9bdd08185b1b1bddd95960421b60448201526064016103ab565b6000831161085a5760405162461bcd60e51b815260206004820152602660248201527f5374616b6520616d6f756e74206d7573742062652067726561746572207468616044820152656e207a65726f60d01b60648201526084016103ab565b42600061086a8262093a8061115f565b600654604051636eb1769f60e11b81523360048201523060248201529192506000916001600160a01b039091169063dd62ed3e90604401602060405180830381865afa1580156108be573d6000803e3d6000fd5b505050506040513d601f19601f820116820180604052508101906108e29190611172565b9050858110156109345760405162461bcd60e51b815260206004820152601b60248201527f496e73756666696369656e74206355534420616c6c6f77616e6365000000000060448201526064016103ab565b6006546040516323b872dd60e01b8152336004820152306024820152604481018890526001600160a01b03909116906323b872dd906064016020604051808303816000875af115801561098b573d6000803e3d6000fd5b505050506040513d601f19601f820116820180604052508101906109af9190611124565b6109f25760405162461bcd60e51b815260206004820152601460248201527318d554d1081d1c985b9cd9995c8819985a5b195960621b60448201526064016103ab565b604080516080810182528781526020808201878152828401868152606084018a8152336000818152600b8652968720805460018181018355918952959097208651600490960201948555925195840195909555516002830155925160039091015590610a5e9086610c11565b50505050610a6c6001600055565b505050565b600033610375818585610b0a565b610a6c8383836001610c47565b6001600160a01b038381166000908152600260209081526040808320938616835292905220546000198114610b045781811015610af557604051637dc7a0d960e11b81526001600160a01b038416600482015260248101829052604481018390526064016103ab565b610b0484848484036000610c47565b50505050565b6001600160a01b038316610b3457604051634b637e8f60e11b8152600060048201526024016103ab565b6001600160a01b038216610b5e5760405163ec442f0560e01b8152600060048201526024016103ab565b610a6c838383610d1c565b600260005403610b8c57604051633ee5aeb560e01b815260040160405180910390fd5b6002600055565b600080610bac6103e8610ba68686610e46565b90610e7c565b949350505050565b600082821115610bc657610bc661118b565b610bd082846110fb565b9392505050565b6001600160a01b038216610c0157604051634b637e8f60e11b8152600060048201526024016103ab565b610c0d82600083610d1c565b5050565b6001600160a01b038216610c3b5760405163ec442f0560e01b8152600060048201526024016103ab565b610c0d60008383610d1c565b6001600160a01b038416610c715760405163e602df0560e01b8152600060048201526024016103ab565b6001600160a01b038316610c9b57604051634a1406b160e11b8152600060048201526024016103ab565b6001600160a01b0380851660009081526002602090815260408083209387168352929052208290558015610b0457826001600160a01b0316846001600160a01b03167f8c5be1e5ebec7d5bd14f71427d1e84f3dd0314c0f7b2291e5b200ac8c7c3b92584604051610d0e91815260200190565b60405180910390a350505050565b6001600160a01b038316610d47578060036000828254610d3c919061115f565b90915550610db99050565b6001600160a01b03831660009081526001602052604090205481811015610d9a5760405163391434e360e21b81526001600160a01b038516600482015260248101829052604481018390526064016103ab565b6001600160a01b03841660009081526001602052604090209082900390555b6001600160a01b038216610dd557600380548290039055610df4565b6001600160a01b03821660009081526001602052604090208054820190555b816001600160a01b0316836001600160a01b03167fddf252ad1be2c89b69c2b068fc378daa952ba7f163c4a11628f55a4df523b3ef83604051610e3991815260200190565b60405180910390a3505050565b600082600003610e585750600061037b565b610e6282846111a1565b905081610e6f84836111b8565b1461037b5761037b61118b565b6000610bd082846111b8565b60006020808352835180602085015260005b81811015610eb657858101830151858201604001528201610e9a565b506000604082860101526040601f19601f8301168501019250505092915050565b80356001600160a01b0381168114610eee57600080fd5b919050565b60008060408385031215610f0657600080fd5b610f0f83610ed7565b946020939093013593505050565b600060208284031215610f2f57600080fd5b5035919050565b600080600060608486031215610f4b57600080fd5b610f5484610ed7565b9250610f6260208501610ed7565b9150604084013590509250925092565b600060208284031215610f8457600080fd5b610bd082610ed7565b602080825282518282018190526000919060409081850190868401855b82811015610fe457815180518552868101518786015285810151868601526060908101519085015260809093019290850190600101610faa565b5091979650505050505050565b60008060006060848603121561100657600080fd5b505081359360208301359350604090920135919050565b6000806040838503121561103057600080fd5b61103983610ed7565b915061104760208401610ed7565b90509250929050565b600181811c9082168061106457607f821691505b60208210810361108457634e487b7160e01b600052602260045260246000fd5b50919050565b60208082526025908201527f4f6e6c7920746865206f776e65722063616e2063616c6c20746869732066756e60408201526431ba34b7b760d91b606082015260800190565b634e487b7160e01b600052603260045260246000fd5b634e487b7160e01b600052601160045260246000fd5b8181038181111561037b5761037b6110e5565b634e487b7160e01b600052603160045260246000fd5b60006020828403121561113657600080fd5b81518015158114610bd057600080fd5b600060018201611158576111586110e5565b5060010190565b8082018082111561037b5761037b6110e5565b60006020828403121561118457600080fd5b5051919050565b634e487b7160e01b600052600160045260246000fd5b808202811582820484141761037b5761037b6110e5565b6000826111d557634e487b7160e01b600052601260045260246000fd5b50049056fea2646970667358221220a10940a65ddded52ca626af6c0b662718744ad3321951e4eff569997f7a6bbfc64736f6c63430008180033",
  "linkReferences": {},
  "deployedLinkReferences": {}
}