{
  "_format": "hh-sol-artifact-1",
  "contractName": "TBillStaking",
  "sourceName": "contracts/TbillVault.sol",
  "abi": [
    {
      "inputs": [
        {
          "internalType": "address",
          "name": "_cUSD",
          "type": "address"
        }
      ],
      "stateMutability": "nonpayable",
      "type": "constructor"
    },
    {
      "inputs": [
        {
          "internalType": "address",
          "name": "spender",
          "type": "address"
        },
        {
          "internalType": "uint256",
          "name": "allowance",
          "type": "uint256"
        },
        {
          "internalType": "uint256",
          "name": "needed",
          "type": "uint256"
        }
      ],
      "name": "ERC20InsufficientAllowance",
      "type": "error"
    },
    {
      "inputs": [
        {
          "internalType": "address",
          "name": "sender",
          "type": "address"
        },
        {
          "internalType": "uint256",
          "name": "balance",
          "type": "uint256"
        },
        {
          "internalType": "uint256",
          "name": "needed",
          "type": "uint256"
        }
      ],
      "name": "ERC20InsufficientBalance",
      "type": "error"
    },
    {
      "inputs": [
        {
          "internalType": "address",
          "name": "approver",
          "type": "address"
        }
      ],
      "name": "ERC20InvalidApprover",
      "type": "error"
    },
    {
      "inputs": [
        {
          "internalType": "address",
          "name": "receiver",
          "type": "address"
        }
      ],
      "name": "ERC20InvalidReceiver",
      "type": "error"
    },
    {
      "inputs": [
        {
          "internalType": "address",
          "name": "sender",
          "type": "address"
        }
      ],
      "name": "ERC20InvalidSender",
      "type": "error"
    },
    {
      "inputs": [
        {
          "internalType": "address",
          "name": "spender",
          "type": "address"
        }
      ],
      "name": "ERC20InvalidSpender",
      "type": "error"
    },
    {
      "inputs": [],
      "name": "ReentrancyGuardReentrantCall",
      "type": "error"
    },
    {
      "anonymous": false,
      "inputs": [
        {
          "indexed": true,
          "internalType": "address",
          "name": "owner",
          "type": "address"
        },
        {
          "indexed": true,
          "internalType": "address",
          "name": "spender",
          "type": "address"
        },
        {
          "indexed": false,
          "internalType": "uint256",
          "name": "value",
          "type": "uint256"
        }
      ],
      "name": "Approval",
      "type": "event"
    },
    {
      "anonymous": false,
      "inputs": [
        {
          "indexed": false,
          "internalType": "bytes32",
          "name": "stakeID",
          "type": "bytes32"
        },
        {
          "indexed": false,
          "internalType": "uint256",
          "name": "yield",
          "type": "uint256"
        },
        {
          "indexed": false,
          "internalType": "uint256",
          "name": "amount",
          "type": "uint256"
        },
        {
          "indexed": false,
          "internalType": "uint256",
          "name": "maturityValue",
          "type": "uint256"
        },
        {
          "indexed": false,
          "internalType": "address",
          "name": "user",
          "type": "address"
        },
        {
          "indexed": false,
          "internalType": "uint256",
          "name": "maturityDate",
          "type": "uint256"
        }
      ],
      "name": "Staked",
      "type": "event"
    },
    {
      "anonymous": false,
      "inputs": [
        {
          "indexed": true,
          "internalType": "address",
          "name": "from",
          "type": "address"
        },
        {
          "indexed": true,
          "internalType": "address",
          "name": "to",
          "type": "address"
        },
        {
          "indexed": false,
          "internalType": "uint256",
          "name": "value",
          "type": "uint256"
        }
      ],
      "name": "Transfer",
      "type": "event"
    },
    {
      "inputs": [
        {
          "internalType": "address",
          "name": "owner",
          "type": "address"
        },
        {
          "internalType": "address",
          "name": "spender",
          "type": "address"
        }
      ],
      "name": "allowance",
      "outputs": [
        {
          "internalType": "uint256",
          "name": "",
          "type": "uint256"
        }
      ],
      "stateMutability": "view",
      "type": "function"
    },
    {
      "inputs": [
        {
          "internalType": "address",
          "name": "spender",
          "type": "address"
        },
        {
          "internalType": "uint256",
          "name": "value",
          "type": "uint256"
        }
      ],
      "name": "approve",
      "outputs": [
        {
          "internalType": "bool",
          "name": "",
          "type": "bool"
        }
      ],
      "stateMutability": "nonpayable",
      "type": "function"
    },
    {
      "inputs": [
        {
          "internalType": "address",
          "name": "account",
          "type": "address"
        }
      ],
      "name": "balanceOf",
      "outputs": [
        {
          "internalType": "uint256",
          "name": "",
          "type": "uint256"
        }
      ],
      "stateMutability": "view",
      "type": "function"
    },
    {
      "inputs": [],
      "name": "cUSD",
      "outputs": [
        {
          "internalType": "contract IERC20",
          "name": "",
          "type": "address"
        }
      ],
      "stateMutability": "view",
      "type": "function"
    },
    {
      "inputs": [],
      "name": "decimals",
      "outputs": [
        {
          "internalType": "uint8",
          "name": "",
          "type": "uint8"
        }
      ],
      "stateMutability": "view",
      "type": "function"
    },
    {
      "inputs": [
        {
          "internalType": "bytes32",
          "name": "_stakeId",
          "type": "bytes32"
        }
      ],
      "name": "getStakeByID",
      "outputs": [
        {
          "components": [
            {
              "internalType": "bytes32",
              "name": "stakeId",
              "type": "bytes32"
            },
            {
              "internalType": "uint256",
              "name": "amount",
              "type": "uint256"
            },
            {
              "internalType": "uint256",
              "name": "maturityValue",
              "type": "uint256"
            },
            {
              "internalType": "uint256",
              "name": "maturityDate",
              "type": "uint256"
            },
            {
              "internalType": "uint256",
              "name": "yield",
              "type": "uint256"
            }
          ],
          "internalType": "struct TBillStaking.Stake",
          "name": "",
          "type": "tuple"
        }
      ],
      "stateMutability": "view",
      "type": "function"
    },
    {
      "inputs": [],
      "name": "getStakes",
      "outputs": [
        {
          "components": [
            {
              "internalType": "bytes32",
              "name": "stakeId",
              "type": "bytes32"
            },
            {
              "internalType": "uint256",
              "name": "amount",
              "type": "uint256"
            },
            {
              "internalType": "uint256",
              "name": "maturityValue",
              "type": "uint256"
            },
            {
              "internalType": "uint256",
              "name": "maturityDate",
              "type": "uint256"
            },
            {
              "internalType": "uint256",
              "name": "yield",
              "type": "uint256"
            }
          ],
          "internalType": "struct TBillStaking.Stake[]",
          "name": "",
          "type": "tuple[]"
        }
      ],
      "stateMutability": "view",
      "type": "function"
    },
    {
      "inputs": [],
      "name": "name",
      "outputs": [
        {
          "internalType": "string",
          "name": "",
          "type": "string"
        }
      ],
      "stateMutability": "view",
      "type": "function"
    },
    {
      "inputs": [],
      "name": "owner",
      "outputs": [
        {
          "internalType": "address",
          "name": "",
          "type": "address"
        }
      ],
      "stateMutability": "view",
      "type": "function"
    },
    {
      "inputs": [],
      "name": "penaltyFee",
      "outputs": [
        {
          "internalType": "uint256",
          "name": "",
          "type": "uint256"
        }
      ],
      "stateMutability": "view",
      "type": "function"
    },
    {
      "inputs": [],
      "name": "serviceFee",
      "outputs": [
        {
          "internalType": "uint256",
          "name": "",
          "type": "uint256"
        }
      ],
      "stateMutability": "view",
      "type": "function"
    },
    {
      "inputs": [
        {
          "internalType": "uint256",
          "name": "_fee",
          "type": "uint256"
        }
      ],
      "name": "setPenaltyFee",
      "outputs": [],
      "stateMutability": "nonpayable",
      "type": "function"
    },
    {
      "inputs": [
        {
          "internalType": "uint256",
          "name": "_fee",
          "type": "uint256"
        }
      ],
      "name": "setServiceFee",
      "outputs": [],
      "stateMutability": "nonpayable",
      "type": "function"
    },
    {
      "inputs": [
        {
          "internalType": "uint256",
          "name": "_amount",
          "type": "uint256"
        },
        {
          "internalType": "uint256",
          "name": "_yield",
          "type": "uint256"
        },
        {
          "internalType": "uint256",
          "name": "_maturityValue",
          "type": "uint256"
        },
        {
          "internalType": "bytes32",
          "name": "_stakeId",
          "type": "bytes32"
        },
        {
          "internalType": "uint8",
          "name": "_period",
          "type": "uint8"
        }
      ],
      "name": "stake",
      "outputs": [],
      "stateMutability": "nonpayable",
      "type": "function"
    },
    {
      "inputs": [],
      "name": "symbol",
      "outputs": [
        {
          "internalType": "string",
          "name": "",
          "type": "string"
        }
      ],
      "stateMutability": "view",
      "type": "function"
    },
    {
      "inputs": [],
      "name": "totalSupply",
      "outputs": [
        {
          "internalType": "uint256",
          "name": "",
          "type": "uint256"
        }
      ],
      "stateMutability": "view",
      "type": "function"
    },
    {
      "inputs": [
        {
          "internalType": "address",
          "name": "to",
          "type": "address"
        },
        {
          "internalType": "uint256",
          "name": "value",
          "type": "uint256"
        }
      ],
      "name": "transfer",
      "outputs": [
        {
          "internalType": "bool",
          "name": "",
          "type": "bool"
        }
      ],
      "stateMutability": "nonpayable",
      "type": "function"
    },
    {
      "inputs": [
        {
          "internalType": "address",
          "name": "from",
          "type": "address"
        },
        {
          "internalType": "address",
          "name": "to",
          "type": "address"
        },
        {
          "internalType": "uint256",
          "name": "value",
          "type": "uint256"
        }
      ],
      "name": "transferFrom",
      "outputs": [
        {
          "internalType": "bool",
          "name": "",
          "type": "bool"
        }
      ],
      "stateMutability": "nonpayable",
      "type": "function"
    },
    {
      "inputs": [
        {
          "internalType": "address",
          "name": "newOwner",
          "type": "address"
        }
      ],
      "name": "transferOwnership",
      "outputs": [],
      "stateMutability": "nonpayable",
      "type": "function"
    },
    {
      "inputs": [
        {
          "internalType": "uint8",
          "name": "",
          "type": "uint8"
        }
      ],
      "name": "weekMap",
      "outputs": [
        {
          "internalType": "uint256",
          "name": "",
          "type": "uint256"
        }
      ],
      "stateMutability": "view",
      "type": "function"
    },
    {
      "inputs": [
        {
          "internalType": "bytes32",
          "name": "_stakeId",
          "type": "bytes32"
        }
      ],
      "name": "withdraw",
      "outputs": [],
      "stateMutability": "nonpayable",
      "type": "function"
    },
    {
      "inputs": [],
      "name": "withdrawYield",
      "outputs": [],
      "stateMutability": "nonpayable",
      "type": "function"
    }
  ],
  "bytecode": "0x61010060405262093a806080526224ea0060a052626ebe0060c05262dd7c0060e0523480156200002e57600080fd5b5060405162001d2038038062001d2083398101604081905262000051916200033f565b604080518082018252600b81526a2a2124a626102a37b5b2b760a91b60208083019190915282518084019093526005835264151092531360da1b908301526001600055906004620000a3838262000418565b506005620000b2828262000418565b505050620000ec33620000ca620001c560201b60201c565b620000d790600a620005f9565b620000e690620f42406200060a565b620001ca565b600680546001600160a01b039092166001600160a01b031992831617815560078054909216331790915560036008556005600955608051600a6020527f22e39f61d1e4986b4f116cea9067f62cc77d74dff1780ae9c8b5166d1dd288295560a0517fbbc70db1b6c7afd11e79c0fb0051300458f1a3acb8ee9789d9b6b26c61ad9bc75560c0517fa856840544dc26124927add067d799967eac11be13e14d82cc281ea46fa397595560e0516000919091527f10d9dd018e4cae503383c9f804c1c1603ada5856ee7894375d9b97cd8c8b27db556200063a565b601290565b6001600160a01b038216620001fa5760405163ec442f0560e01b8152600060048201526024015b60405180910390fd5b62000208600083836200020c565b5050565b6001600160a01b0383166200023b5780600360008282546200022f919062000624565b90915550620002af9050565b6001600160a01b03831660009081526001602052604090205481811015620002905760405163391434e360e21b81526001600160a01b03851660048201526024810182905260448101839052606401620001f1565b6001600160a01b03841660009081526001602052604090209082900390555b6001600160a01b038216620002cd57600380548290039055620002ec565b6001600160a01b03821660009081526001602052604090208054820190555b816001600160a01b0316836001600160a01b03167fddf252ad1be2c89b69c2b068fc378daa952ba7f163c4a11628f55a4df523b3ef836040516200033291815260200190565b60405180910390a3505050565b6000602082840312156200035257600080fd5b81516001600160a01b03811681146200036a57600080fd5b9392505050565b634e487b7160e01b600052604160045260246000fd5b600181811c908216806200039c57607f821691505b602082108103620003bd57634e487b7160e01b600052602260045260246000fd5b50919050565b601f82111562000413576000816000526020600020601f850160051c81016020861015620003ee5750805b601f850160051c820191505b818110156200040f57828155600101620003fa565b5050505b505050565b81516001600160401b0381111562000434576200043462000371565b6200044c8162000445845462000387565b84620003c3565b602080601f8311600181146200048457600084156200046b5750858301515b600019600386901b1c1916600185901b1785556200040f565b600085815260208120601f198616915b82811015620004b55788860151825594840194600190910190840162000494565b5085821015620004d45787850151600019600388901b60f8161c191681555b5050505050600190811b01905550565b634e487b7160e01b600052601160045260246000fd5b600181815b808511156200053b5781600019048211156200051f576200051f620004e4565b808516156200052d57918102915b93841c9390800290620004ff565b509250929050565b6000826200055457506001620005f3565b816200056357506000620005f3565b81600181146200057c57600281146200058757620005a7565b6001915050620005f3565b60ff8411156200059b576200059b620004e4565b50506001821b620005f3565b5060208310610133831016604e8410600b8410161715620005cc575081810a620005f3565b620005d88383620004fa565b8060001904821115620005ef57620005ef620004e4565b0290505b92915050565b60006200036a60ff84168362000543565b8082028115828204841417620005f357620005f3620004e4565b80820180821115620005f357620005f3620004e4565b60805160a05160c05160e0516116b862000668600039600050506000505060005050600050506116b86000f3fe608060405234801561001057600080fd5b50600436106101425760003560e01c806386152a00116100b85780639e5fecbc1161007c5780639e5fecbc146102ab578063a9059cbb146102cb578063dd62ed3e146102de578063df4b477614610317578063e507a8a41461032c578063f2fde38b1461033457600080fd5b806386152a00146102615780638abdf5aa146102745780638da5cb5b1461027d5780638e19899e1461029057806395d89b41146102a357600080fd5b806323b872dd1161010a57806323b872dd146101da5780632f8ec393146101ed578063313ce5671461020d5780633dc10ad41461021c5780635cdf76f81461022557806370a082311461023857600080fd5b806306fdde0314610147578063095ea7b31461016557806310c4f4341461018857806318160ddd1461019d5780631fccf672146101af575b600080fd5b61014f610347565b60405161015c9190611234565b60405180910390f35b61017861017336600461129f565b6103d9565b604051901515815260200161015c565b61019b6101963660046112c9565b6103f3565b005b6003545b60405190815260200161015c565b6006546101c2906001600160a01b031681565b6040516001600160a01b03909116815260200161015c565b6101786101e83660046112e2565b61042b565b6101a16101fb36600461132f565b600a6020526000908152604090205481565b6040516012815260200161015c565b6101a160095481565b61019b6102333660046112c9565b61044f565b6101a161024636600461134a565b6001600160a01b031660009081526001602052604090205490565b61019b61026f366004611365565b61047e565b6101a160085481565b6007546101c2906001600160a01b031681565b61019b61029e3660046112c9565b610767565b61014f610a62565b6102be6102b93660046112c9565b610a71565b60405161015c91906113ae565b6101786102d936600461129f565b610c07565b6101a16102ec3660046113e7565b6001600160a01b03918216600090815260026020908152604080832093909416825291909152205490565b61031f610c15565b60405161015c919061141a565b61019b610cb1565b61019b61034236600461134a565b610dda565b60606004805461035690611493565b80601f016020809104026020016040519081016040528092919081815260200182805461038290611493565b80156103cf5780601f106103a4576101008083540402835291602001916103cf565b820191906000526020600020905b8154815290600101906020018083116103b257829003601f168201915b5050505050905090565b6000336103e7818585610e26565b60019150505b92915050565b6007546001600160a01b031633146104265760405162461bcd60e51b815260040161041d906114cd565b60405180910390fd5b600955565b600033610439858285610e38565b610444858585610eb6565b506001949350505050565b6007546001600160a01b031633146104795760405162461bcd60e51b815260040161041d906114cd565b600855565b610486610f15565b336104a35760405162461bcd60e51b815260040161041d90611512565b600085116105025760405162461bcd60e51b815260206004820152602660248201527f5374616b6520616d6f756e74206d7573742062652067726561746572207468616044820152656e207a65726f60d01b606482015260840161041d565b60ff81166000908152600a6020526040812054429190610522908361155f565b600654604051636eb1769f60e11b81523360048201523060248201529192506000916001600160a01b039091169063dd62ed3e90604401602060405180830381865afa158015610576573d6000803e3d6000fd5b505050506040513d601f19601f8201168201806040525081019061059a9190611572565b9050878110156105ec5760405162461bcd60e51b815260206004820152601b60248201527f496e73756666696369656e74206355534420616c6c6f77616e63650000000000604482015260640161041d565b6006546040516323b872dd60e01b8152336004820152306024820152604481018a90526001600160a01b03909116906323b872dd906064016020604051808303816000875af1158015610643573d6000803e3d6000fd5b505050506040513d601f19601f82011682018060405250810190610667919061158b565b6106835760405162461bcd60e51b815260040161041d906115ad565b6040805160a08101825286815260208082018b81528284018a815260608401878152608085018d8152336000818152600b8752978820805460018181018355918a52969098208751600590970201958655935196850196909655905160028401555160038301559251600490910155906106fd9088610f3f565b60408051878152602081018a90529081018a90526060810188905233608082015260a081018490527ffa09fc96376800f18592b8ea00d09549563b7df7b459a3d85fcf71c4f17825429060c00160405180910390a1505050506107606001600055565b5050505050565b61076f610f15565b3361078c5760405162461bcd60e51b815260040161041d90611512565b336000908152600b6020526040902080546107e15760405162461bcd60e51b81526020600482015260156024820152744e6f207374616b657320746f20776974686472617760581b604482015260640161041d565b60005b8154811015610a53576000828281548110610801576108016115db565b90600052602060002090600502019050838160000154146108705760405162461bcd60e51b815260206004820152602360248201527f5374616b652077697468204944206e6f7420666f756e6420746f20776974686460448201526272617760e81b606482015260840161041d565b600042826003015411156108915761088e8260020154600954610f79565b90505b60006108a38360020154600854610f79565b905060006108c8836108c2848760020154610f9a90919063ffffffff16565b90610f9a565b90506108d8338560020154610fbd565b85546000906108e9906001906115f1565b905080861461096857868181548110610904576109046115db565b9060005260206000209060050201878781548110610924576109246115db565b906000526020600020906005020160008201548160000155600182015481600101556002820154816002015560038201548160030155600482015481600401559050505b8680548061097857610978611604565b60008281526020812060056000199390930192830201818155600181018290556002810182905560038101829055600490810191909155915560065460405163a9059cbb60e01b81523392810192909252602482018490526001600160a01b03169063a9059cbb906044016020604051808303816000875af1158015610a02573d6000803e3d6000fd5b505050506040513d601f19601f82011682018060405250810190610a26919061158b565b610a425760405162461bcd60e51b815260040161041d906115ad565b5050600190930192506107e4915050565b5050610a5f6001600055565b50565b60606005805461035690611493565b610aa66040518060a0016040528060008019168152602001600081526020016000815260200160008152602001600081525090565b33610ac35760405162461bcd60e51b815260040161041d90611512565b336000908152600b602052604090208054610b185760405162461bcd60e51b81526020600482015260156024820152744e6f207374616b657320746f20776974686472617760581b604482015260640161041d565b60005a905060005b825481108015610b31575061520882115b15610bbe576000838281548110610b4a57610b4a6115db565b9060005260206000209060050201905085816000015403610ba7576040805160a081018252825481526001830154602082015260028301549181019190915260038201546060820152600490910154608082015295945050505050565b5a9250508080610bb69061161a565b915050610b20565b5060405162461bcd60e51b815260206004820152601760248201527f5374616b652077697468204944206e6f7420666f756e64000000000000000000604482015260640161041d565b6000336103e7818585610eb6565b336000908152600b60209081526040808320805482518185028101850190935280835260609492939192909184015b82821015610ca857838290600052602060002090600502016040518060a00160405290816000820154815260200160018201548152602001600282015481526020016003820154815260200160048201548152505081526020019060010190610c44565b50505050905090565b6007546001600160a01b03163314610cdb5760405162461bcd60e51b815260040161041d906114cd565b6006546040516370a0823160e01b81523060048201526000916001600160a01b0316906370a0823190602401602060405180830381865afa158015610d24573d6000803e3d6000fd5b505050506040513d601f19601f82011682018060405250810190610d489190611572565b60065460405163a9059cbb60e01b8152336004820152602481018390529192506001600160a01b03169063a9059cbb906044016020604051808303816000875af1158015610d9a573d6000803e3d6000fd5b505050506040513d601f19601f82011682018060405250810190610dbe919061158b565b610a5f5760405162461bcd60e51b815260040161041d906115ad565b6007546001600160a01b03163314610e045760405162461bcd60e51b815260040161041d906114cd565b600780546001600160a01b0319166001600160a01b0392909216919091179055565b610e338383836001610ff3565b505050565b6001600160a01b038381166000908152600260209081526040808320938616835292905220546000198114610eb05781811015610ea157604051637dc7a0d960e11b81526001600160a01b0384166004820152602481018290526044810183905260640161041d565b610eb084848484036000610ff3565b50505050565b6001600160a01b038316610ee057604051634b637e8f60e11b81526000600482015260240161041d565b6001600160a01b038216610f0a5760405163ec442f0560e01b81526000600482015260240161041d565b610e338383836110c8565b600260005403610f3857604051633ee5aeb560e01b815260040160405180910390fd5b6002600055565b6001600160a01b038216610f695760405163ec442f0560e01b81526000600482015260240161041d565b610f75600083836110c8565b5050565b600080610f926103e8610f8c86866111f2565b90611228565b949350505050565b600082821115610fac57610fac611633565b610fb682846115f1565b9392505050565b6001600160a01b038216610fe757604051634b637e8f60e11b81526000600482015260240161041d565b610f75826000836110c8565b6001600160a01b03841661101d5760405163e602df0560e01b81526000600482015260240161041d565b6001600160a01b03831661104757604051634a1406b160e11b81526000600482015260240161041d565b6001600160a01b0380851660009081526002602090815260408083209387168352929052208290558015610eb057826001600160a01b0316846001600160a01b03167f8c5be1e5ebec7d5bd14f71427d1e84f3dd0314c0f7b2291e5b200ac8c7c3b925846040516110ba91815260200190565b60405180910390a350505050565b6001600160a01b0383166110f35780600360008282546110e8919061155f565b909155506111659050565b6001600160a01b038316600090815260016020526040902054818110156111465760405163391434e360e21b81526001600160a01b0385166004820152602481018290526044810183905260640161041d565b6001600160a01b03841660009081526001602052604090209082900390555b6001600160a01b038216611181576003805482900390556111a0565b6001600160a01b03821660009081526001602052604090208054820190555b816001600160a01b0316836001600160a01b03167fddf252ad1be2c89b69c2b068fc378daa952ba7f163c4a11628f55a4df523b3ef836040516111e591815260200190565b60405180910390a3505050565b600082600003611204575060006103ed565b61120e8284611649565b90508161121b8483611660565b146103ed576103ed611633565b6000610fb68284611660565b60006020808352835180602085015260005b8181101561126257858101830151858201604001528201611246565b506000604082860101526040601f19601f8301168501019250505092915050565b80356001600160a01b038116811461129a57600080fd5b919050565b600080604083850312156112b257600080fd5b6112bb83611283565b946020939093013593505050565b6000602082840312156112db57600080fd5b5035919050565b6000806000606084860312156112f757600080fd5b61130084611283565b925061130e60208501611283565b9150604084013590509250925092565b803560ff8116811461129a57600080fd5b60006020828403121561134157600080fd5b610fb68261131e565b60006020828403121561135c57600080fd5b610fb682611283565b600080600080600060a0868803121561137d57600080fd5b853594506020860135935060408601359250606086013591506113a26080870161131e565b90509295509295909350565b60a081016103ed828480518252602081015160208301526040810151604083015260608101516060830152608081015160808301525050565b600080604083850312156113fa57600080fd5b61140383611283565b915061141160208401611283565b90509250929050565b6020808252825182820181905260009190848201906040850190845b818110156114875761147483855180518252602081015160208301526040810151604083015260608101516060830152608081015160808301525050565b9284019260a09290920191600101611436565b50909695505050505050565b600181811c908216806114a757607f821691505b6020821081036114c757634e487b7160e01b600052602260045260246000fd5b50919050565b60208082526025908201527f4f6e6c7920746865206f776e65722063616e2063616c6c20746869732066756e60408201526431ba34b7b760d91b606082015260800190565b60208082526018908201527f5a65726f2061646472657373206e6f7420616c6c6f7765640000000000000000604082015260600190565b634e487b7160e01b600052601160045260246000fd5b808201808211156103ed576103ed611549565b60006020828403121561158457600080fd5b5051919050565b60006020828403121561159d57600080fd5b81518015158114610fb657600080fd5b60208082526014908201527318d554d1081d1c985b9cd9995c8819985a5b195960621b604082015260600190565b634e487b7160e01b600052603260045260246000fd5b818103818111156103ed576103ed611549565b634e487b7160e01b600052603160045260246000fd5b60006001820161162c5761162c611549565b5060010190565b634e487b7160e01b600052600160045260246000fd5b80820281158282048414176103ed576103ed611549565b60008261167d57634e487b7160e01b600052601260045260246000fd5b50049056fea26469706673582212209a4e5c7b71302d4c84453f1eb88369ff5c1c7eb66015734406eb2bdd9ac4335864736f6c63430008180033",
  "linkReferences": {},
  "deployedLinkReferences": {}
}