{
  "_format": "hh-sol-artifact-1",
  "contractName": "TBillStaking",
  "sourceName": "contracts/TbillVault.sol",
  "abi": [
    {
      "inputs": [
        {
          "internalType": "address",
          "name": "_cUSD",
          "type": "address"
        }
      ],
      "stateMutability": "nonpayable",
      "type": "constructor"
    },
    {
      "inputs": [
        {
          "internalType": "address",
          "name": "spender",
          "type": "address"
        },
        {
          "internalType": "uint256",
          "name": "allowance",
          "type": "uint256"
        },
        {
          "internalType": "uint256",
          "name": "needed",
          "type": "uint256"
        }
      ],
      "name": "ERC20InsufficientAllowance",
      "type": "error"
    },
    {
      "inputs": [
        {
          "internalType": "address",
          "name": "sender",
          "type": "address"
        },
        {
          "internalType": "uint256",
          "name": "balance",
          "type": "uint256"
        },
        {
          "internalType": "uint256",
          "name": "needed",
          "type": "uint256"
        }
      ],
      "name": "ERC20InsufficientBalance",
      "type": "error"
    },
    {
      "inputs": [
        {
          "internalType": "address",
          "name": "approver",
          "type": "address"
        }
      ],
      "name": "ERC20InvalidApprover",
      "type": "error"
    },
    {
      "inputs": [
        {
          "internalType": "address",
          "name": "receiver",
          "type": "address"
        }
      ],
      "name": "ERC20InvalidReceiver",
      "type": "error"
    },
    {
      "inputs": [
        {
          "internalType": "address",
          "name": "sender",
          "type": "address"
        }
      ],
      "name": "ERC20InvalidSender",
      "type": "error"
    },
    {
      "inputs": [
        {
          "internalType": "address",
          "name": "spender",
          "type": "address"
        }
      ],
      "name": "ERC20InvalidSpender",
      "type": "error"
    },
    {
      "inputs": [],
      "name": "ReentrancyGuardReentrantCall",
      "type": "error"
    },
    {
      "anonymous": false,
      "inputs": [
        {
          "indexed": true,
          "internalType": "address",
          "name": "owner",
          "type": "address"
        },
        {
          "indexed": true,
          "internalType": "address",
          "name": "spender",
          "type": "address"
        },
        {
          "indexed": false,
          "internalType": "uint256",
          "name": "value",
          "type": "uint256"
        }
      ],
      "name": "Approval",
      "type": "event"
    },
    {
      "anonymous": false,
      "inputs": [
        {
          "indexed": true,
          "internalType": "address",
          "name": "from",
          "type": "address"
        },
        {
          "indexed": true,
          "internalType": "address",
          "name": "to",
          "type": "address"
        },
        {
          "indexed": false,
          "internalType": "uint256",
          "name": "value",
          "type": "uint256"
        }
      ],
      "name": "Transfer",
      "type": "event"
    },
    {
      "inputs": [
        {
          "internalType": "address",
          "name": "owner",
          "type": "address"
        },
        {
          "internalType": "address",
          "name": "spender",
          "type": "address"
        }
      ],
      "name": "allowance",
      "outputs": [
        {
          "internalType": "uint256",
          "name": "",
          "type": "uint256"
        }
      ],
      "stateMutability": "view",
      "type": "function"
    },
    {
      "inputs": [
        {
          "internalType": "address",
          "name": "spender",
          "type": "address"
        },
        {
          "internalType": "uint256",
          "name": "value",
          "type": "uint256"
        }
      ],
      "name": "approve",
      "outputs": [
        {
          "internalType": "bool",
          "name": "",
          "type": "bool"
        }
      ],
      "stateMutability": "nonpayable",
      "type": "function"
    },
    {
      "inputs": [
        {
          "internalType": "address",
          "name": "account",
          "type": "address"
        }
      ],
      "name": "balanceOf",
      "outputs": [
        {
          "internalType": "uint256",
          "name": "",
          "type": "uint256"
        }
      ],
      "stateMutability": "view",
      "type": "function"
    },
    {
      "inputs": [],
      "name": "cUSD",
      "outputs": [
        {
          "internalType": "contract IERC20",
          "name": "",
          "type": "address"
        }
      ],
      "stateMutability": "view",
      "type": "function"
    },
    {
      "inputs": [],
      "name": "decimals",
      "outputs": [
        {
          "internalType": "uint8",
          "name": "",
          "type": "uint8"
        }
      ],
      "stateMutability": "view",
      "type": "function"
    },
    {
      "inputs": [
        {
          "internalType": "bytes32",
          "name": "_stakeId",
          "type": "bytes32"
        }
      ],
      "name": "getStakeByID",
      "outputs": [
        {
          "components": [
            {
              "internalType": "bytes32",
              "name": "stakeId",
              "type": "bytes32"
            },
            {
              "internalType": "uint256",
              "name": "amount",
              "type": "uint256"
            },
            {
              "internalType": "uint256",
              "name": "maturityValue",
              "type": "uint256"
            },
            {
              "internalType": "uint256",
              "name": "maturityDate",
              "type": "uint256"
            },
            {
              "internalType": "uint256",
              "name": "yield",
              "type": "uint256"
            }
          ],
          "internalType": "struct TBillStaking.Stake",
          "name": "",
          "type": "tuple"
        }
      ],
      "stateMutability": "view",
      "type": "function"
    },
    {
      "inputs": [
        {
          "internalType": "address",
          "name": "_user",
          "type": "address"
        }
      ],
      "name": "getStakes",
      "outputs": [
        {
          "components": [
            {
              "internalType": "bytes32",
              "name": "stakeId",
              "type": "bytes32"
            },
            {
              "internalType": "uint256",
              "name": "amount",
              "type": "uint256"
            },
            {
              "internalType": "uint256",
              "name": "maturityValue",
              "type": "uint256"
            },
            {
              "internalType": "uint256",
              "name": "maturityDate",
              "type": "uint256"
            },
            {
              "internalType": "uint256",
              "name": "yield",
              "type": "uint256"
            }
          ],
          "internalType": "struct TBillStaking.Stake[]",
          "name": "",
          "type": "tuple[]"
        }
      ],
      "stateMutability": "view",
      "type": "function"
    },
    {
      "inputs": [],
      "name": "name",
      "outputs": [
        {
          "internalType": "string",
          "name": "",
          "type": "string"
        }
      ],
      "stateMutability": "view",
      "type": "function"
    },
    {
      "inputs": [],
      "name": "owner",
      "outputs": [
        {
          "internalType": "address",
          "name": "",
          "type": "address"
        }
      ],
      "stateMutability": "view",
      "type": "function"
    },
    {
      "inputs": [],
      "name": "penaltyFee",
      "outputs": [
        {
          "internalType": "uint256",
          "name": "",
          "type": "uint256"
        }
      ],
      "stateMutability": "view",
      "type": "function"
    },
    {
      "inputs": [],
      "name": "serviceFee",
      "outputs": [
        {
          "internalType": "uint256",
          "name": "",
          "type": "uint256"
        }
      ],
      "stateMutability": "view",
      "type": "function"
    },
    {
      "inputs": [
        {
          "internalType": "uint256",
          "name": "_fee",
          "type": "uint256"
        }
      ],
      "name": "setPenaltyFee",
      "outputs": [],
      "stateMutability": "nonpayable",
      "type": "function"
    },
    {
      "inputs": [
        {
          "internalType": "uint256",
          "name": "_fee",
          "type": "uint256"
        }
      ],
      "name": "setServiceFee",
      "outputs": [],
      "stateMutability": "nonpayable",
      "type": "function"
    },
    {
      "inputs": [
        {
          "internalType": "uint256",
          "name": "_amount",
          "type": "uint256"
        },
        {
          "internalType": "uint256",
          "name": "_yield",
          "type": "uint256"
        },
        {
          "internalType": "uint256",
          "name": "_maturityValue",
          "type": "uint256"
        },
        {
          "internalType": "bytes32",
          "name": "_stakeId",
          "type": "bytes32"
        }
      ],
      "name": "stake",
      "outputs": [],
      "stateMutability": "nonpayable",
      "type": "function"
    },
    {
      "inputs": [],
      "name": "symbol",
      "outputs": [
        {
          "internalType": "string",
          "name": "",
          "type": "string"
        }
      ],
      "stateMutability": "view",
      "type": "function"
    },
    {
      "inputs": [],
      "name": "totalSupply",
      "outputs": [
        {
          "internalType": "uint256",
          "name": "",
          "type": "uint256"
        }
      ],
      "stateMutability": "view",
      "type": "function"
    },
    {
      "inputs": [
        {
          "internalType": "address",
          "name": "to",
          "type": "address"
        },
        {
          "internalType": "uint256",
          "name": "value",
          "type": "uint256"
        }
      ],
      "name": "transfer",
      "outputs": [
        {
          "internalType": "bool",
          "name": "",
          "type": "bool"
        }
      ],
      "stateMutability": "nonpayable",
      "type": "function"
    },
    {
      "inputs": [
        {
          "internalType": "address",
          "name": "from",
          "type": "address"
        },
        {
          "internalType": "address",
          "name": "to",
          "type": "address"
        },
        {
          "internalType": "uint256",
          "name": "value",
          "type": "uint256"
        }
      ],
      "name": "transferFrom",
      "outputs": [
        {
          "internalType": "bool",
          "name": "",
          "type": "bool"
        }
      ],
      "stateMutability": "nonpayable",
      "type": "function"
    },
    {
      "inputs": [
        {
          "internalType": "address",
          "name": "newOwner",
          "type": "address"
        }
      ],
      "name": "transferOwnership",
      "outputs": [],
      "stateMutability": "nonpayable",
      "type": "function"
    },
    {
      "inputs": [
        {
          "internalType": "bytes32",
          "name": "_stakeId",
          "type": "bytes32"
        }
      ],
      "name": "withdraw",
      "outputs": [],
      "stateMutability": "nonpayable",
      "type": "function"
    }
  ],
  "bytecode": "0x60a060405262093a806080523480156200001857600080fd5b5060405162001aae38038062001aae8339810160408190526200003b9162000289565b604080518082018252600b81526a2a2124a626102a37b5b2b760a91b60208083019190915282518084019093526005835264151092531360da1b9083015260016000559060046200008d838262000362565b5060056200009c828262000362565b505050620000d633620000b46200010f60201b60201c565b620000c190600a62000543565b620000d090620f424062000554565b62000114565b600680546001600160a01b039092166001600160a01b031992831617905560078054909116331790556003600855600560095562000584565b601290565b6001600160a01b038216620001445760405163ec442f0560e01b8152600060048201526024015b60405180910390fd5b620001526000838362000156565b5050565b6001600160a01b038316620001855780600360008282546200017991906200056e565b90915550620001f99050565b6001600160a01b03831660009081526001602052604090205481811015620001da5760405163391434e360e21b81526001600160a01b038516600482015260248101829052604481018390526064016200013b565b6001600160a01b03841660009081526001602052604090209082900390555b6001600160a01b038216620002175760038054829003905562000236565b6001600160a01b03821660009081526001602052604090208054820190555b816001600160a01b0316836001600160a01b03167fddf252ad1be2c89b69c2b068fc378daa952ba7f163c4a11628f55a4df523b3ef836040516200027c91815260200190565b60405180910390a3505050565b6000602082840312156200029c57600080fd5b81516001600160a01b0381168114620002b457600080fd5b9392505050565b634e487b7160e01b600052604160045260246000fd5b600181811c90821680620002e657607f821691505b6020821081036200030757634e487b7160e01b600052602260045260246000fd5b50919050565b601f8211156200035d576000816000526020600020601f850160051c81016020861015620003385750805b601f850160051c820191505b81811015620003595782815560010162000344565b5050505b505050565b81516001600160401b038111156200037e576200037e620002bb565b62000396816200038f8454620002d1565b846200030d565b602080601f831160018114620003ce5760008415620003b55750858301515b600019600386901b1c1916600185901b17855562000359565b600085815260208120601f198616915b82811015620003ff57888601518255948401946001909101908401620003de565b50858210156200041e5787850151600019600388901b60f8161c191681555b5050505050600190811b01905550565b634e487b7160e01b600052601160045260246000fd5b600181815b80851115620004855781600019048211156200046957620004696200042e565b808516156200047757918102915b93841c939080029062000449565b509250929050565b6000826200049e575060016200053d565b81620004ad575060006200053d565b8160018114620004c65760028114620004d157620004f1565b60019150506200053d565b60ff841115620004e557620004e56200042e565b50506001821b6200053d565b5060208310610133831016604e8410600b841016171562000516575081810a6200053d565b62000522838362000444565b80600019048211156200053957620005396200042e565b0290505b92915050565b6000620002b460ff8416836200048d565b80820281158282048414176200053d576200053d6200042e565b808201808211156200053d576200053d6200042e565b60805161150e620005a060003960006103a9015261150e6000f3fe608060405234801561001057600080fd5b506004361061012c5760003560e01c806370a08231116100ad57806395d89b411161007157806395d89b411461028d5780639e5fecbc14610295578063a9059cbb146102b5578063dd62ed3e146102c8578063f2fde38b1461030157600080fd5b806370a08231146102155780637ba6f4581461023e5780638abdf5aa1461025e5780638da5cb5b146102675780638e19899e1461027a57600080fd5b80631fccf672116100f45780631fccf672146101ac57806323b872dd146101d7578063313ce567146101ea5780633dc10ad4146101f95780635cdf76f81461020257600080fd5b80630479bc321461013157806306fdde0314610146578063095ea7b31461016457806310c4f4341461018757806318160ddd1461019a575b600080fd5b61014461013f3660046110fb565b610314565b005b61014e6105e4565b60405161015b919061112d565b60405180910390f35b610177610172366004611198565b610676565b604051901515815260200161015b565b6101446101953660046111c2565b610690565b6003545b60405190815260200161015b565b6006546101bf906001600160a01b031681565b6040516001600160a01b03909116815260200161015b565b6101776101e53660046111db565b6106bf565b6040516012815260200161015b565b61019e60095481565b6101446102103660046111c2565b6106e3565b61019e610223366004611217565b6001600160a01b031660009081526001602052604090205490565b61025161024c366004611217565b610712565b60405161015b9190611232565b61019e60085481565b6007546101bf906001600160a01b031681565b6101446102883660046111c2565b6107b9565b61014e610af8565b6102a86102a33660046111c2565b610b07565b60405161015b91906112ab565b6101776102c3366004611198565b610c9d565b61019e6102d63660046112e4565b6001600160a01b03918216600090815260026020908152604080832093909416825291909152205490565b61014461030f366004611217565b610cab565b61031c610cf7565b336103425760405162461bcd60e51b815260040161033990611317565b60405180910390fd5b600084116103a15760405162461bcd60e51b815260206004820152602660248201527f5374616b6520616d6f756e74206d7573742062652067726561746572207468616044820152656e207a65726f60d01b6064820152608401610339565b4260006103ce7f000000000000000000000000000000000000000000000000000000000000000083611364565b600654604051636eb1769f60e11b81523360048201523060248201529192506000916001600160a01b039091169063dd62ed3e90604401602060405180830381865afa158015610422573d6000803e3d6000fd5b505050506040513d601f19601f820116820180604052508101906104469190611377565b9050868110156104985760405162461bcd60e51b815260206004820152601b60248201527f496e73756666696369656e74206355534420616c6c6f77616e636500000000006044820152606401610339565b6006546040516323b872dd60e01b8152336004820152306024820152604481018990526001600160a01b03909116906323b872dd906064016020604051808303816000875af11580156104ef573d6000803e3d6000fd5b505050506040513d601f19601f820116820180604052508101906105139190611390565b6105565760405162461bcd60e51b815260206004820152601460248201527318d554d1081d1c985b9cd9995c8819985a5b195960621b6044820152606401610339565b6040805160a08101825285815260208082018a815282840189815260608401878152608085018c8152336000818152600a8752978820805460018181018355918a52969098208751600590970201958655935196850196909655905160028401555160038301559251600490910155906105d09087610d21565b505050506105de6001600055565b50505050565b6060600480546105f3906113b2565b80601f016020809104026020016040519081016040528092919081815260200182805461061f906113b2565b801561066c5780601f106106415761010080835404028352916020019161066c565b820191906000526020600020905b81548152906001019060200180831161064f57829003601f168201915b5050505050905090565b600033610684818585610d5b565b60019150505b92915050565b6007546001600160a01b031633146106ba5760405162461bcd60e51b8152600401610339906113ec565b600955565b6000336106cd858285610d6d565b6106d8858585610de5565b506001949350505050565b6007546001600160a01b0316331461070d5760405162461bcd60e51b8152600401610339906113ec565b600855565b6001600160a01b0381166000908152600a60209081526040808320805482518185028101850190935280835260609492939192909184015b828210156107ae57838290600052602060002090600502016040518060a0016040529081600082015481526020016001820154815260200160028201548152602001600382015481526020016004820154815250508152602001906001019061074a565b505050509050919050565b6107c1610cf7565b336107de5760405162461bcd60e51b815260040161033990611317565b336000908152600a6020526040902080546108335760405162461bcd60e51b81526020600482015260156024820152744e6f207374616b657320746f20776974686472617760581b6044820152606401610339565b60005a905060005b82548110801561084c575061520882115b15610ae857600083828154811061086557610865611431565b90600052602060002090600502019050848160000154146108d45760405162461bcd60e51b815260206004820152602360248201527f5374616b652077697468204944206e6f7420666f756e6420746f20776974686460448201526272617760e81b6064820152608401610339565b600042826003015411156108f5576108f28260020154600954610e44565b90505b60006109078360020154600854610e44565b9050600061092c83610926848760020154610e6590919063ffffffff16565b90610e65565b905061093c338560020154610e88565b865460009061094d90600190611447565b90508086146109cc5787818154811061096857610968611431565b906000526020600020906005020188878154811061098857610988611431565b906000526020600020906005020160008201548160000155600182015481600101556002820154816002015560038201548160030155600482015481600401559050505b878054806109dc576109dc61145a565b60008281526020812060056000199390930192830201818155600181018290556002810182905560038101829055600490810191909155915560065460405163a9059cbb60e01b81523392810192909252602482018490526001600160a01b03169063a9059cbb906044016020604051808303816000875af1158015610a66573d6000803e3d6000fd5b505050506040513d601f19601f82011682018060405250810190610a8a9190611390565b610acd5760405162461bcd60e51b815260206004820152601460248201527318d554d1081d1c985b9cd9995c8819985a5b195960621b6044820152606401610339565b5a965050505050508080610ae090611470565b91505061083b565b505050610af56001600055565b50565b6060600580546105f3906113b2565b610b3c6040518060a0016040528060008019168152602001600081526020016000815260200160008152602001600081525090565b33610b595760405162461bcd60e51b815260040161033990611317565b336000908152600a602052604090208054610bae5760405162461bcd60e51b81526020600482015260156024820152744e6f207374616b657320746f20776974686472617760581b6044820152606401610339565b60005a905060005b825481108015610bc7575061520882115b15610c54576000838281548110610be057610be0611431565b9060005260206000209060050201905085816000015403610c3d576040805160a081018252825481526001830154602082015260028301549181019190915260038201546060820152600490910154608082015295945050505050565b5a9250508080610c4c90611470565b915050610bb6565b5060405162461bcd60e51b815260206004820152601760248201527f5374616b652077697468204944206e6f7420666f756e640000000000000000006044820152606401610339565b600033610684818585610de5565b6007546001600160a01b03163314610cd55760405162461bcd60e51b8152600401610339906113ec565b600780546001600160a01b0319166001600160a01b0392909216919091179055565b600260005403610d1a57604051633ee5aeb560e01b815260040160405180910390fd5b6002600055565b6001600160a01b038216610d4b5760405163ec442f0560e01b815260006004820152602401610339565b610d5760008383610eba565b5050565b610d688383836001610fe4565b505050565b6001600160a01b0383811660009081526002602090815260408083209386168352929052205460001981146105de5781811015610dd657604051637dc7a0d960e11b81526001600160a01b03841660048201526024810182905260448101839052606401610339565b6105de84848484036000610fe4565b6001600160a01b038316610e0f57604051634b637e8f60e11b815260006004820152602401610339565b6001600160a01b038216610e395760405163ec442f0560e01b815260006004820152602401610339565b610d68838383610eba565b600080610e5d6103e8610e5786866110b9565b906110ef565b949350505050565b600082821115610e7757610e77611489565b610e818284611447565b9392505050565b6001600160a01b038216610eb257604051634b637e8f60e11b815260006004820152602401610339565b610d57826000835b6001600160a01b038316610ee5578060036000828254610eda9190611364565b90915550610f579050565b6001600160a01b03831660009081526001602052604090205481811015610f385760405163391434e360e21b81526001600160a01b03851660048201526024810182905260448101839052606401610339565b6001600160a01b03841660009081526001602052604090209082900390555b6001600160a01b038216610f7357600380548290039055610f92565b6001600160a01b03821660009081526001602052604090208054820190555b816001600160a01b0316836001600160a01b03167fddf252ad1be2c89b69c2b068fc378daa952ba7f163c4a11628f55a4df523b3ef83604051610fd791815260200190565b60405180910390a3505050565b6001600160a01b03841661100e5760405163e602df0560e01b815260006004820152602401610339565b6001600160a01b03831661103857604051634a1406b160e11b815260006004820152602401610339565b6001600160a01b03808516600090815260026020908152604080832093871683529290522082905580156105de57826001600160a01b0316846001600160a01b03167f8c5be1e5ebec7d5bd14f71427d1e84f3dd0314c0f7b2291e5b200ac8c7c3b925846040516110ab91815260200190565b60405180910390a350505050565b6000826000036110cb5750600061068a565b6110d5828461149f565b9050816110e284836114b6565b1461068a5761068a611489565b6000610e8182846114b6565b6000806000806080858703121561111157600080fd5b5050823594602084013594506040840135936060013592509050565b60006020808352835180602085015260005b8181101561115b5785810183015185820160400152820161113f565b506000604082860101526040601f19601f8301168501019250505092915050565b80356001600160a01b038116811461119357600080fd5b919050565b600080604083850312156111ab57600080fd5b6111b48361117c565b946020939093013593505050565b6000602082840312156111d457600080fd5b5035919050565b6000806000606084860312156111f057600080fd5b6111f98461117c565b92506112076020850161117c565b9150604084013590509250925092565b60006020828403121561122957600080fd5b610e818261117c565b6020808252825182820181905260009190848201906040850190845b8181101561129f5761128c83855180518252602081015160208301526040810151604083015260608101516060830152608081015160808301525050565b9284019260a0929092019160010161124e565b50909695505050505050565b60a0810161068a828480518252602081015160208301526040810151604083015260608101516060830152608081015160808301525050565b600080604083850312156112f757600080fd5b6113008361117c565b915061130e6020840161117c565b90509250929050565b60208082526018908201527f5a65726f2061646472657373206e6f7420616c6c6f7765640000000000000000604082015260600190565b634e487b7160e01b600052601160045260246000fd5b8082018082111561068a5761068a61134e565b60006020828403121561138957600080fd5b5051919050565b6000602082840312156113a257600080fd5b81518015158114610e8157600080fd5b600181811c908216806113c657607f821691505b6020821081036113e657634e487b7160e01b600052602260045260246000fd5b50919050565b60208082526025908201527f4f6e6c7920746865206f776e65722063616e2063616c6c20746869732066756e60408201526431ba34b7b760d91b606082015260800190565b634e487b7160e01b600052603260045260246000fd5b8181038181111561068a5761068a61134e565b634e487b7160e01b600052603160045260246000fd5b6000600182016114825761148261134e565b5060010190565b634e487b7160e01b600052600160045260246000fd5b808202811582820484141761068a5761068a61134e565b6000826114d357634e487b7160e01b600052601260045260246000fd5b50049056fea2646970667358221220668d5bc160b651aa814a01ffcabe6dbf4f916562b3926fb946a716d9151dd3a664736f6c63430008180033",
  "linkReferences": {},
  "deployedLinkReferences": {}
}