{
  "_format": "hh-sol-artifact-1",
  "contractName": "TBillStaking",
  "sourceName": "contracts/TbillVault.sol",
  "abi": [
    {
      "inputs": [
        {
          "internalType": "address",
          "name": "_cUSD",
          "type": "address"
        }
      ],
      "stateMutability": "nonpayable",
      "type": "constructor"
    },
    {
      "inputs": [
        {
          "internalType": "address",
          "name": "spender",
          "type": "address"
        },
        {
          "internalType": "uint256",
          "name": "allowance",
          "type": "uint256"
        },
        {
          "internalType": "uint256",
          "name": "needed",
          "type": "uint256"
        }
      ],
      "name": "ERC20InsufficientAllowance",
      "type": "error"
    },
    {
      "inputs": [
        {
          "internalType": "address",
          "name": "sender",
          "type": "address"
        },
        {
          "internalType": "uint256",
          "name": "balance",
          "type": "uint256"
        },
        {
          "internalType": "uint256",
          "name": "needed",
          "type": "uint256"
        }
      ],
      "name": "ERC20InsufficientBalance",
      "type": "error"
    },
    {
      "inputs": [
        {
          "internalType": "address",
          "name": "approver",
          "type": "address"
        }
      ],
      "name": "ERC20InvalidApprover",
      "type": "error"
    },
    {
      "inputs": [
        {
          "internalType": "address",
          "name": "receiver",
          "type": "address"
        }
      ],
      "name": "ERC20InvalidReceiver",
      "type": "error"
    },
    {
      "inputs": [
        {
          "internalType": "address",
          "name": "sender",
          "type": "address"
        }
      ],
      "name": "ERC20InvalidSender",
      "type": "error"
    },
    {
      "inputs": [
        {
          "internalType": "address",
          "name": "spender",
          "type": "address"
        }
      ],
      "name": "ERC20InvalidSpender",
      "type": "error"
    },
    {
      "inputs": [],
      "name": "ReentrancyGuardReentrantCall",
      "type": "error"
    },
    {
      "anonymous": false,
      "inputs": [
        {
          "indexed": true,
          "internalType": "address",
          "name": "owner",
          "type": "address"
        },
        {
          "indexed": true,
          "internalType": "address",
          "name": "spender",
          "type": "address"
        },
        {
          "indexed": false,
          "internalType": "uint256",
          "name": "value",
          "type": "uint256"
        }
      ],
      "name": "Approval",
      "type": "event"
    },
    {
      "anonymous": false,
      "inputs": [
        {
          "indexed": true,
          "internalType": "address",
          "name": "from",
          "type": "address"
        },
        {
          "indexed": true,
          "internalType": "address",
          "name": "to",
          "type": "address"
        },
        {
          "indexed": false,
          "internalType": "uint256",
          "name": "value",
          "type": "uint256"
        }
      ],
      "name": "Transfer",
      "type": "event"
    },
    {
      "inputs": [
        {
          "internalType": "address",
          "name": "owner",
          "type": "address"
        },
        {
          "internalType": "address",
          "name": "spender",
          "type": "address"
        }
      ],
      "name": "allowance",
      "outputs": [
        {
          "internalType": "uint256",
          "name": "",
          "type": "uint256"
        }
      ],
      "stateMutability": "view",
      "type": "function"
    },
    {
      "inputs": [
        {
          "internalType": "address",
          "name": "spender",
          "type": "address"
        },
        {
          "internalType": "uint256",
          "name": "value",
          "type": "uint256"
        }
      ],
      "name": "approve",
      "outputs": [
        {
          "internalType": "bool",
          "name": "",
          "type": "bool"
        }
      ],
      "stateMutability": "nonpayable",
      "type": "function"
    },
    {
      "inputs": [
        {
          "internalType": "address",
          "name": "account",
          "type": "address"
        }
      ],
      "name": "balanceOf",
      "outputs": [
        {
          "internalType": "uint256",
          "name": "",
          "type": "uint256"
        }
      ],
      "stateMutability": "view",
      "type": "function"
    },
    {
      "inputs": [],
      "name": "cUSD",
      "outputs": [
        {
          "internalType": "contract IERC20",
          "name": "",
          "type": "address"
        }
      ],
      "stateMutability": "view",
      "type": "function"
    },
    {
      "inputs": [],
      "name": "decimals",
      "outputs": [
        {
          "internalType": "uint8",
          "name": "",
          "type": "uint8"
        }
      ],
      "stateMutability": "view",
      "type": "function"
    },
    {
      "inputs": [
        {
          "internalType": "bytes32",
          "name": "_stakeId",
          "type": "bytes32"
        }
      ],
      "name": "getStakeByID",
      "outputs": [
        {
          "components": [
            {
              "internalType": "bytes32",
              "name": "stakeId",
              "type": "bytes32"
            },
            {
              "internalType": "uint256",
              "name": "amount",
              "type": "uint256"
            },
            {
              "internalType": "uint256",
              "name": "maturityValue",
              "type": "uint256"
            },
            {
              "internalType": "uint256",
              "name": "maturityDate",
              "type": "uint256"
            },
            {
              "internalType": "uint256",
              "name": "yield",
              "type": "uint256"
            }
          ],
          "internalType": "struct TBillStaking.Stake",
          "name": "",
          "type": "tuple"
        }
      ],
      "stateMutability": "view",
      "type": "function"
    },
    {
      "inputs": [],
      "name": "getStakes",
      "outputs": [
        {
          "components": [
            {
              "internalType": "bytes32",
              "name": "stakeId",
              "type": "bytes32"
            },
            {
              "internalType": "uint256",
              "name": "amount",
              "type": "uint256"
            },
            {
              "internalType": "uint256",
              "name": "maturityValue",
              "type": "uint256"
            },
            {
              "internalType": "uint256",
              "name": "maturityDate",
              "type": "uint256"
            },
            {
              "internalType": "uint256",
              "name": "yield",
              "type": "uint256"
            }
          ],
          "internalType": "struct TBillStaking.Stake[]",
          "name": "",
          "type": "tuple[]"
        }
      ],
      "stateMutability": "view",
      "type": "function"
    },
    {
      "inputs": [],
      "name": "name",
      "outputs": [
        {
          "internalType": "string",
          "name": "",
          "type": "string"
        }
      ],
      "stateMutability": "view",
      "type": "function"
    },
    {
      "inputs": [],
      "name": "owner",
      "outputs": [
        {
          "internalType": "address",
          "name": "",
          "type": "address"
        }
      ],
      "stateMutability": "view",
      "type": "function"
    },
    {
      "inputs": [],
      "name": "penaltyFee",
      "outputs": [
        {
          "internalType": "uint256",
          "name": "",
          "type": "uint256"
        }
      ],
      "stateMutability": "view",
      "type": "function"
    },
    {
      "inputs": [],
      "name": "serviceFee",
      "outputs": [
        {
          "internalType": "uint256",
          "name": "",
          "type": "uint256"
        }
      ],
      "stateMutability": "view",
      "type": "function"
    },
    {
      "inputs": [
        {
          "internalType": "uint256",
          "name": "_fee",
          "type": "uint256"
        }
      ],
      "name": "setPenaltyFee",
      "outputs": [],
      "stateMutability": "nonpayable",
      "type": "function"
    },
    {
      "inputs": [
        {
          "internalType": "uint256",
          "name": "_fee",
          "type": "uint256"
        }
      ],
      "name": "setServiceFee",
      "outputs": [],
      "stateMutability": "nonpayable",
      "type": "function"
    },
    {
      "inputs": [
        {
          "internalType": "uint256",
          "name": "_amount",
          "type": "uint256"
        },
        {
          "internalType": "uint256",
          "name": "_yield",
          "type": "uint256"
        },
        {
          "internalType": "uint256",
          "name": "_maturityValue",
          "type": "uint256"
        },
        {
          "internalType": "bytes32",
          "name": "_stakeId",
          "type": "bytes32"
        }
      ],
      "name": "stake",
      "outputs": [],
      "stateMutability": "nonpayable",
      "type": "function"
    },
    {
      "inputs": [],
      "name": "symbol",
      "outputs": [
        {
          "internalType": "string",
          "name": "",
          "type": "string"
        }
      ],
      "stateMutability": "view",
      "type": "function"
    },
    {
      "inputs": [],
      "name": "totalSupply",
      "outputs": [
        {
          "internalType": "uint256",
          "name": "",
          "type": "uint256"
        }
      ],
      "stateMutability": "view",
      "type": "function"
    },
    {
      "inputs": [
        {
          "internalType": "address",
          "name": "to",
          "type": "address"
        },
        {
          "internalType": "uint256",
          "name": "value",
          "type": "uint256"
        }
      ],
      "name": "transfer",
      "outputs": [
        {
          "internalType": "bool",
          "name": "",
          "type": "bool"
        }
      ],
      "stateMutability": "nonpayable",
      "type": "function"
    },
    {
      "inputs": [
        {
          "internalType": "address",
          "name": "from",
          "type": "address"
        },
        {
          "internalType": "address",
          "name": "to",
          "type": "address"
        },
        {
          "internalType": "uint256",
          "name": "value",
          "type": "uint256"
        }
      ],
      "name": "transferFrom",
      "outputs": [
        {
          "internalType": "bool",
          "name": "",
          "type": "bool"
        }
      ],
      "stateMutability": "nonpayable",
      "type": "function"
    },
    {
      "inputs": [
        {
          "internalType": "address",
          "name": "newOwner",
          "type": "address"
        }
      ],
      "name": "transferOwnership",
      "outputs": [],
      "stateMutability": "nonpayable",
      "type": "function"
    },
    {
      "inputs": [
        {
          "internalType": "bytes32",
          "name": "_stakeId",
          "type": "bytes32"
        }
      ],
      "name": "withdraw",
      "outputs": [],
      "stateMutability": "nonpayable",
      "type": "function"
    },
    {
      "inputs": [],
      "name": "withdrawYield",
      "outputs": [],
      "stateMutability": "nonpayable",
      "type": "function"
    }
  ],
  "bytecode": "0x60a060405262093a806080523480156200001857600080fd5b5060405162001b9738038062001b978339810160408190526200003b9162000289565b604080518082018252600b81526a2a2124a626102a37b5b2b760a91b60208083019190915282518084019093526005835264151092531360da1b9083015260016000559060046200008d838262000362565b5060056200009c828262000362565b505050620000d633620000b46200010f60201b60201c565b620000c190600a62000543565b620000d090620f424062000554565b62000114565b600680546001600160a01b039092166001600160a01b031992831617905560078054909116331790556003600855600560095562000584565b601290565b6001600160a01b038216620001445760405163ec442f0560e01b8152600060048201526024015b60405180910390fd5b620001526000838362000156565b5050565b6001600160a01b038316620001855780600360008282546200017991906200056e565b90915550620001f99050565b6001600160a01b03831660009081526001602052604090205481811015620001da5760405163391434e360e21b81526001600160a01b038516600482015260248101829052604481018390526064016200013b565b6001600160a01b03841660009081526001602052604090209082900390555b6001600160a01b038216620002175760038054829003905562000236565b6001600160a01b03821660009081526001602052604090208054820190555b816001600160a01b0316836001600160a01b03167fddf252ad1be2c89b69c2b068fc378daa952ba7f163c4a11628f55a4df523b3ef836040516200027c91815260200190565b60405180910390a3505050565b6000602082840312156200029c57600080fd5b81516001600160a01b0381168114620002b457600080fd5b9392505050565b634e487b7160e01b600052604160045260246000fd5b600181811c90821680620002e657607f821691505b6020821081036200030757634e487b7160e01b600052602260045260246000fd5b50919050565b601f8211156200035d576000816000526020600020601f850160051c81016020861015620003385750805b601f850160051c820191505b81811015620003595782815560010162000344565b5050505b505050565b81516001600160401b038111156200037e576200037e620002bb565b62000396816200038f8454620002d1565b846200030d565b602080601f831160018114620003ce5760008415620003b55750858301515b600019600386901b1c1916600185901b17855562000359565b600085815260208120601f198616915b82811015620003ff57888601518255948401946001909101908401620003de565b50858210156200041e5787850151600019600388901b60f8161c191681555b5050505050600190811b01905550565b634e487b7160e01b600052601160045260246000fd5b600181815b80851115620004855781600019048211156200046957620004696200042e565b808516156200047757918102915b93841c939080029062000449565b509250929050565b6000826200049e575060016200053d565b81620004ad575060006200053d565b8160018114620004c65760028114620004d157620004f1565b60019150506200053d565b60ff841115620004e557620004e56200042e565b50506001821b6200053d565b5060208310610133831016604e8410600b841016171562000516575081810a6200053d565b62000522838362000444565b80600019048211156200053957620005396200042e565b0290505b92915050565b6000620002b460ff8416836200048d565b80820281158282048414176200053d576200053d6200042e565b808201808211156200053d576200053d6200042e565b6080516115f7620005a060003960006103b101526115f76000f3fe608060405234801561001057600080fd5b50600436106101375760003560e01c806370a08231116100b85780639e5fecbc1161007c5780639e5fecbc14610280578063a9059cbb146102a0578063dd62ed3e146102b3578063df4b4776146102ec578063e507a8a414610301578063f2fde38b1461030957600080fd5b806370a08231146102205780638abdf5aa146102495780638da5cb5b146102525780638e19899e1461026557806395d89b411461027857600080fd5b80631fccf672116100ff5780631fccf672146101b757806323b872dd146101e2578063313ce567146101f55780633dc10ad4146102045780635cdf76f81461020d57600080fd5b80630479bc321461013c57806306fdde0314610151578063095ea7b31461016f57806310c4f4341461019257806318160ddd146101a5575b600080fd5b61014f61014a3660046111b6565b61031c565b005b6101596105c5565b60405161016691906111e8565b60405180910390f35b61018261017d366004611253565b610657565b6040519015158152602001610166565b61014f6101a036600461127d565b610671565b6003545b604051908152602001610166565b6006546101ca906001600160a01b031681565b6040516001600160a01b039091168152602001610166565b6101826101f0366004611296565b6106a0565b60405160128152602001610166565b6101a960095481565b61014f61021b36600461127d565b6106c4565b6101a961022e3660046112d2565b6001600160a01b031660009081526001602052604090205490565b6101a960085481565b6007546101ca906001600160a01b031681565b61014f61027336600461127d565b6106f3565b6101596109ee565b61029361028e36600461127d565b6109fd565b60405161016691906112ed565b6101826102ae366004611253565b610b93565b6101a96102c1366004611326565b6001600160a01b03918216600090815260026020908152604080832093909416825291909152205490565b6102f4610ba1565b6040516101669190611359565b61014f610c3d565b61014f6103173660046112d2565b610d66565b610324610db2565b3361034a5760405162461bcd60e51b8152600401610341906113d2565b60405180910390fd5b600084116103a95760405162461bcd60e51b815260206004820152602660248201527f5374616b6520616d6f756e74206d7573742062652067726561746572207468616044820152656e207a65726f60d01b6064820152608401610341565b4260006103d67f00000000000000000000000000000000000000000000000000000000000000008361141f565b600654604051636eb1769f60e11b81523360048201523060248201529192506000916001600160a01b039091169063dd62ed3e90604401602060405180830381865afa15801561042a573d6000803e3d6000fd5b505050506040513d601f19601f8201168201806040525081019061044e9190611432565b9050868110156104a05760405162461bcd60e51b815260206004820152601b60248201527f496e73756666696369656e74206355534420616c6c6f77616e636500000000006044820152606401610341565b6006546040516323b872dd60e01b8152336004820152306024820152604481018990526001600160a01b03909116906323b872dd906064016020604051808303816000875af11580156104f7573d6000803e3d6000fd5b505050506040513d601f19601f8201168201806040525081019061051b919061144b565b6105375760405162461bcd60e51b81526004016103419061146d565b6040805160a08101825285815260208082018a815282840189815260608401878152608085018c8152336000818152600a8752978820805460018181018355918a52969098208751600590970201958655935196850196909655905160028401555160038301559251600490910155906105b19087610ddc565b505050506105bf6001600055565b50505050565b6060600480546105d49061149b565b80601f01602080910402602001604051908101604052809291908181526020018280546106009061149b565b801561064d5780601f106106225761010080835404028352916020019161064d565b820191906000526020600020905b81548152906001019060200180831161063057829003601f168201915b5050505050905090565b600033610665818585610e16565b60019150505b92915050565b6007546001600160a01b0316331461069b5760405162461bcd60e51b8152600401610341906114d5565b600955565b6000336106ae858285610e28565b6106b9858585610ea0565b506001949350505050565b6007546001600160a01b031633146106ee5760405162461bcd60e51b8152600401610341906114d5565b600855565b6106fb610db2565b336107185760405162461bcd60e51b8152600401610341906113d2565b336000908152600a60205260409020805461076d5760405162461bcd60e51b81526020600482015260156024820152744e6f207374616b657320746f20776974686472617760581b6044820152606401610341565b60005b81548110156109df57600082828154811061078d5761078d61151a565b90600052602060002090600502019050838160000154146107fc5760405162461bcd60e51b815260206004820152602360248201527f5374616b652077697468204944206e6f7420666f756e6420746f20776974686460448201526272617760e81b6064820152608401610341565b6000428260030154111561081d5761081a8260020154600954610eff565b90505b600061082f8360020154600854610eff565b905060006108548361084e848760020154610f2090919063ffffffff16565b90610f20565b9050610864338560020154610f43565b855460009061087590600190611530565b90508086146108f4578681815481106108905761089061151a565b90600052602060002090600502018787815481106108b0576108b061151a565b906000526020600020906005020160008201548160000155600182015481600101556002820154816002015560038201548160030155600482015481600401559050505b8680548061090457610904611543565b60008281526020812060056000199390930192830201818155600181018290556002810182905560038101829055600490810191909155915560065460405163a9059cbb60e01b81523392810192909252602482018490526001600160a01b03169063a9059cbb906044016020604051808303816000875af115801561098e573d6000803e3d6000fd5b505050506040513d601f19601f820116820180604052508101906109b2919061144b565b6109ce5760405162461bcd60e51b81526004016103419061146d565b505060019093019250610770915050565b50506109eb6001600055565b50565b6060600580546105d49061149b565b610a326040518060a0016040528060008019168152602001600081526020016000815260200160008152602001600081525090565b33610a4f5760405162461bcd60e51b8152600401610341906113d2565b336000908152600a602052604090208054610aa45760405162461bcd60e51b81526020600482015260156024820152744e6f207374616b657320746f20776974686472617760581b6044820152606401610341565b60005a905060005b825481108015610abd575061520882115b15610b4a576000838281548110610ad657610ad661151a565b9060005260206000209060050201905085816000015403610b33576040805160a081018252825481526001830154602082015260028301549181019190915260038201546060820152600490910154608082015295945050505050565b5a9250508080610b4290611559565b915050610aac565b5060405162461bcd60e51b815260206004820152601760248201527f5374616b652077697468204944206e6f7420666f756e640000000000000000006044820152606401610341565b600033610665818585610ea0565b336000908152600a60209081526040808320805482518185028101850190935280835260609492939192909184015b82821015610c3457838290600052602060002090600502016040518060a00160405290816000820154815260200160018201548152602001600282015481526020016003820154815260200160048201548152505081526020019060010190610bd0565b50505050905090565b6007546001600160a01b03163314610c675760405162461bcd60e51b8152600401610341906114d5565b6006546040516370a0823160e01b81523060048201526000916001600160a01b0316906370a0823190602401602060405180830381865afa158015610cb0573d6000803e3d6000fd5b505050506040513d601f19601f82011682018060405250810190610cd49190611432565b60065460405163a9059cbb60e01b8152336004820152602481018390529192506001600160a01b03169063a9059cbb906044016020604051808303816000875af1158015610d26573d6000803e3d6000fd5b505050506040513d601f19601f82011682018060405250810190610d4a919061144b565b6109eb5760405162461bcd60e51b81526004016103419061146d565b6007546001600160a01b03163314610d905760405162461bcd60e51b8152600401610341906114d5565b600780546001600160a01b0319166001600160a01b0392909216919091179055565b600260005403610dd557604051633ee5aeb560e01b815260040160405180910390fd5b6002600055565b6001600160a01b038216610e065760405163ec442f0560e01b815260006004820152602401610341565b610e1260008383610f75565b5050565b610e23838383600161109f565b505050565b6001600160a01b0383811660009081526002602090815260408083209386168352929052205460001981146105bf5781811015610e9157604051637dc7a0d960e11b81526001600160a01b03841660048201526024810182905260448101839052606401610341565b6105bf8484848403600061109f565b6001600160a01b038316610eca57604051634b637e8f60e11b815260006004820152602401610341565b6001600160a01b038216610ef45760405163ec442f0560e01b815260006004820152602401610341565b610e23838383610f75565b600080610f186103e8610f128686611174565b906111aa565b949350505050565b600082821115610f3257610f32611572565b610f3c8284611530565b9392505050565b6001600160a01b038216610f6d57604051634b637e8f60e11b815260006004820152602401610341565b610e12826000835b6001600160a01b038316610fa0578060036000828254610f95919061141f565b909155506110129050565b6001600160a01b03831660009081526001602052604090205481811015610ff35760405163391434e360e21b81526001600160a01b03851660048201526024810182905260448101839052606401610341565b6001600160a01b03841660009081526001602052604090209082900390555b6001600160a01b03821661102e5760038054829003905561104d565b6001600160a01b03821660009081526001602052604090208054820190555b816001600160a01b0316836001600160a01b03167fddf252ad1be2c89b69c2b068fc378daa952ba7f163c4a11628f55a4df523b3ef8360405161109291815260200190565b60405180910390a3505050565b6001600160a01b0384166110c95760405163e602df0560e01b815260006004820152602401610341565b6001600160a01b0383166110f357604051634a1406b160e11b815260006004820152602401610341565b6001600160a01b03808516600090815260026020908152604080832093871683529290522082905580156105bf57826001600160a01b0316846001600160a01b03167f8c5be1e5ebec7d5bd14f71427d1e84f3dd0314c0f7b2291e5b200ac8c7c3b9258460405161116691815260200190565b60405180910390a350505050565b6000826000036111865750600061066b565b6111908284611588565b90508161119d848361159f565b1461066b5761066b611572565b6000610f3c828461159f565b600080600080608085870312156111cc57600080fd5b5050823594602084013594506040840135936060013592509050565b60006020808352835180602085015260005b81811015611216578581018301518582016040015282016111fa565b506000604082860101526040601f19601f8301168501019250505092915050565b80356001600160a01b038116811461124e57600080fd5b919050565b6000806040838503121561126657600080fd5b61126f83611237565b946020939093013593505050565b60006020828403121561128f57600080fd5b5035919050565b6000806000606084860312156112ab57600080fd5b6112b484611237565b92506112c260208501611237565b9150604084013590509250925092565b6000602082840312156112e457600080fd5b610f3c82611237565b60a0810161066b828480518252602081015160208301526040810151604083015260608101516060830152608081015160808301525050565b6000806040838503121561133957600080fd5b61134283611237565b915061135060208401611237565b90509250929050565b6020808252825182820181905260009190848201906040850190845b818110156113c6576113b383855180518252602081015160208301526040810151604083015260608101516060830152608081015160808301525050565b9284019260a09290920191600101611375565b50909695505050505050565b60208082526018908201527f5a65726f2061646472657373206e6f7420616c6c6f7765640000000000000000604082015260600190565b634e487b7160e01b600052601160045260246000fd5b8082018082111561066b5761066b611409565b60006020828403121561144457600080fd5b5051919050565b60006020828403121561145d57600080fd5b81518015158114610f3c57600080fd5b60208082526014908201527318d554d1081d1c985b9cd9995c8819985a5b195960621b604082015260600190565b600181811c908216806114af57607f821691505b6020821081036114cf57634e487b7160e01b600052602260045260246000fd5b50919050565b60208082526025908201527f4f6e6c7920746865206f776e65722063616e2063616c6c20746869732066756e60408201526431ba34b7b760d91b606082015260800190565b634e487b7160e01b600052603260045260246000fd5b8181038181111561066b5761066b611409565b634e487b7160e01b600052603160045260246000fd5b60006001820161156b5761156b611409565b5060010190565b634e487b7160e01b600052600160045260246000fd5b808202811582820484141761066b5761066b611409565b6000826115bc57634e487b7160e01b600052601260045260246000fd5b50049056fea26469706673582212200ac3f34b1ac771076e3aad20987fd90c958f269d676c9dfabb033bdf9bf8416f64736f6c63430008180033",
  "linkReferences": {},
  "deployedLinkReferences": {}
}