{
  "_format": "hh-sol-artifact-1",
  "contractName": "TbillVault",
  "sourceName": "contracts/TbillVault.sol",
  "abi": [
    {
      "inputs": [
        {
          "internalType": "address",
          "name": "_tbillToken",
          "type": "address"
        },
        {
          "internalType": "address",
          "name": "_cUSDToken",
          "type": "address"
        }
      ],
      "stateMutability": "nonpayable",
      "type": "constructor"
    },
    {
      "inputs": [],
      "name": "ReentrancyGuardReentrantCall",
      "type": "error"
    },
    {
      "anonymous": false,
      "inputs": [
        {
          "indexed": true,
          "internalType": "address",
          "name": "owner",
          "type": "address"
        },
        {
          "indexed": true,
          "internalType": "address",
          "name": "spender",
          "type": "address"
        },
        {
          "indexed": false,
          "internalType": "uint256",
          "name": "value",
          "type": "uint256"
        }
      ],
      "name": "Approval",
      "type": "event"
    },
    {
      "anonymous": false,
      "inputs": [
        {
          "indexed": true,
          "internalType": "address",
          "name": "account",
          "type": "address"
        },
        {
          "indexed": false,
          "internalType": "uint256",
          "name": "amount",
          "type": "uint256"
        },
        {
          "indexed": false,
          "internalType": "uint256",
          "name": "liquidityTokens",
          "type": "uint256"
        },
        {
          "indexed": false,
          "internalType": "uint256",
          "name": "stakingTokensMinted",
          "type": "uint256"
        }
      ],
      "name": "Staked",
      "type": "event"
    },
    {
      "anonymous": false,
      "inputs": [
        {
          "indexed": true,
          "internalType": "address",
          "name": "account",
          "type": "address"
        },
        {
          "indexed": false,
          "internalType": "uint256",
          "name": "amount",
          "type": "uint256"
        },
        {
          "indexed": false,
          "internalType": "uint256",
          "name": "liquidityTokens",
          "type": "uint256"
        },
        {
          "indexed": false,
          "internalType": "uint256",
          "name": "stakingTokensBurned",
          "type": "uint256"
        },
        {
          "indexed": false,
          "internalType": "uint256",
          "name": "yieldEarned",
          "type": "uint256"
        }
      ],
      "name": "Withdrawn",
      "type": "event"
    },
    {
      "anonymous": false,
      "inputs": [
        {
          "indexed": false,
          "internalType": "uint256",
          "name": "newRate",
          "type": "uint256"
        }
      ],
      "name": "YieldUpdated",
      "type": "event"
    },
    {
      "inputs": [
        {
          "internalType": "address",
          "name": "",
          "type": "address"
        },
        {
          "internalType": "address",
          "name": "",
          "type": "address"
        }
      ],
      "name": "allowances",
      "outputs": [
        {
          "internalType": "uint256",
          "name": "",
          "type": "uint256"
        }
      ],
      "stateMutability": "view",
      "type": "function"
    },
    {
      "inputs": [
        {
          "internalType": "address",
          "name": "spender",
          "type": "address"
        },
        {
          "internalType": "uint256",
          "name": "amount",
          "type": "uint256"
        }
      ],
      "name": "approve",
      "outputs": [
        {
          "internalType": "bool",
          "name": "",
          "type": "bool"
        }
      ],
      "stateMutability": "nonpayable",
      "type": "function"
    },
    {
      "inputs": [],
      "name": "cToken",
      "outputs": [
        {
          "internalType": "uint256",
          "name": "",
          "type": "uint256"
        }
      ],
      "stateMutability": "view",
      "type": "function"
    },
    {
      "inputs": [],
      "name": "liquidityToken",
      "outputs": [
        {
          "internalType": "uint256",
          "name": "",
          "type": "uint256"
        }
      ],
      "stateMutability": "view",
      "type": "function"
    },
    {
      "inputs": [],
      "name": "maturityDuration",
      "outputs": [
        {
          "internalType": "uint256",
          "name": "",
          "type": "uint256"
        }
      ],
      "stateMutability": "view",
      "type": "function"
    },
    {
      "inputs": [],
      "name": "owner",
      "outputs": [
        {
          "internalType": "address",
          "name": "",
          "type": "address"
        }
      ],
      "stateMutability": "view",
      "type": "function"
    },
    {
      "inputs": [
        {
          "internalType": "uint256",
          "name": "amount",
          "type": "uint256"
        }
      ],
      "name": "stake",
      "outputs": [],
      "stateMutability": "payable",
      "type": "function"
    },
    {
      "inputs": [
        {
          "internalType": "uint256",
          "name": "",
          "type": "uint256"
        }
      ],
      "name": "stakerAddresses",
      "outputs": [
        {
          "internalType": "address",
          "name": "",
          "type": "address"
        }
      ],
      "stateMutability": "view",
      "type": "function"
    },
    {
      "inputs": [
        {
          "internalType": "address",
          "name": "",
          "type": "address"
        }
      ],
      "name": "stakers",
      "outputs": [
        {
          "internalType": "uint256",
          "name": "stakedAmount",
          "type": "uint256"
        },
        {
          "internalType": "uint256",
          "name": "yieldEarned",
          "type": "uint256"
        },
        {
          "internalType": "uint256",
          "name": "lastYieldUpdate",
          "type": "uint256"
        },
        {
          "internalType": "uint256",
          "name": "liquidityToken",
          "type": "uint256"
        }
      ],
      "stateMutability": "view",
      "type": "function"
    },
    {
      "inputs": [
        {
          "internalType": "address",
          "name": "sender",
          "type": "address"
        },
        {
          "internalType": "address",
          "name": "recipient",
          "type": "address"
        },
        {
          "internalType": "uint256",
          "name": "amount",
          "type": "uint256"
        }
      ],
      "name": "transferFrom",
      "outputs": [
        {
          "internalType": "bool",
          "name": "",
          "type": "bool"
        }
      ],
      "stateMutability": "nonpayable",
      "type": "function"
    },
    {
      "inputs": [
        {
          "internalType": "address",
          "name": "",
          "type": "address"
        }
      ],
      "name": "userDeposits",
      "outputs": [
        {
          "internalType": "uint256",
          "name": "",
          "type": "uint256"
        }
      ],
      "stateMutability": "view",
      "type": "function"
    },
    {
      "inputs": [
        {
          "internalType": "uint256",
          "name": "amount",
          "type": "uint256"
        }
      ],
      "name": "withdraw",
      "outputs": [],
      "stateMutability": "nonpayable",
      "type": "function"
    },
    {
      "inputs": [],
      "name": "yieldRate",
      "outputs": [
        {
          "internalType": "uint256",
          "name": "",
          "type": "uint256"
        }
      ],
      "stateMutability": "view",
      "type": "function"
    }
  ],
  "bytecode": "0x608060405266b1a2bc2ec500006006553480156200001c57600080fd5b5060405162001b1c38038062001b1c83398181016040528101906200004291906200017f565b600160008190555081600160006101000a81548173ffffffffffffffffffffffffffffffffffffffff021916908373ffffffffffffffffffffffffffffffffffffffff16021790555080600360006101000a81548173ffffffffffffffffffffffffffffffffffffffff021916908373ffffffffffffffffffffffffffffffffffffffff16021790555033600260006101000a81548173ffffffffffffffffffffffffffffffffffffffff021916908373ffffffffffffffffffffffffffffffffffffffff1602179055505050620001c6565b600080fd5b600073ffffffffffffffffffffffffffffffffffffffff82169050919050565b600062000147826200011a565b9050919050565b62000159816200013a565b81146200016557600080fd5b50565b60008151905062000179816200014e565b92915050565b6000806040838503121562000199576200019862000115565b5b6000620001a98582860162000168565b9250506020620001bc8582860162000168565b9150509250929050565b61194680620001d66000396000f3fe6080604052600436106100c25760003560e01c8063459598a21161007f57806369e527da1161005957806369e527da146102a25780638da5cb5b146102cd5780639168ae72146102f8578063a694fc3a14610338576100c2565b8063459598a2146101fd57806355b6ed5c1461023a5780636999ac9314610277576100c2565b8063063513b7146100c7578063095ea7b3146100f25780630ba36dcd1461012f57806323b872dd1461016c5780632e1a7d4d146101a957806343cd8f7e146101d2575b600080fd5b3480156100d357600080fd5b506100dc610354565b6040516100e99190610fb3565b60405180910390f35b3480156100fe57600080fd5b506101196004803603810190610114919061105d565b61035b565b60405161012691906110b8565b60405180910390f35b34801561013b57600080fd5b50610156600480360381019061015191906110d3565b61044d565b6040516101639190610fb3565b60405180910390f35b34801561017857600080fd5b50610193600480360381019061018e9190611100565b610465565b6040516101a091906110b8565b60405180910390f35b3480156101b557600080fd5b506101d060048036038101906101cb9190611153565b6105cf565b005b3480156101de57600080fd5b506101e7610897565b6040516101f49190610fb3565b60405180910390f35b34801561020957600080fd5b50610224600480360381019061021f9190611153565b61089d565b604051610231919061118f565b60405180910390f35b34801561024657600080fd5b50610261600480360381019061025c91906111aa565b6108dc565b60405161026e9190610fb3565b60405180910390f35b34801561028357600080fd5b5061028c610901565b6040516102999190610fb3565b60405180910390f35b3480156102ae57600080fd5b506102b7610907565b6040516102c49190610fb3565b60405180910390f35b3480156102d957600080fd5b506102e261090d565b6040516102ef919061118f565b60405180910390f35b34801561030457600080fd5b5061031f600480360381019061031a91906110d3565b610933565b60405161032f94939291906111ea565b60405180910390f35b610352600480360381019061034d9190611153565b610963565b005b62278d0081565b600081600960003373ffffffffffffffffffffffffffffffffffffffff1673ffffffffffffffffffffffffffffffffffffffff16815260200190815260200160002060008573ffffffffffffffffffffffffffffffffffffffff1673ffffffffffffffffffffffffffffffffffffffff168152602001908152602001600020819055508273ffffffffffffffffffffffffffffffffffffffff163373ffffffffffffffffffffffffffffffffffffffff167f8c5be1e5ebec7d5bd14f71427d1e84f3dd0314c0f7b2291e5b200ac8c7c3b9258460405161043b9190610fb3565b60405180910390a36001905092915050565b60076020528060005260406000206000915090505481565b600081600960008673ffffffffffffffffffffffffffffffffffffffff1673ffffffffffffffffffffffffffffffffffffffff16815260200190815260200160002060003373ffffffffffffffffffffffffffffffffffffffff1673ffffffffffffffffffffffffffffffffffffffff168152602001908152602001600020541015610526576040517f08c379a000000000000000000000000000000000000000000000000000000000815260040161051d9061128c565b60405180910390fd5b81600960008673ffffffffffffffffffffffffffffffffffffffff1673ffffffffffffffffffffffffffffffffffffffff16815260200190815260200160002060003373ffffffffffffffffffffffffffffffffffffffff1673ffffffffffffffffffffffffffffffffffffffff16815260200190815260200160002060008282546105b291906112db565b925050819055506105c4848484610c3e565b600190509392505050565b6105d7610ea6565b6000811161061a576040517f08c379a000000000000000000000000000000000000000000000000000000000815260040161061190611381565b60405180910390fd5b80600860003373ffffffffffffffffffffffffffffffffffffffff1673ffffffffffffffffffffffffffffffffffffffff16815260200190815260200160002060000154101561069f576040517f08c379a0000000000000000000000000000000000000000000000000000000008152600401610696906113ed565b60405180910390fd5b6000600860003373ffffffffffffffffffffffffffffffffffffffff1673ffffffffffffffffffffffffffffffffffffffff168152602001908152602001600020905060006106f682600001548360020154610eec565b90506000839050610714848460000154610f4290919063ffffffff16565b83600001819055506000828261072a919061140d565b9050610743838560010154610f6990919063ffffffff16565b8460010181905550428460020181905550600360009054906101000a900473ffffffffffffffffffffffffffffffffffffffff1673ffffffffffffffffffffffffffffffffffffffff1663a9059cbb33836040518363ffffffff1660e01b81526004016107b1929190611441565b6020604051808303816000875af11580156107d0573d6000803e3d6000fd5b505050506040513d601f19601f820116820180604052508101906107f49190611496565b610833576040517f08c379a000000000000000000000000000000000000000000000000000000000815260040161082a9061150f565b60405180910390fd5b3373ffffffffffffffffffffffffffffffffffffffff167f94ffd6b85c71b847775c89ef6496b93cee961bdc6ff827fd117f174f06f745ae83600085876040516108809493929190611574565b60405180910390a250505050610894610f90565b50565b60055481565b600a81815481106108ad57600080fd5b906000526020600020016000915054906101000a900473ffffffffffffffffffffffffffffffffffffffff1681565b6009602052816000526040600020602052806000526040600020600091509150505481565b60065481565b60045481565b600260009054906101000a900473ffffffffffffffffffffffffffffffffffffffff1681565b60086020528060005260406000206000915090508060000154908060010154908060020154908060030154905084565b61096b610ea6565b600081116109ae576040517f08c379a00000000000000000000000000000000000000000000000000000000081526004016109a59061162b565b60405180910390fd5b600360009054906101000a900473ffffffffffffffffffffffffffffffffffffffff1673ffffffffffffffffffffffffffffffffffffffff166323b872dd3330846040518463ffffffff1660e01b8152600401610a0d9392919061164b565b6020604051808303816000875af1158015610a2c573d6000803e3d6000fd5b505050506040513d601f19601f82011682018060405250810190610a509190611496565b610a8f576040517f08c379a0000000000000000000000000000000000000000000000000000000008152600401610a869061150f565b60405180910390fd5b6000600860003373ffffffffffffffffffffffffffffffffffffffff1673ffffffffffffffffffffffffffffffffffffffff1681526020019081526020016000209050610ae9828260000154610f6990919063ffffffff16565b816000018190555042816002018190555081600760003373ffffffffffffffffffffffffffffffffffffffff1673ffffffffffffffffffffffffffffffffffffffff1681526020019081526020016000206000828254610b49919061140d565b92505081905550600160009054906101000a900473ffffffffffffffffffffffffffffffffffffffff1673ffffffffffffffffffffffffffffffffffffffff166340c10f1933846040518363ffffffff1660e01b8152600401610bad929190611441565b600060405180830381600087803b158015610bc757600080fd5b505af1158015610bdb573d6000803e3d6000fd5b505050503373ffffffffffffffffffffffffffffffffffffffff167fb4caaf29adda3eefee3ad552a8e85058589bf834c7466cae4ee58787f70589ed83600085604051610c2a93929190611682565b60405180910390a250610c3b610f90565b50565b600073ffffffffffffffffffffffffffffffffffffffff168373ffffffffffffffffffffffffffffffffffffffff1603610cad576040517f08c379a0000000000000000000000000000000000000000000000000000000008152600401610ca490611705565b60405180910390fd5b600073ffffffffffffffffffffffffffffffffffffffff168273ffffffffffffffffffffffffffffffffffffffff1603610d1c576040517f08c379a0000000000000000000000000000000000000000000000000000000008152600401610d1390611771565b60405180910390fd5b6000600360009054906101000a900473ffffffffffffffffffffffffffffffffffffffff1673ffffffffffffffffffffffffffffffffffffffff166370a08231856040518263ffffffff1660e01b8152600401610d79919061118f565b602060405180830381865afa158015610d96573d6000803e3d6000fd5b505050506040513d601f19601f82011682018060405250810190610dba91906117a6565b905081811015610dff576040517f08c379a0000000000000000000000000000000000000000000000000000000008152600401610df69061181f565b60405180910390fd5b600360009054906101000a900473ffffffffffffffffffffffffffffffffffffffff1673ffffffffffffffffffffffffffffffffffffffff1663a9059cbb84846040518363ffffffff1660e01b8152600401610e5c929190611441565b6020604051808303816000875af1158015610e7b573d6000803e3d6000fd5b505050506040513d601f19601f82011682018060405250810190610e9f9190611496565b5050505050565b600260005403610ee2576040517f3ee5aeb500000000000000000000000000000000000000000000000000000000815260040160405180910390fd5b6002600081905550565b6000808242610efb91906112db565b905062278d008110610f3657620151808160065486610f1a919061183f565b610f24919061183f565b610f2e91906118b0565b915050610f3c565b60009150505b92915050565b600082821115610f5557610f546118e1565b5b8183610f6191906112db565b905092915050565b60008183610f77919061140d565b905082811015610f8a57610f896118e1565b5b92915050565b6001600081905550565b6000819050919050565b610fad81610f9a565b82525050565b6000602082019050610fc86000830184610fa4565b92915050565b600080fd5b600073ffffffffffffffffffffffffffffffffffffffff82169050919050565b6000610ffe82610fd3565b9050919050565b61100e81610ff3565b811461101957600080fd5b50565b60008135905061102b81611005565b92915050565b61103a81610f9a565b811461104557600080fd5b50565b60008135905061105781611031565b92915050565b6000806040838503121561107457611073610fce565b5b60006110828582860161101c565b925050602061109385828601611048565b9150509250929050565b60008115159050919050565b6110b28161109d565b82525050565b60006020820190506110cd60008301846110a9565b92915050565b6000602082840312156110e9576110e8610fce565b5b60006110f78482850161101c565b91505092915050565b60008060006060848603121561111957611118610fce565b5b60006111278682870161101c565b93505060206111388682870161101c565b925050604061114986828701611048565b9150509250925092565b60006020828403121561116957611168610fce565b5b600061117784828501611048565b91505092915050565b61118981610ff3565b82525050565b60006020820190506111a46000830184611180565b92915050565b600080604083850312156111c1576111c0610fce565b5b60006111cf8582860161101c565b92505060206111e08582860161101c565b9150509250929050565b60006080820190506111ff6000830187610fa4565b61120c6020830186610fa4565b6112196040830185610fa4565b6112266060830184610fa4565b95945050505050565b600082825260208201905092915050565b7f496e73756666696369656e7420616c6c6f77616e636500000000000000000000600082015250565b600061127660168361122f565b915061128182611240565b602082019050919050565b600060208201905081810360008301526112a581611269565b9050919050565b7f4e487b7100000000000000000000000000000000000000000000000000000000600052601160045260246000fd5b60006112e682610f9a565b91506112f183610f9a565b9250828203905081811115611309576113086112ac565b5b92915050565b7f5769746864726177616c20616d6f756e74206d7573742062652067726561746560008201527f72207468616e207a65726f000000000000000000000000000000000000000000602082015250565b600061136b602b8361122f565b91506113768261130f565b604082019050919050565b6000602082019050818103600083015261139a8161135e565b9050919050565b7f496e73756666696369656e74207374616b656420616d6f756e74000000000000600082015250565b60006113d7601a8361122f565b91506113e2826113a1565b602082019050919050565b60006020820190508181036000830152611406816113ca565b9050919050565b600061141882610f9a565b915061142383610f9a565b925082820190508082111561143b5761143a6112ac565b5b92915050565b60006040820190506114566000830185611180565b6114636020830184610fa4565b9392505050565b6114738161109d565b811461147e57600080fd5b50565b6000815190506114908161146a565b92915050565b6000602082840312156114ac576114ab610fce565b5b60006114ba84828501611481565b91505092915050565b7f63555344207472616e73666572206661696c6564000000000000000000000000600082015250565b60006114f960148361122f565b9150611504826114c3565b602082019050919050565b60006020820190508181036000830152611528816114ec565b9050919050565b6000819050919050565b6000819050919050565b600061155e6115596115548461152f565b611539565b610f9a565b9050919050565b61156e81611543565b82525050565b60006080820190506115896000830187610fa4565b6115966020830186611565565b6115a36040830185610fa4565b6115b06060830184610fa4565b95945050505050565b7f5374616b6520616d6f756e74206d75737420626520677265617465722074686160008201527f6e207a65726f0000000000000000000000000000000000000000000000000000602082015250565b600061161560268361122f565b9150611620826115b9565b604082019050919050565b6000602082019050818103600083015261164481611608565b9050919050565b60006060820190506116606000830186611180565b61166d6020830185611180565b61167a6040830184610fa4565b949350505050565b60006060820190506116976000830186610fa4565b6116a46020830185611565565b6116b16040830184610fa4565b949350505050565b7f5472616e736665722066726f6d20746865207a65726f20616464726573730000600082015250565b60006116ef601e8361122f565b91506116fa826116b9565b602082019050919050565b6000602082019050818103600083015261171e816116e2565b9050919050565b7f5472616e7366657220746f20746865207a65726f206164647265737300000000600082015250565b600061175b601c8361122f565b915061176682611725565b602082019050919050565b6000602082019050818103600083015261178a8161174e565b9050919050565b6000815190506117a081611031565b92915050565b6000602082840312156117bc576117bb610fce565b5b60006117ca84828501611791565b91505092915050565b7f496e73756666696369656e742062616c616e6365000000000000000000000000600082015250565b600061180960148361122f565b9150611814826117d3565b602082019050919050565b60006020820190508181036000830152611838816117fc565b9050919050565b600061184a82610f9a565b915061185583610f9a565b925082820261186381610f9a565b9150828204841483151761187a576118796112ac565b5b5092915050565b7f4e487b7100000000000000000000000000000000000000000000000000000000600052601260045260246000fd5b60006118bb82610f9a565b91506118c683610f9a565b9250826118d6576118d5611881565b5b828204905092915050565b7f4e487b7100000000000000000000000000000000000000000000000000000000600052600160045260246000fdfea26469706673582212203a9dbda31598496d0a45471dc00e9b64c61a64db71e1e9550725dd7028ecd9ad64736f6c63430008180033",
  "linkReferences": {},
  "deployedLinkReferences": {}
}