{
  "_format": "hh-sol-artifact-1",
  "contractName": "TBillStaking",
  "sourceName": "contracts/TbillVault.sol",
  "abi": [
    {
      "inputs": [
        {
          "internalType": "address",
          "name": "_cUSD",
          "type": "address"
        }
      ],
      "stateMutability": "nonpayable",
      "type": "constructor"
    },
    {
      "inputs": [
        {
          "internalType": "address",
          "name": "spender",
          "type": "address"
        },
        {
          "internalType": "uint256",
          "name": "allowance",
          "type": "uint256"
        },
        {
          "internalType": "uint256",
          "name": "needed",
          "type": "uint256"
        }
      ],
      "name": "ERC20InsufficientAllowance",
      "type": "error"
    },
    {
      "inputs": [
        {
          "internalType": "address",
          "name": "sender",
          "type": "address"
        },
        {
          "internalType": "uint256",
          "name": "balance",
          "type": "uint256"
        },
        {
          "internalType": "uint256",
          "name": "needed",
          "type": "uint256"
        }
      ],
      "name": "ERC20InsufficientBalance",
      "type": "error"
    },
    {
      "inputs": [
        {
          "internalType": "address",
          "name": "approver",
          "type": "address"
        }
      ],
      "name": "ERC20InvalidApprover",
      "type": "error"
    },
    {
      "inputs": [
        {
          "internalType": "address",
          "name": "receiver",
          "type": "address"
        }
      ],
      "name": "ERC20InvalidReceiver",
      "type": "error"
    },
    {
      "inputs": [
        {
          "internalType": "address",
          "name": "sender",
          "type": "address"
        }
      ],
      "name": "ERC20InvalidSender",
      "type": "error"
    },
    {
      "inputs": [
        {
          "internalType": "address",
          "name": "spender",
          "type": "address"
        }
      ],
      "name": "ERC20InvalidSpender",
      "type": "error"
    },
    {
      "inputs": [],
      "name": "ReentrancyGuardReentrantCall",
      "type": "error"
    },
    {
      "anonymous": false,
      "inputs": [
        {
          "indexed": true,
          "internalType": "address",
          "name": "owner",
          "type": "address"
        },
        {
          "indexed": true,
          "internalType": "address",
          "name": "spender",
          "type": "address"
        },
        {
          "indexed": false,
          "internalType": "uint256",
          "name": "value",
          "type": "uint256"
        }
      ],
      "name": "Approval",
      "type": "event"
    },
    {
      "anonymous": false,
      "inputs": [
        {
          "indexed": false,
          "internalType": "string",
          "name": "stakeID",
          "type": "string"
        },
        {
          "indexed": false,
          "internalType": "uint256",
          "name": "yield",
          "type": "uint256"
        },
        {
          "indexed": false,
          "internalType": "uint256",
          "name": "amount",
          "type": "uint256"
        },
        {
          "indexed": false,
          "internalType": "uint256",
          "name": "maturityValue",
          "type": "uint256"
        },
        {
          "indexed": false,
          "internalType": "address",
          "name": "user",
          "type": "address"
        },
        {
          "indexed": false,
          "internalType": "uint256",
          "name": "maturityDate",
          "type": "uint256"
        }
      ],
      "name": "Staked",
      "type": "event"
    },
    {
      "anonymous": false,
      "inputs": [
        {
          "indexed": true,
          "internalType": "address",
          "name": "from",
          "type": "address"
        },
        {
          "indexed": true,
          "internalType": "address",
          "name": "to",
          "type": "address"
        },
        {
          "indexed": false,
          "internalType": "uint256",
          "name": "value",
          "type": "uint256"
        }
      ],
      "name": "Transfer",
      "type": "event"
    },
    {
      "inputs": [
        {
          "internalType": "address",
          "name": "owner",
          "type": "address"
        },
        {
          "internalType": "address",
          "name": "spender",
          "type": "address"
        }
      ],
      "name": "allowance",
      "outputs": [
        {
          "internalType": "uint256",
          "name": "",
          "type": "uint256"
        }
      ],
      "stateMutability": "view",
      "type": "function"
    },
    {
      "inputs": [
        {
          "internalType": "address",
          "name": "spender",
          "type": "address"
        },
        {
          "internalType": "uint256",
          "name": "value",
          "type": "uint256"
        }
      ],
      "name": "approve",
      "outputs": [
        {
          "internalType": "bool",
          "name": "",
          "type": "bool"
        }
      ],
      "stateMutability": "nonpayable",
      "type": "function"
    },
    {
      "inputs": [
        {
          "internalType": "address",
          "name": "account",
          "type": "address"
        }
      ],
      "name": "balanceOf",
      "outputs": [
        {
          "internalType": "uint256",
          "name": "",
          "type": "uint256"
        }
      ],
      "stateMutability": "view",
      "type": "function"
    },
    {
      "inputs": [],
      "name": "cUSD",
      "outputs": [
        {
          "internalType": "contract IERC20",
          "name": "",
          "type": "address"
        }
      ],
      "stateMutability": "view",
      "type": "function"
    },
    {
      "inputs": [],
      "name": "decimals",
      "outputs": [
        {
          "internalType": "uint8",
          "name": "",
          "type": "uint8"
        }
      ],
      "stateMutability": "view",
      "type": "function"
    },
    {
      "inputs": [
        {
          "internalType": "string",
          "name": "_stakeId",
          "type": "string"
        }
      ],
      "name": "getStakeByID",
      "outputs": [
        {
          "internalType": "string",
          "name": "",
          "type": "string"
        }
      ],
      "stateMutability": "view",
      "type": "function"
    },
    {
      "inputs": [],
      "name": "getStakes",
      "outputs": [
        {
          "components": [
            {
              "internalType": "string",
              "name": "stakeId",
              "type": "string"
            },
            {
              "internalType": "uint256",
              "name": "amount",
              "type": "uint256"
            },
            {
              "internalType": "uint256",
              "name": "maturityValue",
              "type": "uint256"
            },
            {
              "internalType": "uint256",
              "name": "maturityDate",
              "type": "uint256"
            },
            {
              "internalType": "uint256",
              "name": "yield",
              "type": "uint256"
            }
          ],
          "internalType": "struct TBillStaking.Stake[]",
          "name": "",
          "type": "tuple[]"
        }
      ],
      "stateMutability": "view",
      "type": "function"
    },
    {
      "inputs": [],
      "name": "name",
      "outputs": [
        {
          "internalType": "string",
          "name": "",
          "type": "string"
        }
      ],
      "stateMutability": "view",
      "type": "function"
    },
    {
      "inputs": [],
      "name": "owner",
      "outputs": [
        {
          "internalType": "address",
          "name": "",
          "type": "address"
        }
      ],
      "stateMutability": "view",
      "type": "function"
    },
    {
      "inputs": [],
      "name": "penaltyFee",
      "outputs": [
        {
          "internalType": "uint256",
          "name": "",
          "type": "uint256"
        }
      ],
      "stateMutability": "view",
      "type": "function"
    },
    {
      "inputs": [],
      "name": "serviceFee",
      "outputs": [
        {
          "internalType": "uint256",
          "name": "",
          "type": "uint256"
        }
      ],
      "stateMutability": "view",
      "type": "function"
    },
    {
      "inputs": [
        {
          "internalType": "uint256",
          "name": "_fee",
          "type": "uint256"
        }
      ],
      "name": "setPenaltyFee",
      "outputs": [],
      "stateMutability": "nonpayable",
      "type": "function"
    },
    {
      "inputs": [
        {
          "internalType": "uint256",
          "name": "_fee",
          "type": "uint256"
        }
      ],
      "name": "setServiceFee",
      "outputs": [],
      "stateMutability": "nonpayable",
      "type": "function"
    },
    {
      "inputs": [
        {
          "internalType": "uint256",
          "name": "_amount",
          "type": "uint256"
        },
        {
          "internalType": "uint256",
          "name": "_yield",
          "type": "uint256"
        },
        {
          "internalType": "uint256",
          "name": "_maturityValue",
          "type": "uint256"
        },
        {
          "internalType": "string",
          "name": "_stakeId",
          "type": "string"
        },
        {
          "internalType": "uint8",
          "name": "_period",
          "type": "uint8"
        }
      ],
      "name": "stake",
      "outputs": [],
      "stateMutability": "nonpayable",
      "type": "function"
    },
    {
      "inputs": [],
      "name": "symbol",
      "outputs": [
        {
          "internalType": "string",
          "name": "",
          "type": "string"
        }
      ],
      "stateMutability": "view",
      "type": "function"
    },
    {
      "inputs": [],
      "name": "totalSupply",
      "outputs": [
        {
          "internalType": "uint256",
          "name": "",
          "type": "uint256"
        }
      ],
      "stateMutability": "view",
      "type": "function"
    },
    {
      "inputs": [
        {
          "internalType": "address",
          "name": "to",
          "type": "address"
        },
        {
          "internalType": "uint256",
          "name": "value",
          "type": "uint256"
        }
      ],
      "name": "transfer",
      "outputs": [
        {
          "internalType": "bool",
          "name": "",
          "type": "bool"
        }
      ],
      "stateMutability": "nonpayable",
      "type": "function"
    },
    {
      "inputs": [
        {
          "internalType": "address",
          "name": "from",
          "type": "address"
        },
        {
          "internalType": "address",
          "name": "to",
          "type": "address"
        },
        {
          "internalType": "uint256",
          "name": "value",
          "type": "uint256"
        }
      ],
      "name": "transferFrom",
      "outputs": [
        {
          "internalType": "bool",
          "name": "",
          "type": "bool"
        }
      ],
      "stateMutability": "nonpayable",
      "type": "function"
    },
    {
      "inputs": [
        {
          "internalType": "address",
          "name": "newOwner",
          "type": "address"
        }
      ],
      "name": "transferOwnership",
      "outputs": [],
      "stateMutability": "nonpayable",
      "type": "function"
    },
    {
      "inputs": [
        {
          "internalType": "uint8",
          "name": "",
          "type": "uint8"
        }
      ],
      "name": "weekMap",
      "outputs": [
        {
          "internalType": "uint256",
          "name": "",
          "type": "uint256"
        }
      ],
      "stateMutability": "view",
      "type": "function"
    },
    {
      "inputs": [
        {
          "internalType": "string",
          "name": "_stakeId",
          "type": "string"
        }
      ],
      "name": "withdraw",
      "outputs": [],
      "stateMutability": "nonpayable",
      "type": "function"
    },
    {
      "inputs": [],
      "name": "withdrawYield",
      "outputs": [],
      "stateMutability": "nonpayable",
      "type": "function"
    }
  ],
  "bytecode": "0x61010060405262093a806080526224ea0060a052626ebe0060c05262dd7c0060e0523480156200002e57600080fd5b50604051620022573803806200225783398101604081905262000051916200033f565b604080518082018252600b81526a2a2124a626102a37b5b2b760a91b60208083019190915282518084019093526005835264151092531360da1b908301526001600055906004620000a3838262000418565b506005620000b2828262000418565b505050620000ec33620000ca620001c560201b60201c565b620000d790600a620005f9565b620000e690620f42406200060a565b620001ca565b600680546001600160a01b039092166001600160a01b031992831617815560078054909216331790915560036008556005600955608051600a6020527f22e39f61d1e4986b4f116cea9067f62cc77d74dff1780ae9c8b5166d1dd288295560a0517fbbc70db1b6c7afd11e79c0fb0051300458f1a3acb8ee9789d9b6b26c61ad9bc75560c0517fa856840544dc26124927add067d799967eac11be13e14d82cc281ea46fa397595560e0516000919091527f10d9dd018e4cae503383c9f804c1c1603ada5856ee7894375d9b97cd8c8b27db556200063a565b601290565b6001600160a01b038216620001fa5760405163ec442f0560e01b8152600060048201526024015b60405180910390fd5b62000208600083836200020c565b5050565b6001600160a01b0383166200023b5780600360008282546200022f919062000624565b90915550620002af9050565b6001600160a01b03831660009081526001602052604090205481811015620002905760405163391434e360e21b81526001600160a01b03851660048201526024810182905260448101839052606401620001f1565b6001600160a01b03841660009081526001602052604090209082900390555b6001600160a01b038216620002cd57600380548290039055620002ec565b6001600160a01b03821660009081526001602052604090208054820190555b816001600160a01b0316836001600160a01b03167fddf252ad1be2c89b69c2b068fc378daa952ba7f163c4a11628f55a4df523b3ef836040516200033291815260200190565b60405180910390a3505050565b6000602082840312156200035257600080fd5b81516001600160a01b03811681146200036a57600080fd5b9392505050565b634e487b7160e01b600052604160045260246000fd5b600181811c908216806200039c57607f821691505b602082108103620003bd57634e487b7160e01b600052602260045260246000fd5b50919050565b601f82111562000413576000816000526020600020601f850160051c81016020861015620003ee5750805b601f850160051c820191505b818110156200040f57828155600101620003fa565b5050505b505050565b81516001600160401b0381111562000434576200043462000371565b6200044c8162000445845462000387565b84620003c3565b602080601f8311600181146200048457600084156200046b5750858301515b600019600386901b1c1916600185901b1785556200040f565b600085815260208120601f198616915b82811015620004b55788860151825594840194600190910190840162000494565b5085821015620004d45787850151600019600388901b60f8161c191681555b5050505050600190811b01905550565b634e487b7160e01b600052601160045260246000fd5b600181815b808511156200053b5781600019048211156200051f576200051f620004e4565b808516156200052d57918102915b93841c9390800290620004ff565b509250929050565b6000826200055457506001620005f3565b816200056357506000620005f3565b81600181146200057c57600281146200058757620005a7565b6001915050620005f3565b60ff8411156200059b576200059b620004e4565b50506001821b620005f3565b5060208310610133831016604e8410600b8410161715620005cc575081810a620005f3565b620005d88383620004fa565b8060001904821115620005ef57620005ef620004e4565b0290505b92915050565b60006200036a60ff84168362000543565b8082028115828204841417620005f357620005f3620004e4565b80820180821115620005f357620005f3620004e4565b60805160a05160c05160e051611bef6200066860003960005050600050506000505060005050611bef6000f3fe608060405234801561001057600080fd5b50600436106101425760003560e01c806370a08231116100b8578063dd62ed3e1161007c578063dd62ed3e146102ab578063df4b4776146102e4578063e507a8a4146102f9578063f1773a8714610301578063f2fde38b14610314578063f97728751461032757600080fd5b806370a082311461024b5780638abdf5aa146102745780638da5cb5b1461027d57806395d89b4114610290578063a9059cbb1461029857600080fd5b806323b872dd1161010a57806323b872dd146101da5780632f8ec393146101ed578063313ce5671461020d57806331fb67c21461021c5780633dc10ad41461022f5780635cdf76f81461023857600080fd5b806306fdde0314610147578063095ea7b31461016557806310c4f4341461018857806318160ddd1461019d5780631fccf672146101af575b600080fd5b61014f61033a565b60405161015c919061140c565b60405180910390f35b61017861017336600461143b565b6103cc565b604051901515815260200161015c565b61019b610196366004611465565b6103e6565b005b6003545b60405190815260200161015c565b6006546101c2906001600160a01b031681565b6040516001600160a01b03909116815260200161015c565b6101786101e836600461147e565b61041e565b6101a16101fb3660046114cb565b600a6020526000908152604090205481565b6040516012815260200161015c565b61019b61022a366004611589565b610442565b6101a160095481565b61019b610246366004611465565b61078f565b6101a16102593660046115be565b6001600160a01b031660009081526001602052604090205490565b6101a160085481565b6007546101c2906001600160a01b031681565b61014f6107be565b6101786102a636600461143b565b6107cd565b6101a16102b93660046115d9565b6001600160a01b03918216600090815260026020908152604080832093909416825291909152205490565b6102ec6107db565b60405161015c919061160c565b61019b6108ff565b61014f61030f366004611589565b610a28565b61019b6103223660046115be565b610c26565b61019b6103353660046116a3565b610c72565b6060600480546103499061170e565b80601f01602080910402602001604051908101604052809291908181526020018280546103759061170e565b80156103c25780601f10610397576101008083540402835291602001916103c2565b820191906000526020600020905b8154815290600101906020018083116103a557829003601f168201915b5050505050905090565b6000336103da818585610f60565b60019150505b92915050565b6007546001600160a01b031633146104195760405162461bcd60e51b815260040161041090611748565b60405180910390fd5b600955565b60003361042c858285610f72565b610437858585610ff0565b506001949350505050565b61044a61104f565b336104675760405162461bcd60e51b81526004016104109061178d565b336000908152600b6020526040902080546104bc5760405162461bcd60e51b81526020600482015260156024820152744e6f207374616b657320746f20776974686472617760581b6044820152606401610410565b60005b81548110156107805760008282815481106104dc576104dc6117c4565b90600052602060002090600502019050836040516020016104fd91906117da565b60408051601f1981840301815290829052805160209182012091610523918491016117f6565b60405160208183030381529060405280519060200120146105925760405162461bcd60e51b815260206004820152602360248201527f5374616b652077697468204944206e6f7420666f756e6420746f20776974686460448201526272617760e81b6064820152608401610410565b600042826003015411156105b3576105b08260020154600954611079565b90505b60006105c58360020154600854611079565b905060006105ea836105e484876002015461109a90919063ffffffff16565b9061109a565b90506105fa3385600201546110bd565b855460009061060b90600190611882565b905080861461068e57868181548110610626576106266117c4565b9060005260206000209060050201878781548110610646576106466117c4565b600091825260209091206005909102018061066183826118e5565b50600182015481600101556002820154816002015560038201548160030155600482015481600401559050505b8680548061069e5761069e6119c2565b600082815260208120600019909201916005830201906106be828261136e565b506000600182018190556002820181905560038201819055600491820155915560065460405163a9059cbb60e01b81523392810192909252602482018490526001600160a01b03169063a9059cbb906044016020604051808303816000875af115801561072f573d6000803e3d6000fd5b505050506040513d601f19601f8201168201806040525081019061075391906119d8565b61076f5760405162461bcd60e51b8152600401610410906119fa565b5050600190930192506104bf915050565b505061078c6001600055565b50565b6007546001600160a01b031633146107b95760405162461bcd60e51b815260040161041090611748565b600855565b6060600580546103499061170e565b6000336103da818585610ff0565b336000908152600b60209081526040808320805482518185028101850190935280835260609492939192909184015b828210156108f657838290600052602060002090600502016040518060a001604052908160008201805461083d9061170e565b80601f01602080910402602001604051908101604052809291908181526020018280546108699061170e565b80156108b65780601f1061088b576101008083540402835291602001916108b6565b820191906000526020600020905b81548152906001019060200180831161089957829003601f168201915b505050505081526020016001820154815260200160028201548152602001600382015481526020016004820154815250508152602001906001019061080a565b50505050905090565b6007546001600160a01b031633146109295760405162461bcd60e51b815260040161041090611748565b6006546040516370a0823160e01b81523060048201526000916001600160a01b0316906370a0823190602401602060405180830381865afa158015610972573d6000803e3d6000fd5b505050506040513d601f19601f820116820180604052508101906109969190611a28565b60065460405163a9059cbb60e01b8152336004820152602481018390529192506001600160a01b03169063a9059cbb906044016020604051808303816000875af11580156109e8573d6000803e3d6000fd5b505050506040513d601f19601f82011682018060405250810190610a0c91906119d8565b61078c5760405162461bcd60e51b8152600401610410906119fa565b606033610a475760405162461bcd60e51b81526004016104109061178d565b336000908152600b602052604090208054610a9c5760405162461bcd60e51b81526020600482015260156024820152744e6f207374616b657320746f20776974686472617760581b6044820152606401610410565b60005a905060005b825481108015610ab5575061520882115b15610bdd576000838281548110610ace57610ace6117c4565b9060005260206000209060050201905085604051602001610aef91906117da565b60408051601f1981840301815290829052805160209182012091610b15918491016117f6565b6040516020818303038152906040528051906020012003610bc65780548190610b3d9061170e565b80601f0160208091040260200160405190810160405280929190818152602001828054610b699061170e565b8015610bb65780601f10610b8b57610100808354040283529160200191610bb6565b820191906000526020600020905b815481529060010190602001808311610b9957829003601f168201915b5050505050945050505050919050565b5a9250508080610bd590611a41565b915050610aa4565b5060405162461bcd60e51b815260206004820152601760248201527f5374616b652077697468204944206e6f7420666f756e640000000000000000006044820152606401610410565b6007546001600160a01b03163314610c505760405162461bcd60e51b815260040161041090611748565b600780546001600160a01b0319166001600160a01b0392909216919091179055565b610c7a61104f565b33610c975760405162461bcd60e51b81526004016104109061178d565b60008511610cf65760405162461bcd60e51b815260206004820152602660248201527f5374616b6520616d6f756e74206d7573742062652067726561746572207468616044820152656e207a65726f60d01b6064820152608401610410565b60ff81166000908152600a6020526040812054429190610d169083611a5a565b600654604051636eb1769f60e11b81523360048201523060248201529192506000916001600160a01b039091169063dd62ed3e90604401602060405180830381865afa158015610d6a573d6000803e3d6000fd5b505050506040513d601f19601f82011682018060405250810190610d8e9190611a28565b905087811015610de05760405162461bcd60e51b815260206004820152601b60248201527f496e73756666696369656e74206355534420616c6c6f77616e636500000000006044820152606401610410565b6006546040516323b872dd60e01b8152336004820152306024820152604481018a90526001600160a01b03909116906323b872dd906064016020604051808303816000875af1158015610e37573d6000803e3d6000fd5b505050506040513d601f19601f82011682018060405250810190610e5b91906119d8565b610e775760405162461bcd60e51b8152600401610410906119fa565b6040805160a08101825286815260208082018b905281830189905260608201859052608082018a9052336000908152600b8252928320805460018101825590845292208151919283926005909102909101908190610ed59082611a6d565b50602082015181600101556040820151816002015560608201518160030155608082015181600401555050610f0a33886110f7565b7f4460aa14e5ca0eced8a87aed772bb998e899077ee2e3c3b380545553e063c5eb86898b8a3388604051610f4396959493929190611b25565b60405180910390a150505050610f596001600055565b5050505050565b610f6d838383600161112d565b505050565b6001600160a01b038381166000908152600260209081526040808320938616835292905220546000198114610fea5781811015610fdb57604051637dc7a0d960e11b81526001600160a01b03841660048201526024810182905260448101839052606401610410565b610fea8484848403600061112d565b50505050565b6001600160a01b03831661101a57604051634b637e8f60e11b815260006004820152602401610410565b6001600160a01b0382166110445760405163ec442f0560e01b815260006004820152602401610410565b610f6d838383611202565b60026000540361107257604051633ee5aeb560e01b815260040160405180910390fd5b6002600055565b6000806110926103e861108c868661132c565b90611362565b949350505050565b6000828211156110ac576110ac611b6a565b6110b68284611882565b9392505050565b6001600160a01b0382166110e757604051634b637e8f60e11b815260006004820152602401610410565b6110f382600083611202565b5050565b6001600160a01b0382166111215760405163ec442f0560e01b815260006004820152602401610410565b6110f360008383611202565b6001600160a01b0384166111575760405163e602df0560e01b815260006004820152602401610410565b6001600160a01b03831661118157604051634a1406b160e11b815260006004820152602401610410565b6001600160a01b0380851660009081526002602090815260408083209387168352929052208290558015610fea57826001600160a01b0316846001600160a01b03167f8c5be1e5ebec7d5bd14f71427d1e84f3dd0314c0f7b2291e5b200ac8c7c3b925846040516111f491815260200190565b60405180910390a350505050565b6001600160a01b03831661122d5780600360008282546112229190611a5a565b9091555061129f9050565b6001600160a01b038316600090815260016020526040902054818110156112805760405163391434e360e21b81526001600160a01b03851660048201526024810182905260448101839052606401610410565b6001600160a01b03841660009081526001602052604090209082900390555b6001600160a01b0382166112bb576003805482900390556112da565b6001600160a01b03821660009081526001602052604090208054820190555b816001600160a01b0316836001600160a01b03167fddf252ad1be2c89b69c2b068fc378daa952ba7f163c4a11628f55a4df523b3ef8360405161131f91815260200190565b60405180910390a3505050565b60008260000361133e575060006103e0565b6113488284611b80565b9050816113558483611b97565b146103e0576103e0611b6a565b60006110b68284611b97565b50805461137a9061170e565b6000825580601f1061138a575050565b601f01602090049060005260206000209081019061078c91905b808211156113b857600081556001016113a4565b5090565b60005b838110156113d75781810151838201526020016113bf565b50506000910152565b600081518084526113f88160208601602086016113bc565b601f01601f19169290920160200192915050565b6020815260006110b660208301846113e0565b80356001600160a01b038116811461143657600080fd5b919050565b6000806040838503121561144e57600080fd5b6114578361141f565b946020939093013593505050565b60006020828403121561147757600080fd5b5035919050565b60008060006060848603121561149357600080fd5b61149c8461141f565b92506114aa6020850161141f565b9150604084013590509250925092565b803560ff8116811461143657600080fd5b6000602082840312156114dd57600080fd5b6110b6826114ba565b634e487b7160e01b600052604160045260246000fd5b600082601f83011261150d57600080fd5b813567ffffffffffffffff80821115611528576115286114e6565b604051601f8301601f19908116603f01168101908282118183101715611550576115506114e6565b8160405283815286602085880101111561156957600080fd5b836020870160208301376000602085830101528094505050505092915050565b60006020828403121561159b57600080fd5b813567ffffffffffffffff8111156115b257600080fd5b611092848285016114fc565b6000602082840312156115d057600080fd5b6110b68261141f565b600080604083850312156115ec57600080fd5b6115f58361141f565b91506116036020840161141f565b90509250929050565b600060208083018184528085518083526040925060408601915060408160051b87010184880160005b8381101561169557603f19898403018552815160a0815181865261165b828701826113e0565b838b0151878c0152898401518a88015260608085015190880152608093840151939096019290925250509386019390860190600101611635565b509098975050505050505050565b600080600080600060a086880312156116bb57600080fd5b853594506020860135935060408601359250606086013567ffffffffffffffff8111156116e757600080fd5b6116f3888289016114fc565b925050611702608087016114ba565b90509295509295909350565b600181811c9082168061172257607f821691505b60208210810361174257634e487b7160e01b600052602260045260246000fd5b50919050565b60208082526025908201527f4f6e6c7920746865206f776e65722063616e2063616c6c20746869732066756e60408201526431ba34b7b760d91b606082015260800190565b60208082526018908201527f5a65726f2061646472657373206e6f7420616c6c6f7765640000000000000000604082015260600190565b634e487b7160e01b600052603260045260246000fd5b600082516117ec8184602087016113bc565b9190910192915050565b60008083546118048161170e565b6001828116801561181c576001811461183157611860565b60ff1984168752821515830287019450611860565b8760005260208060002060005b858110156118575781548a82015290840190820161183e565b50505082870194505b50929695505050505050565b634e487b7160e01b600052601160045260246000fd5b818103818111156103e0576103e061186c565b601f821115610f6d576000816000526020600020601f850160051c810160208610156118be5750805b601f850160051c820191505b818110156118dd578281556001016118ca565b505050505050565b8181036118f0575050565b6118fa825461170e565b67ffffffffffffffff811115611912576119126114e6565b61192681611920845461170e565b84611895565b6000601f82116001811461195a57600083156119425750848201545b600019600385901b1c1916600184901b178455610f59565b600085815260209020601f19841690600086815260209020845b838110156119945782860154825560019586019590910190602001611974565b50858310156119b25781850154600019600388901b60f8161c191681555b5050505050600190811b01905550565b634e487b7160e01b600052603160045260246000fd5b6000602082840312156119ea57600080fd5b815180151581146110b657600080fd5b60208082526014908201527318d554d1081d1c985b9cd9995c8819985a5b195960621b604082015260600190565b600060208284031215611a3a57600080fd5b5051919050565b600060018201611a5357611a5361186c565b5060010190565b808201808211156103e0576103e061186c565b815167ffffffffffffffff811115611a8757611a876114e6565b611a9581611920845461170e565b602080601f831160018114611aca5760008415611ab25750858301515b600019600386901b1c1916600185901b1785556118dd565b600085815260208120601f198616915b82811015611af957888601518255948401946001909101908401611ada565b50858210156119b257939096015160001960f8600387901b161c19169092555050600190811b01905550565b60c081526000611b3860c08301896113e0565b602083019790975250604081019490945260608401929092526001600160a01b0316608083015260a090910152919050565b634e487b7160e01b600052600160045260246000fd5b80820281158282048414176103e0576103e061186c565b600082611bb457634e487b7160e01b600052601260045260246000fd5b50049056fea2646970667358221220ba17e5c8304c77b710c1b16f4f64567e51a2309dd0b38aae9ef498bab503cc0b64736f6c63430008180033",
  "linkReferences": {},
  "deployedLinkReferences": {}
}